{
  "_format": "hh-sol-artifact-1",
  "contractName": "Rental",
  "sourceName": "contracts/rental.sol",
  "abi": [
    {
      "inputs": [
        {
          "internalType": "uint256",
          "name": "_payDate",
          "type": "uint256"
        },
        {
          "internalType": "uint256",
          "name": "_expectedRent",
          "type": "uint256"
        },
        {
          "internalType": "address",
          "name": "_renter",
          "type": "address"
        },
        {
          "internalType": "address",
          "name": "_landlord",
          "type": "address"
        },
        {
          "internalType": "uint256",
          "name": "_startDate",
          "type": "uint256"
        },
        {
          "internalType": "uint256",
          "name": "_endDate",
          "type": "uint256"
        },
        {
          "internalType": "string",
          "name": "_loc",
          "type": "string"
        }
      ],
      "stateMutability": "nonpayable",
      "type": "constructor"
    },
    {
      "inputs": [
        {
          "internalType": "address",
          "name": "owner",
          "type": "address"
        }
      ],
      "name": "OwnableInvalidOwner",
      "type": "error"
    },
    {
      "inputs": [
        {
          "internalType": "address",
          "name": "account",
          "type": "address"
        }
      ],
      "name": "OwnableUnauthorizedAccount",
      "type": "error"
    },
    {
      "inputs": [],
      "name": "ReentrancyGuardReentrantCall",
      "type": "error"
    },
    {
      "anonymous": false,
      "inputs": [
        {
          "indexed": true,
          "internalType": "uint256",
          "name": "endDate",
          "type": "uint256"
        },
        {
          "indexed": false,
          "internalType": "address",
          "name": "owner",
          "type": "address"
        }
      ],
      "name": "NewEnd",
      "type": "event"
    },
    {
      "anonymous": false,
      "inputs": [
        {
          "indexed": true,
          "internalType": "uint256",
          "name": "payDate",
          "type": "uint256"
        },
        {
          "indexed": true,
          "internalType": "address",
          "name": "renter",
          "type": "address"
        }
      ],
      "name": "NewPayDate",
      "type": "event"
    },
    {
      "anonymous": false,
      "inputs": [
        {
          "indexed": true,
          "internalType": "address",
          "name": "previousOwner",
          "type": "address"
        },
        {
          "indexed": true,
          "internalType": "address",
          "name": "newOwner",
          "type": "address"
        }
      ],
      "name": "OwnershipTransferred",
      "type": "event"
    },
    {
      "anonymous": false,
      "inputs": [
        {
          "indexed": false,
          "internalType": "uint256",
          "name": "payDate",
          "type": "uint256"
        },
        {
          "indexed": false,
          "internalType": "uint256",
          "name": "amount",
          "type": "uint256"
        },
        {
          "indexed": true,
          "internalType": "address",
          "name": "renter",
          "type": "address"
        },
        {
          "indexed": false,
          "internalType": "bool",
          "name": "onTime",
          "type": "bool"
        }
      ],
      "name": "RentPaid",
      "type": "event"
    },
    {
      "anonymous": false,
      "inputs": [
        {
          "indexed": true,
          "internalType": "uint256",
          "name": "newRent",
          "type": "uint256"
        },
        {
          "indexed": false,
          "internalType": "address",
          "name": "landlord",
          "type": "address"
        }
      ],
      "name": "RentUpdate",
      "type": "event"
    },
    {
      "inputs": [],
      "name": "checkRent",
      "outputs": [
        {
          "internalType": "uint256",
          "name": "",
          "type": "uint256"
        }
      ],
      "stateMutability": "view",
      "type": "function"
    },
    {
      "inputs": [],
      "name": "endDate",
      "outputs": [
        {
          "internalType": "uint256",
          "name": "",
          "type": "uint256"
        }
      ],
      "stateMutability": "view",
      "type": "function"
    },
    {
      "inputs": [],
      "name": "getLandlord",
      "outputs": [
        {
          "internalType": "address",
          "name": "",
          "type": "address"
        }
      ],
      "stateMutability": "view",
      "type": "function"
    },
    {
      "inputs": [],
      "name": "getPaymentCount",
      "outputs": [
        {
          "internalType": "uint256",
          "name": "",
          "type": "uint256"
        }
      ],
      "stateMutability": "view",
      "type": "function"
    },
    {
      "inputs": [],
      "name": "getPayments",
      "outputs": [
        {
          "components": [
            {
              "internalType": "uint256",
              "name": "date",
              "type": "uint256"
            },
            {
              "internalType": "bool",
              "name": "paid",
              "type": "bool"
            },
            {
              "internalType": "bool",
              "name": "onTime",
              "type": "bool"
            },
            {
              "internalType": "bytes32",
              "name": "txHash",
              "type": "bytes32"
            }
          ],
          "internalType": "struct Rental.Payment[]",
          "name": "",
          "type": "tuple[]"
        }
      ],
      "stateMutability": "view",
      "type": "function"
    },
    {
      "inputs": [],
      "name": "getScore",
      "outputs": [
        {
          "internalType": "uint256",
          "name": "",
          "type": "uint256"
        }
      ],
      "stateMutability": "view",
      "type": "function"
    },
    {
      "inputs": [],
      "name": "loc",
      "outputs": [
        {
          "internalType": "string",
          "name": "",
          "type": "string"
        }
      ],
      "stateMutability": "view",
      "type": "function"
    },
    {
      "inputs": [],
      "name": "owner",
      "outputs": [
        {
          "internalType": "address",
          "name": "",
          "type": "address"
        }
      ],
      "stateMutability": "view",
      "type": "function"
    },
    {
      "inputs": [],
      "name": "payDate",
      "outputs": [
        {
          "internalType": "uint256",
          "name": "",
          "type": "uint256"
        }
      ],
      "stateMutability": "view",
      "type": "function"
    },
    {
      "inputs": [],
      "name": "payRent",
      "outputs": [],
      "stateMutability": "payable",
      "type": "function"
    },
    {
      "inputs": [
        {
          "internalType": "uint256",
          "name": "",
          "type": "uint256"
        }
      ],
      "name": "paymentSchedule",
      "outputs": [
        {
          "internalType": "uint256",
          "name": "date",
          "type": "uint256"
        },
        {
          "internalType": "bool",
          "name": "paid",
          "type": "bool"
        },
        {
          "internalType": "bool",
          "name": "onTime",
          "type": "bool"
        },
        {
          "internalType": "bytes32",
          "name": "txHash",
          "type": "bytes32"
        }
      ],
      "stateMutability": "view",
      "type": "function"
    },
    {
      "inputs": [
        {
          "internalType": "uint256",
          "name": "pd",
          "type": "uint256"
        },
        {
          "internalType": "uint256",
          "name": "endLease",
          "type": "uint256"
        }
      ],
      "name": "populateSchedule",
      "outputs": [],
      "stateMutability": "nonpayable",
      "type": "function"
    },
    {
      "inputs": [],
      "name": "renounceOwnership",
      "outputs": [],
      "stateMutability": "nonpayable",
      "type": "function"
    },
    {
      "inputs": [],
      "name": "sendNotice",
      "outputs": [],
      "stateMutability": "nonpayable",
      "type": "function"
    },
    {
      "inputs": [],
      "name": "startDate",
      "outputs": [
        {
          "internalType": "uint256",
          "name": "",
          "type": "uint256"
        }
      ],
      "stateMutability": "view",
      "type": "function"
    },
    {
      "inputs": [
        {
          "internalType": "bytes32",
          "name": "transaction_id",
          "type": "bytes32"
        }
      ],
      "name": "storeHash",
      "outputs": [],
      "stateMutability": "nonpayable",
      "type": "function"
    },
    {
      "inputs": [
        {
          "internalType": "address",
          "name": "newOwner",
          "type": "address"
        }
      ],
      "name": "transferOwnership",
      "outputs": [],
      "stateMutability": "nonpayable",
      "type": "function"
    },
    {
      "inputs": [
        {
          "internalType": "uint256",
          "name": "_newDate",
          "type": "uint256"
        }
      ],
      "name": "updateExpiry",
      "outputs": [],
      "stateMutability": "nonpayable",
      "type": "function"
    },
    {
      "inputs": [
        {
          "internalType": "uint256",
          "name": "_newRent",
          "type": "uint256"
        }
      ],
      "name": "updateRent",
      "outputs": [],
      "stateMutability": "nonpayable",
      "type": "function"
    }
  ],
  "bytecode": "0x608060405234801561001057600080fd5b506040516133e43803806133e483398181016040528101906100329190610a02565b846001600081905550600073ffffffffffffffffffffffffffffffffffffffff168173ffffffffffffffffffffffffffffffffffffffff16036100ad5760006040517f1e4fbdf70000000000000000000000000000000000000000000000000000000081526004016100a49190610acf565b60405180910390fd5b6100bc8161019760201b60201c565b50866003819055508560028190555084600760006101000a81548173ffffffffffffffffffffffffffffffffffffffff021916908373ffffffffffffffffffffffffffffffffffffffff16021790555083600860006101000a81548173ffffffffffffffffffffffffffffffffffffffff021916908373ffffffffffffffffffffffffffffffffffffffff1602179055506064600681905550826004819055508160058190555080600990816101729190610d01565b50610183878361025d60201b60201c565b6000600b81905550505050505050506110b0565b6000600160009054906101000a900473ffffffffffffffffffffffffffffffffffffffff16905081600160006101000a81548173ffffffffffffffffffffffffffffffffffffffff021916908373ffffffffffffffffffffffffffffffffffffffff1602179055508173ffffffffffffffffffffffffffffffffffffffff168173ffffffffffffffffffffffffffffffffffffffff167f8be0079c531659141344cd1fd0a4f28419497f9722a3daafe3b4186f6b6457e060405160405180910390a35050565b5b80821161032857600a60405180608001604052808481526020016000151581526020016000151581526020016000801b81525090806001815401808255809150506001900390600052602060002090600302016000909190919091506000820151816000015560208201518160010160006101000a81548160ff02191690831515021790555060408201518160010160016101000a81548160ff02191690831515021790555060608201518160020155505061032182600161032c60201b60201c565b915061025e565b5050565b60008060008061034f62015180876103449190610e31565b61042160201b60201c565b92509250925084826103619190610e62565b9150600c6001836103729190610e96565b61037c9190610e31565b836103879190610e62565b92506001600c60018461039a9190610e96565b6103a49190610eca565b6103ae9190610e62565b915060006103c284846105c060201b60201c565b9050808211156103d0578091505b62015180876103df9190610eca565b620151806103f486868661065160201b60201c565b6103fe9190610efb565b6104089190610e62565b94508685101561041757600080fd5b5050505092915050565b600080600080849050600062253d8c62010bd98361043f9190610f47565b6104499190610f47565b9050600062023ab182600461045e9190610f8b565b6104689190611003565b9050600460038262023ab161047d9190610f8b565b6104879190610f47565b6104919190611003565b8261049c919061106d565b9150600062164b096001846104b19190610f47565b610fa06104be9190610f8b565b6104c89190611003565b9050601f6004826105b56104dc9190610f8b565b6104e69190611003565b846104f1919061106d565b6104fb9190610f47565b9250600061098f84605061050f9190610f8b565b6105199190611003565b9050600060508261098f61052d9190610f8b565b6105379190611003565b85610542919061106d565b9050600b826105519190611003565b945084600c6105609190610f8b565b60028361056d9190610f47565b610577919061106d565b91508483603186610588919061106d565b60646105949190610f8b565b61059e9190610f47565b6105a89190610f47565b92508298508197508096505050505050509193909250565b600060018214806105d15750600382145b806105dc5750600582145b806105e75750600782145b806105f25750600882145b806105fd5750600a82145b806106085750600c82145b1561061657601f905061064b565b6002821461062757601e905061064a565b610636836107b060201b60201c565b61064157601c610644565b601d5b60ff1690505b5b92915050565b60006107b284101561066257600080fd5b600084905060008490506000849050600062253d8c60046064600c600e8761068a919061106d565b6106949190611003565b611324886106a29190610f47565b6106ac9190610f47565b6106b69190611003565b60036106c29190610f8b565b6106cc9190611003565b600c80600c600e886106de919061106d565b6106e89190611003565b6106f29190610f8b565b6002876106ff919061106d565b610709919061106d565b61016f6107169190610f8b565b6107209190611003565b6004600c600e88610731919061106d565b61073b9190611003565b6112c0896107499190610f47565b6107539190610f47565b6105b56107609190610f8b565b61076a9190611003565b617d4b86610778919061106d565b6107829190610f47565b61078c9190610f47565b610796919061106d565b6107a0919061106d565b9050809450505050509392505050565b6000806004836107c09190610eca565b1480156107da575060006064836107d79190610eca565b14155b806107f257506000610190836107f09190610eca565b145b9050919050565b6000604051905090565b600080fd5b600080fd5b6000819050919050565b6108208161080d565b811461082b57600080fd5b50565b60008151905061083d81610817565b92915050565b600073ffffffffffffffffffffffffffffffffffffffff82169050919050565b600061086e82610843565b9050919050565b61087e81610863565b811461088957600080fd5b50565b60008151905061089b81610875565b92915050565b600080fd5b600080fd5b6000601f19601f8301169050919050565b7f4e487b7100000000000000000000000000000000000000000000000000000000600052604160045260246000fd5b6108f4826108ab565b810181811067ffffffffffffffff82111715610913576109126108bc565b5b80604052505050565b60006109266107f9565b905061093282826108eb565b919050565b600067ffffffffffffffff821115610952576109516108bc565b5b61095b826108ab565b9050602081019050919050565b60005b8381101561098657808201518184015260208101905061096b565b60008484015250505050565b60006109a56109a084610937565b61091c565b9050828152602081018484840111156109c1576109c06108a6565b5b6109cc848285610968565b509392505050565b600082601f8301126109e9576109e86108a1565b5b81516109f9848260208601610992565b91505092915050565b600080600080600080600060e0888a031215610a2157610a20610803565b5b6000610a2f8a828b0161082e565b9750506020610a408a828b0161082e565b9650506040610a518a828b0161088c565b9550506060610a628a828b0161088c565b9450506080610a738a828b0161082e565b93505060a0610a848a828b0161082e565b92505060c088015167ffffffffffffffff811115610aa557610aa4610808565b5b610ab18a828b016109d4565b91505092959891949750929550565b610ac981610863565b82525050565b6000602082019050610ae46000830184610ac0565b92915050565b600081519050919050565b7f4e487b7100000000000000000000000000000000000000000000000000000000600052602260045260246000fd5b60006002820490506001821680610b3c57607f821691505b602082108103610b4f57610b4e610af5565b5b50919050565b60008190508160005260206000209050919050565b60006020601f8301049050919050565b600082821b905092915050565b600060088302610bb77fffffffffffffffffffffffffffffffffffffffffffffffffffffffffffffffff82610b7a565b610bc18683610b7a565b95508019841693508086168417925050509392505050565b6000819050919050565b6000610bfe610bf9610bf48461080d565b610bd9565b61080d565b9050919050565b6000819050919050565b610c1883610be3565b610c2c610c2482610c05565b848454610b87565b825550505050565b600090565b610c41610c34565b610c4c818484610c0f565b505050565b5b81811015610c7057610c65600082610c39565b600181019050610c52565b5050565b601f821115610cb557610c8681610b55565b610c8f84610b6a565b81016020851015610c9e578190505b610cb2610caa85610b6a565b830182610c51565b50505b505050565b600082821c905092915050565b6000610cd860001984600802610cba565b1980831691505092915050565b6000610cf18383610cc7565b9150826002028217905092915050565b610d0a82610aea565b67ffffffffffffffff811115610d2357610d226108bc565b5b610d2d8254610b24565b610d38828285610c74565b600060209050601f831160018114610d6b5760008415610d59578287015190505b610d638582610ce5565b865550610dcb565b601f198416610d7986610b55565b60005b82811015610da157848901518255600182019150602085019450602081019050610d7c565b86831015610dbe5784890151610dba601f891682610cc7565b8355505b6001600288020188555050505b505050505050565b7f4e487b7100000000000000000000000000000000000000000000000000000000600052601260045260246000fd5b7f4e487b7100000000000000000000000000000000000000000000000000000000600052601160045260246000fd5b6000610e3c8261080d565b9150610e478361080d565b925082610e5757610e56610dd3565b5b828204905092915050565b6000610e6d8261080d565b9150610e788361080d565b9250828201905080821115610e9057610e8f610e02565b5b92915050565b6000610ea18261080d565b9150610eac8361080d565b9250828203905081811115610ec457610ec3610e02565b5b92915050565b6000610ed58261080d565b9150610ee08361080d565b925082610ef057610eef610dd3565b5b828206905092915050565b6000610f068261080d565b9150610f118361080d565b9250828202610f1f8161080d565b91508282048414831517610f3657610f35610e02565b5b5092915050565b6000819050919050565b6000610f5282610f3d565b9150610f5d83610f3d565b925082820190508281121560008312168382126000841215161715610f8557610f84610e02565b5b92915050565b6000610f9682610f3d565b9150610fa183610f3d565b9250828202610faf81610f3d565b91507f80000000000000000000000000000000000000000000000000000000000000008414600084121615610fe757610fe6610e02565b5b8282058414831517610ffc57610ffb610e02565b5b5092915050565b600061100e82610f3d565b915061101983610f3d565b92508261102957611028610dd3565b5b600160000383147f80000000000000000000000000000000000000000000000000000000000000008314161561106257611061610e02565b5b828205905092915050565b600061107882610f3d565b915061108383610f3d565b92508282039050818112600084121682821360008512151617156110aa576110a9610e02565b5b92915050565b612325806110bf6000396000f3fe6080604052600436106101145760003560e01c8063a709c4fe116100a0578063d359f82c11610064578063d359f82c1461033b578063d56bd14214610364578063eb9220ab1461038f578063f2fde38b146103b8578063f502236d146103e157610114565b8063a709c4fe14610285578063abb078761461028f578063af32a03f146102ba578063afd82067146102e5578063c24a0f8b1461031057610114565b806357ef9b6a116100e757806357ef9b6a146101c4578063715018a6146101ef5780637fe88885146102065780638da5cb5b1461022f5780639b332a911461025a57610114565b80630b97bc86146101195780631979cd13146101445780631e60c5371461015b57806321dd22d114610184575b600080fd5b34801561012557600080fd5b5061012e61040c565b60405161013b9190611813565b60405180910390f35b34801561015057600080fd5b50610159610412565b005b34801561016757600080fd5b50610182600480360381019061017d919061185f565b6104fc565b005b34801561019057600080fd5b506101ab60048036038101906101a6919061189f565b6105c5565b6040516101bb9493929190611900565b60405180910390f35b3480156101d057600080fd5b506101d961061f565b6040516101e69190611813565b60405180910390f35b3480156101fb57600080fd5b50610204610711565b005b34801561021257600080fd5b5061022d60048036038101906102289190611971565b610725565b005b34801561023b57600080fd5b50610244610760565b60405161025191906119df565b60405180910390f35b34801561026657600080fd5b5061026f61078a565b60405161027c9190611813565b60405180910390f35b61028d610790565b005b34801561029b57600080fd5b506102a4610b5a565b6040516102b19190611a8a565b60405180910390f35b3480156102c657600080fd5b506102cf610be8565b6040516102dc9190611813565b60405180910390f35b3480156102f157600080fd5b506102fa610bf5565b6040516103079190611813565b60405180910390f35b34801561031c57600080fd5b50610325610ce7565b6040516103329190611813565b60405180910390f35b34801561034757600080fd5b50610362600480360381019061035d919061189f565b610ced565b005b34801561037057600080fd5b50610379610dc1565b6040516103869190611bdd565b60405180910390f35b34801561039b57600080fd5b506103b660048036038101906103b1919061189f565b610e6a565b005b3480156103c457600080fd5b506103df60048036038101906103da9190611c2b565b610f3c565b005b3480156103ed57600080fd5b506103f6610fc2565b60405161040391906119df565b60405180910390f35b60045481565b600760009054906101000a900473ffffffffffffffffffffffffffffffffffffffff1673ffffffffffffffffffffffffffffffffffffffff163373ffffffffffffffffffffffffffffffffffffffff1614806104bb5750600860009054906101000a900473ffffffffffffffffffffffffffffffffffffffff1673ffffffffffffffffffffffffffffffffffffffff163373ffffffffffffffffffffffffffffffffffffffff16145b6104fa576040517f08c379a00000000000000000000000000000000000000000000000000000000081526004016104f190611ca4565b60405180910390fd5b565b5b8082116105c157600a60405180608001604052808481526020016000151581526020016000151581526020016000801b81525090806001815401808255809150506001900390600052602060002090600302016000909190919091506000820151816000015560208201518160010160006101000a81548160ff02191690831515021790555060408201518160010160016101000a81548160ff0219169083151502179055506060820151816002015550506105ba8260016110d4565b91506104fd565b5050565b600a81815481106105d557600080fd5b90600052602060002090600302016000915090508060000154908060010160009054906101000a900460ff16908060010160019054906101000a900460ff16908060020154905084565b6000600760009054906101000a900473ffffffffffffffffffffffffffffffffffffffff1673ffffffffffffffffffffffffffffffffffffffff163373ffffffffffffffffffffffffffffffffffffffff1614806106ca5750600860009054906101000a900473ffffffffffffffffffffffffffffffffffffffff1673ffffffffffffffffffffffffffffffffffffffff163373ffffffffffffffffffffffffffffffffffffffff16145b610709576040517f08c379a000000000000000000000000000000000000000000000000000000000815260040161070090611ca4565b60405180910390fd5b600254905090565b6107196111b7565b610723600061123e565b565b80600a6001600b546107379190611cf3565b8154811061074857610747611d27565b5b90600052602060002090600302016002018190555050565b6000600160009054906101000a900473ffffffffffffffffffffffffffffffffffffffff16905090565b60035481565b610798611304565b6000600760009054906101000a900473ffffffffffffffffffffffffffffffffffffffff1673ffffffffffffffffffffffffffffffffffffffff163373ffffffffffffffffffffffffffffffffffffffff161461082a576040517f08c379a000000000000000000000000000000000000000000000000000000000815260040161082190611da2565b60405180910390fd5b600254341461086e576040517f08c379a000000000000000000000000000000000000000000000000000000000815260040161086590611e0e565b60405180910390fd5b6005544211156108b3576040517f08c379a00000000000000000000000000000000000000000000000000000000081526004016108aa90611e7a565b60405180910390fd5b6000600860009054906101000a900473ffffffffffffffffffffffffffffffffffffffff1673ffffffffffffffffffffffffffffffffffffffff16346040516108fb90611ecb565b60006040518083038185875af1925050503d8060008114610938576040519150601f19603f3d011682016040523d82523d6000602084013e61093d565b606091505b5050905080610981576040517f08c379a000000000000000000000000000000000000000000000000000000000815260040161097890611f2c565b60405180910390fd5b61098b600161134a565b9150600760009054906101000a900473ffffffffffffffffffffffffffffffffffffffff1673ffffffffffffffffffffffffffffffffffffffff167fdaa6426225fa3d467a9286f8d7ba9eab9344ed25a3c4455c9bd9d7191ecb9f53600a600b54815481106109fd576109fc611d27565b5b9060005260206000209060030201600001543485604051610a2093929190611f4c565b60405180910390a26001600a600b5481548110610a4057610a3f611d27565b5b906000526020600020906003020160010160006101000a81548160ff02191690831515021790555081600a600b5481548110610a7f57610a7e611d27565b5b906000526020600020906003020160010160016101000a81548160ff0219169083151502179055506001600b6000828254610aba9190611f83565b92505081905550600760009054906101000a900473ffffffffffffffffffffffffffffffffffffffff1673ffffffffffffffffffffffffffffffffffffffff16600a600b5481548110610b1057610b0f611d27565b5b9060005260206000209060030201600001547fc4cfadff292c5ae98f722bf64f2b796e63c8b127eec85447beaa33278703c87a60405160405180910390a35050610b58611416565b565b60098054610b6790611fe6565b80601f0160208091040260200160405190810160405280929190818152602001828054610b9390611fe6565b8015610be05780601f10610bb557610100808354040283529160200191610be0565b820191906000526020600020905b815481529060010190602001808311610bc357829003601f168201915b505050505081565b6000600a80549050905090565b6000600760009054906101000a900473ffffffffffffffffffffffffffffffffffffffff1673ffffffffffffffffffffffffffffffffffffffff163373ffffffffffffffffffffffffffffffffffffffff161480610ca05750600860009054906101000a900473ffffffffffffffffffffffffffffffffffffffff1673ffffffffffffffffffffffffffffffffffffffff163373ffffffffffffffffffffffffffffffffffffffff16145b610cdf576040517f08c379a0000000000000000000000000000000000000000000000000000000008152600401610cd690611ca4565b60405180910390fd5b600654905090565b60055481565b600860009054906101000a900473ffffffffffffffffffffffffffffffffffffffff1673ffffffffffffffffffffffffffffffffffffffff163373ffffffffffffffffffffffffffffffffffffffff1614610d7d576040517f08c379a0000000000000000000000000000000000000000000000000000000008152600401610d7490612089565b60405180910390fd5b806005819055506005547f1e9300ca5a9796c5241a9179ea7078806d81321510ec101d80bc8b3bb34b1bbe33604051610db691906119df565b60405180910390a250565b6060600a805480602002602001604051908101604052809291908181526020016000905b82821015610e615783829060005260206000209060030201604051806080016040529081600082015481526020016001820160009054906101000a900460ff161515151581526020016001820160019054906101000a900460ff1615151515815260200160028201548152505081526020019060010190610de5565b50505050905090565b600860009054906101000a900473ffffffffffffffffffffffffffffffffffffffff1673ffffffffffffffffffffffffffffffffffffffff163373ffffffffffffffffffffffffffffffffffffffff1614610efa576040517f08c379a0000000000000000000000000000000000000000000000000000000008152600401610ef190612089565b60405180910390fd5b80600281905550807f92db6122fb059af80b30cb7ddb63563f1eb91b94fd91d45834adf27bbc7bb84133604051610f3191906119df565b60405180910390a250565b610f446111b7565b600073ffffffffffffffffffffffffffffffffffffffff168173ffffffffffffffffffffffffffffffffffffffff1603610fb65760006040517f1e4fbdf7000000000000000000000000000000000000000000000000000000008152600401610fad91906119df565b60405180910390fd5b610fbf8161123e565b50565b6000600760009054906101000a900473ffffffffffffffffffffffffffffffffffffffff1673ffffffffffffffffffffffffffffffffffffffff163373ffffffffffffffffffffffffffffffffffffffff16148061106d5750600860009054906101000a900473ffffffffffffffffffffffffffffffffffffffff1673ffffffffffffffffffffffffffffffffffffffff163373ffffffffffffffffffffffffffffffffffffffff16145b6110ac576040517f08c379a00000000000000000000000000000000000000000000000000000000081526004016110a390611ca4565b60405180910390fd5b600860009054906101000a900473ffffffffffffffffffffffffffffffffffffffff16905090565b6000806000806110f162015180876110ec91906120d8565b611420565b92509250925084826111039190611f83565b9150600c6001836111149190611cf3565b61111e91906120d8565b836111299190611f83565b92506001600c60018461113c9190611cf3565b6111469190612109565b6111509190611f83565b9150600061115e84846115bf565b90508082111561116c578091505b620151808761117b9190612109565b6201518061118a86868661164a565b611194919061213a565b61119e9190611f83565b9450868510156111ad57600080fd5b5050505092915050565b6111bf6117a9565b73ffffffffffffffffffffffffffffffffffffffff166111dd610760565b73ffffffffffffffffffffffffffffffffffffffff161461123c576112006117a9565b6040517f118cdaa700000000000000000000000000000000000000000000000000000000815260040161123391906119df565b60405180910390fd5b565b6000600160009054906101000a900473ffffffffffffffffffffffffffffffffffffffff16905081600160006101000a81548173ffffffffffffffffffffffffffffffffffffffff021916908373ffffffffffffffffffffffffffffffffffffffff1602179055508173ffffffffffffffffffffffffffffffffffffffff168173ffffffffffffffffffffffffffffffffffffffff167f8be0079c531659141344cd1fd0a4f28419497f9722a3daafe3b4186f6b6457e060405160405180910390a35050565b600260005403611340576040517f3ee5aeb500000000000000000000000000000000000000000000000000000000815260040160405180910390fd5b6002600081905550565b600080620151808361135c919061213a565b600a600b548154811061137257611371611d27565b5b90600052602060002090600302016000015461138e9190611f83565b90508042106113f15760006201518082426113a99190611cf3565b6113b391906120d8565b90508060065410156113cc5760006006819055506113e6565b80600660008282546113de9190611cf3565b925050819055505b600092505050611411565b600a600660008282546114049190611f83565b9250508190555060019150505b919050565b6001600081905550565b600080600080849050600062253d8c62010bd98361143e9190612186565b6114489190612186565b9050600062023ab182600461145d91906121ca565b6114679190612242565b9050600460038262023ab161147c91906121ca565b6114869190612186565b6114909190612242565b8261149b91906122ac565b9150600062164b096001846114b09190612186565b610fa06114bd91906121ca565b6114c79190612242565b9050601f6004826105b56114db91906121ca565b6114e59190612242565b846114f091906122ac565b6114fa9190612186565b9250600061098f84605061150e91906121ca565b6115189190612242565b9050600060508261098f61152c91906121ca565b6115369190612242565b8561154191906122ac565b9050600b826115509190612242565b945084600c61155f91906121ca565b60028361156c9190612186565b61157691906122ac565b9150848360318661158791906122ac565b606461159391906121ca565b61159d9190612186565b6115a79190612186565b92508298508197508096505050505050509193909250565b600060018214806115d05750600382145b806115db5750600582145b806115e65750600782145b806115f15750600882145b806115fc5750600a82145b806116075750600c82145b1561161557601f9050611644565b6002821461162657601e9050611643565b61162f836117b1565b61163a57601c61163d565b601d5b60ff1690505b5b92915050565b60006107b284101561165b57600080fd5b600084905060008490506000849050600062253d8c60046064600c600e8761168391906122ac565b61168d9190612242565b6113248861169b9190612186565b6116a59190612186565b6116af9190612242565b60036116bb91906121ca565b6116c59190612242565b600c80600c600e886116d791906122ac565b6116e19190612242565b6116eb91906121ca565b6002876116f891906122ac565b61170291906122ac565b61016f61170f91906121ca565b6117199190612242565b6004600c600e8861172a91906122ac565b6117349190612242565b6112c0896117429190612186565b61174c9190612186565b6105b561175991906121ca565b6117639190612242565b617d4b8661177191906122ac565b61177b9190612186565b6117859190612186565b61178f91906122ac565b61179991906122ac565b9050809450505050509392505050565b600033905090565b6000806004836117c19190612109565b1480156117db575060006064836117d89190612109565b14155b806117f357506000610190836117f19190612109565b145b9050919050565b6000819050919050565b61180d816117fa565b82525050565b60006020820190506118286000830184611804565b92915050565b600080fd5b61183c816117fa565b811461184757600080fd5b50565b60008135905061185981611833565b92915050565b600080604083850312156118765761187561182e565b5b60006118848582860161184a565b92505060206118958582860161184a565b9150509250929050565b6000602082840312156118b5576118b461182e565b5b60006118c38482850161184a565b91505092915050565b60008115159050919050565b6118e1816118cc565b82525050565b6000819050919050565b6118fa816118e7565b82525050565b60006080820190506119156000830187611804565b61192260208301866118d8565b61192f60408301856118d8565b61193c60608301846118f1565b95945050505050565b61194e816118e7565b811461195957600080fd5b50565b60008135905061196b81611945565b92915050565b6000602082840312156119875761198661182e565b5b60006119958482850161195c565b91505092915050565b600073ffffffffffffffffffffffffffffffffffffffff82169050919050565b60006119c98261199e565b9050919050565b6119d9816119be565b82525050565b60006020820190506119f460008301846119d0565b92915050565b600081519050919050565b600082825260208201905092915050565b60005b83811015611a34578082015181840152602081019050611a19565b60008484015250505050565b6000601f19601f8301169050919050565b6000611a5c826119fa565b611a668185611a05565b9350611a76818560208601611a16565b611a7f81611a40565b840191505092915050565b60006020820190508181036000830152611aa48184611a51565b905092915050565b600081519050919050565b600082825260208201905092915050565b6000819050602082019050919050565b611ae1816117fa565b82525050565b611af0816118cc565b82525050565b611aff816118e7565b82525050565b608082016000820151611b1b6000850182611ad8565b506020820151611b2e6020850182611ae7565b506040820151611b416040850182611ae7565b506060820151611b546060850182611af6565b50505050565b6000611b668383611b05565b60808301905092915050565b6000602082019050919050565b6000611b8a82611aac565b611b948185611ab7565b9350611b9f83611ac8565b8060005b83811015611bd0578151611bb78882611b5a565b9750611bc283611b72565b925050600181019050611ba3565b5085935050505092915050565b60006020820190508181036000830152611bf78184611b7f565b905092915050565b611c08816119be565b8114611c1357600080fd5b50565b600081359050611c2581611bff565b92915050565b600060208284031215611c4157611c4061182e565b5b6000611c4f84828501611c16565b91505092915050565b7f57616c6c6574206e6f7420616c6c6f7765640000000000000000000000000000600082015250565b6000611c8e601283611a05565b9150611c9982611c58565b602082019050919050565b60006020820190508181036000830152611cbd81611c81565b9050919050565b7f4e487b7100000000000000000000000000000000000000000000000000000000600052601160045260246000fd5b6000611cfe826117fa565b9150611d09836117fa565b9250828203905081811115611d2157611d20611cc4565b5b92915050565b7f4e487b7100000000000000000000000000000000000000000000000000000000600052603260045260246000fd5b7f5061796572206e6f7420616c6c6f776564000000000000000000000000000000600082015250565b6000611d8c601183611a05565b9150611d9782611d56565b602082019050919050565b60006020820190508181036000830152611dbb81611d7f565b9050919050565b7f57726f6e672072656e7420616d6f756e74000000000000000000000000000000600082015250565b6000611df8601183611a05565b9150611e0382611dc2565b602082019050919050565b60006020820190508181036000830152611e2781611deb565b9050919050565b7f546865206c656173652068617320657870697265640000000000000000000000600082015250565b6000611e64601583611a05565b9150611e6f82611e2e565b602082019050919050565b60006020820190508181036000830152611e9381611e57565b9050919050565b600081905092915050565b50565b6000611eb5600083611e9a565b9150611ec082611ea5565b600082019050919050565b6000611ed682611ea8565b9150819050919050565b7f4661696c656420746f2073656e64207468652072656e74000000000000000000600082015250565b6000611f16601783611a05565b9150611f2182611ee0565b602082019050919050565b60006020820190508181036000830152611f4581611f09565b9050919050565b6000606082019050611f616000830186611804565b611f6e6020830185611804565b611f7b60408301846118d8565b949350505050565b6000611f8e826117fa565b9150611f99836117fa565b9250828201905080821115611fb157611fb0611cc4565b5b92915050565b7f4e487b7100000000000000000000000000000000000000000000000000000000600052602260045260246000fd5b60006002820490506001821680611ffe57607f821691505b60208210810361201157612010611fb7565b5b50919050565b7f4f6e6c7920746865206c616e646c6f726420697320616c6c6f77656420746f2060008201527f706572666f726d2074686973206f7065726174696f6e00000000000000000000602082015250565b6000612073603683611a05565b915061207e82612017565b604082019050919050565b600060208201905081810360008301526120a281612066565b9050919050565b7f4e487b7100000000000000000000000000000000000000000000000000000000600052601260045260246000fd5b60006120e3826117fa565b91506120ee836117fa565b9250826120fe576120fd6120a9565b5b828204905092915050565b6000612114826117fa565b915061211f836117fa565b92508261212f5761212e6120a9565b5b828206905092915050565b6000612145826117fa565b9150612150836117fa565b925082820261215e816117fa565b9150828204841483151761217557612174611cc4565b5b5092915050565b6000819050919050565b60006121918261217c565b915061219c8361217c565b9250828201905082811215600083121683821260008412151617156121c4576121c3611cc4565b5b92915050565b60006121d58261217c565b91506121e08361217c565b92508282026121ee8161217c565b91507f8000000000000000000000000000000000000000000000000000000000000000841460008412161561222657612225611cc4565b5b828205841483151761223b5761223a611cc4565b5b5092915050565b600061224d8261217c565b91506122588361217c565b925082612268576122676120a9565b5b600160000383147f8000000000000000000000000000000000000000000000000000000000000000831416156122a1576122a0611cc4565b5b828205905092915050565b60006122b78261217c565b91506122c28361217c565b92508282039050818112600084121682821360008512151617156122e9576122e8611cc4565b5b9291505056fea26469706673582212201c96918a39eb5a1823b475e718cbd03e275bd1c85198aba92b18280af478270664736f6c634300081c0033",
  "linkReferences": {},
  "deployedLinkReferences": {}
}