{
  "_format": "hh-sol-artifact-1",
  "contractName": "Rental",
  "sourceName": "contracts/rental.sol",
  "abi": [
    {
      "inputs": [
        {
          "internalType": "uint256",
          "name": "_payDate",
          "type": "uint256"
        },
        {
          "internalType": "uint256",
          "name": "_expectedRent",
          "type": "uint256"
        },
        {
          "internalType": "address",
          "name": "_renter",
          "type": "address"
        },
        {
          "internalType": "address",
          "name": "_landlord",
          "type": "address"
        },
        {
          "internalType": "uint256",
          "name": "_startDate",
          "type": "uint256"
        },
        {
          "internalType": "uint256",
          "name": "_endDate",
          "type": "uint256"
        },
        {
          "internalType": "string",
          "name": "_loc",
          "type": "string"
        }
      ],
      "stateMutability": "nonpayable",
      "type": "constructor"
    },
    {
      "inputs": [
        {
          "internalType": "address",
          "name": "owner",
          "type": "address"
        }
      ],
      "name": "OwnableInvalidOwner",
      "type": "error"
    },
    {
      "inputs": [
        {
          "internalType": "address",
          "name": "account",
          "type": "address"
        }
      ],
      "name": "OwnableUnauthorizedAccount",
      "type": "error"
    },
    {
      "inputs": [],
      "name": "ReentrancyGuardReentrantCall",
      "type": "error"
    },
    {
      "anonymous": false,
      "inputs": [
        {
          "indexed": true,
          "internalType": "uint256",
          "name": "endDate",
          "type": "uint256"
        },
        {
          "indexed": false,
          "internalType": "address",
          "name": "owner",
          "type": "address"
        }
      ],
      "name": "NewEnd",
      "type": "event"
    },
    {
      "anonymous": false,
      "inputs": [
        {
          "indexed": true,
          "internalType": "uint256",
          "name": "payDate",
          "type": "uint256"
        },
        {
          "indexed": true,
          "internalType": "address",
          "name": "renter",
          "type": "address"
        }
      ],
      "name": "NewPayDate",
      "type": "event"
    },
    {
      "anonymous": false,
      "inputs": [
        {
          "indexed": true,
          "internalType": "address",
          "name": "previousOwner",
          "type": "address"
        },
        {
          "indexed": true,
          "internalType": "address",
          "name": "newOwner",
          "type": "address"
        }
      ],
      "name": "OwnershipTransferred",
      "type": "event"
    },
    {
      "anonymous": false,
      "inputs": [
        {
          "indexed": false,
          "internalType": "uint256",
          "name": "payDate",
          "type": "uint256"
        },
        {
          "indexed": false,
          "internalType": "uint256",
          "name": "amount",
          "type": "uint256"
        },
        {
          "indexed": true,
          "internalType": "address",
          "name": "renter",
          "type": "address"
        },
        {
          "indexed": false,
          "internalType": "bool",
          "name": "onTime",
          "type": "bool"
        }
      ],
      "name": "RentPaid",
      "type": "event"
    },
    {
      "anonymous": false,
      "inputs": [
        {
          "indexed": true,
          "internalType": "uint256",
          "name": "newRent",
          "type": "uint256"
        },
        {
          "indexed": false,
          "internalType": "address",
          "name": "landlord",
          "type": "address"
        }
      ],
      "name": "RentUpdate",
      "type": "event"
    },
    {
      "inputs": [],
      "name": "checkRent",
      "outputs": [
        {
          "internalType": "uint256",
          "name": "",
          "type": "uint256"
        }
      ],
      "stateMutability": "view",
      "type": "function"
    },
    {
      "inputs": [],
      "name": "endDate",
      "outputs": [
        {
          "internalType": "uint256",
          "name": "",
          "type": "uint256"
        }
      ],
      "stateMutability": "view",
      "type": "function"
    },
    {
      "inputs": [],
      "name": "getLandlord",
      "outputs": [
        {
          "internalType": "address",
          "name": "",
          "type": "address"
        }
      ],
      "stateMutability": "view",
      "type": "function"
    },
    {
      "inputs": [],
      "name": "getPaymentCount",
      "outputs": [
        {
          "internalType": "uint256",
          "name": "",
          "type": "uint256"
        }
      ],
      "stateMutability": "view",
      "type": "function"
    },
    {
      "inputs": [],
      "name": "getPayments",
      "outputs": [
        {
          "components": [
            {
              "internalType": "uint256",
              "name": "date",
              "type": "uint256"
            },
            {
              "internalType": "bool",
              "name": "paid",
              "type": "bool"
            },
            {
              "internalType": "bool",
              "name": "onTime",
              "type": "bool"
            }
          ],
          "internalType": "struct Rental.Payment[]",
          "name": "",
          "type": "tuple[]"
        }
      ],
      "stateMutability": "view",
      "type": "function"
    },
    {
      "inputs": [],
      "name": "getScore",
      "outputs": [
        {
          "internalType": "uint256",
          "name": "",
          "type": "uint256"
        }
      ],
      "stateMutability": "view",
      "type": "function"
    },
    {
      "inputs": [],
      "name": "loc",
      "outputs": [
        {
          "internalType": "string",
          "name": "",
          "type": "string"
        }
      ],
      "stateMutability": "view",
      "type": "function"
    },
    {
      "inputs": [],
      "name": "owner",
      "outputs": [
        {
          "internalType": "address",
          "name": "",
          "type": "address"
        }
      ],
      "stateMutability": "view",
      "type": "function"
    },
    {
      "inputs": [],
      "name": "payDate",
      "outputs": [
        {
          "internalType": "uint256",
          "name": "",
          "type": "uint256"
        }
      ],
      "stateMutability": "view",
      "type": "function"
    },
    {
      "inputs": [],
      "name": "payRent",
      "outputs": [],
      "stateMutability": "payable",
      "type": "function"
    },
    {
      "inputs": [
        {
          "internalType": "uint256",
          "name": "",
          "type": "uint256"
        }
      ],
      "name": "paymentSchedule",
      "outputs": [
        {
          "internalType": "uint256",
          "name": "date",
          "type": "uint256"
        },
        {
          "internalType": "bool",
          "name": "paid",
          "type": "bool"
        },
        {
          "internalType": "bool",
          "name": "onTime",
          "type": "bool"
        }
      ],
      "stateMutability": "view",
      "type": "function"
    },
    {
      "inputs": [
        {
          "internalType": "uint256",
          "name": "pd",
          "type": "uint256"
        },
        {
          "internalType": "uint256",
          "name": "endLease",
          "type": "uint256"
        }
      ],
      "name": "populateSchedule",
      "outputs": [],
      "stateMutability": "nonpayable",
      "type": "function"
    },
    {
      "inputs": [],
      "name": "renounceOwnership",
      "outputs": [],
      "stateMutability": "nonpayable",
      "type": "function"
    },
    {
      "inputs": [],
      "name": "sendNotice",
      "outputs": [],
      "stateMutability": "nonpayable",
      "type": "function"
    },
    {
      "inputs": [],
      "name": "startDate",
      "outputs": [
        {
          "internalType": "uint256",
          "name": "",
          "type": "uint256"
        }
      ],
      "stateMutability": "view",
      "type": "function"
    },
    {
      "inputs": [
        {
          "internalType": "address",
          "name": "newOwner",
          "type": "address"
        }
      ],
      "name": "transferOwnership",
      "outputs": [],
      "stateMutability": "nonpayable",
      "type": "function"
    },
    {
      "inputs": [
        {
          "internalType": "uint256",
          "name": "_newDate",
          "type": "uint256"
        }
      ],
      "name": "updateExpiry",
      "outputs": [],
      "stateMutability": "nonpayable",
      "type": "function"
    },
    {
      "inputs": [
        {
          "internalType": "uint256",
          "name": "_newRent",
          "type": "uint256"
        }
      ],
      "name": "updateRent",
      "outputs": [],
      "stateMutability": "nonpayable",
      "type": "function"
    }
  ],
  "bytecode": "0x608060405234801561001057600080fd5b506040516124fe3803806124fe83398181016040528101906100329190610520565b846001600081905550600073ffffffffffffffffffffffffffffffffffffffff168173ffffffffffffffffffffffffffffffffffffffff16036100ad5760006040517f1e4fbdf70000000000000000000000000000000000000000000000000000000081526004016100a491906105ed565b60405180910390fd5b6100bc8161019760201b60201c565b50866003819055508560028190555084600760006101000a81548173ffffffffffffffffffffffffffffffffffffffff021916908373ffffffffffffffffffffffffffffffffffffffff16021790555083600860006101000a81548173ffffffffffffffffffffffffffffffffffffffff021916908373ffffffffffffffffffffffffffffffffffffffff160217905550606460068190555082600481905550816005819055508060099081610172919061081f565b50610183878361025d60201b60201c565b6000600b8190555050505050505050610954565b6000600160009054906101000a900473ffffffffffffffffffffffffffffffffffffffff16905081600160006101000a81548173ffffffffffffffffffffffffffffffffffffffff021916908373ffffffffffffffffffffffffffffffffffffffff1602179055508173ffffffffffffffffffffffffffffffffffffffff168173ffffffffffffffffffffffffffffffffffffffff167f8be0079c531659141344cd1fd0a4f28419497f9722a3daafe3b4186f6b6457e060405160405180910390a35050565b5b80821161031357600a60405180606001604052808481526020016000151581526020016000151581525090806001815401808255809150506001900390600052602060002090600202016000909190919091506000820151816000015560208201518160010160006101000a81548160ff02191690831515021790555060408201518160010160016101000a81548160ff021916908315150217905550505062278d008261030c9190610920565b915061025e565b5050565b6000604051905090565b600080fd5b600080fd5b6000819050919050565b61033e8161032b565b811461034957600080fd5b50565b60008151905061035b81610335565b92915050565b600073ffffffffffffffffffffffffffffffffffffffff82169050919050565b600061038c82610361565b9050919050565b61039c81610381565b81146103a757600080fd5b50565b6000815190506103b981610393565b92915050565b600080fd5b600080fd5b6000601f19601f8301169050919050565b7f4e487b7100000000000000000000000000000000000000000000000000000000600052604160045260246000fd5b610412826103c9565b810181811067ffffffffffffffff82111715610431576104306103da565b5b80604052505050565b6000610444610317565b90506104508282610409565b919050565b600067ffffffffffffffff8211156104705761046f6103da565b5b610479826103c9565b9050602081019050919050565b60005b838110156104a4578082015181840152602081019050610489565b60008484015250505050565b60006104c36104be84610455565b61043a565b9050828152602081018484840111156104df576104de6103c4565b5b6104ea848285610486565b509392505050565b600082601f830112610507576105066103bf565b5b81516105178482602086016104b0565b91505092915050565b600080600080600080600060e0888a03121561053f5761053e610321565b5b600061054d8a828b0161034c565b975050602061055e8a828b0161034c565b965050604061056f8a828b016103aa565b95505060606105808a828b016103aa565b94505060806105918a828b0161034c565b93505060a06105a28a828b0161034c565b92505060c088015167ffffffffffffffff8111156105c3576105c2610326565b5b6105cf8a828b016104f2565b91505092959891949750929550565b6105e781610381565b82525050565b600060208201905061060260008301846105de565b92915050565b600081519050919050565b7f4e487b7100000000000000000000000000000000000000000000000000000000600052602260045260246000fd5b6000600282049050600182168061065a57607f821691505b60208210810361066d5761066c610613565b5b50919050565b60008190508160005260206000209050919050565b60006020601f8301049050919050565b600082821b905092915050565b6000600883026106d57fffffffffffffffffffffffffffffffffffffffffffffffffffffffffffffffff82610698565b6106df8683610698565b95508019841693508086168417925050509392505050565b6000819050919050565b600061071c6107176107128461032b565b6106f7565b61032b565b9050919050565b6000819050919050565b61073683610701565b61074a61074282610723565b8484546106a5565b825550505050565b600090565b61075f610752565b61076a81848461072d565b505050565b5b8181101561078e57610783600082610757565b600181019050610770565b5050565b601f8211156107d3576107a481610673565b6107ad84610688565b810160208510156107bc578190505b6107d06107c885610688565b83018261076f565b50505b505050565b600082821c905092915050565b60006107f6600019846008026107d8565b1980831691505092915050565b600061080f83836107e5565b9150826002028217905092915050565b61082882610608565b67ffffffffffffffff811115610841576108406103da565b5b61084b8254610642565b610856828285610792565b600060209050601f8311600181146108895760008415610877578287015190505b6108818582610803565b8655506108e9565b601f19841661089786610673565b60005b828110156108bf5784890151825560018201915060208501945060208101905061089a565b868310156108dc57848901516108d8601f8916826107e5565b8355505b6001600288020188555050505b505050505050565b7f4e487b7100000000000000000000000000000000000000000000000000000000600052601160045260246000fd5b600061092b8261032b565b91506109368361032b565b925082820190508082111561094e5761094d6108f1565b5b92915050565b611b9b806109636000396000f3fe6080604052600436106101095760003560e01c8063abb0787611610095578063d359f82c11610064578063d359f82c14610306578063d56bd1421461032f578063eb9220ab1461035a578063f2fde38b14610383578063f502236d146103ac57610109565b8063abb078761461025a578063af32a03f14610285578063afd82067146102b0578063c24a0f8b146102db57610109565b806357ef9b6a116100dc57806357ef9b6a146101b8578063715018a6146101e35780638da5cb5b146101fa5780639b332a9114610225578063a709c4fe1461025057610109565b80630b97bc861461010e5780631979cd13146101395780631e60c5371461015057806321dd22d114610179575b600080fd5b34801561011a57600080fd5b506101236103d7565b60405161013091906112cf565b60405180910390f35b34801561014557600080fd5b5061014e6103dd565b005b34801561015c57600080fd5b506101776004803603810190610172919061131b565b6104c7565b005b34801561018557600080fd5b506101a0600480360381019061019b919061135b565b610581565b6040516101af939291906113a3565b60405180910390f35b3480156101c457600080fd5b506101cd6105d5565b6040516101da91906112cf565b60405180910390f35b3480156101ef57600080fd5b506101f86106c7565b005b34801561020657600080fd5b5061020f6106db565b60405161021c919061141b565b60405180910390f35b34801561023157600080fd5b5061023a610705565b60405161024791906112cf565b60405180910390f35b61025861070b565b005b34801561026657600080fd5b5061026f610ad5565b60405161027c91906114c6565b60405180910390f35b34801561029157600080fd5b5061029a610b63565b6040516102a791906112cf565b60405180910390f35b3480156102bc57600080fd5b506102c5610b70565b6040516102d291906112cf565b60405180910390f35b3480156102e757600080fd5b506102f0610c62565b6040516102fd91906112cf565b60405180910390f35b34801561031257600080fd5b5061032d6004803603810190610328919061135b565b610c68565b005b34801561033b57600080fd5b50610344610d3c565b60405161035191906115f7565b60405180910390f35b34801561036657600080fd5b50610381600480360381019061037c919061135b565b610ddb565b005b34801561038f57600080fd5b506103aa60048036038101906103a59190611645565b610ead565b005b3480156103b857600080fd5b506103c1610f33565b6040516103ce919061141b565b60405180910390f35b60045481565b600760009054906101000a900473ffffffffffffffffffffffffffffffffffffffff1673ffffffffffffffffffffffffffffffffffffffff163373ffffffffffffffffffffffffffffffffffffffff1614806104865750600860009054906101000a900473ffffffffffffffffffffffffffffffffffffffff1673ffffffffffffffffffffffffffffffffffffffff163373ffffffffffffffffffffffffffffffffffffffff16145b6104c5576040517f08c379a00000000000000000000000000000000000000000000000000000000081526004016104bc906116be565b60405180910390fd5b565b5b80821161057d57600a60405180606001604052808481526020016000151581526020016000151581525090806001815401808255809150506001900390600052602060002090600202016000909190919091506000820151816000015560208201518160010160006101000a81548160ff02191690831515021790555060408201518160010160016101000a81548160ff021916908315150217905550505062278d0082610576919061170d565b91506104c8565b5050565b600a818154811061059157600080fd5b90600052602060002090600202016000915090508060000154908060010160009054906101000a900460ff16908060010160019054906101000a900460ff16905083565b6000600760009054906101000a900473ffffffffffffffffffffffffffffffffffffffff1673ffffffffffffffffffffffffffffffffffffffff163373ffffffffffffffffffffffffffffffffffffffff1614806106805750600860009054906101000a900473ffffffffffffffffffffffffffffffffffffffff1673ffffffffffffffffffffffffffffffffffffffff163373ffffffffffffffffffffffffffffffffffffffff16145b6106bf576040517f08c379a00000000000000000000000000000000000000000000000000000000081526004016106b6906116be565b60405180910390fd5b600254905090565b6106cf611045565b6106d960006110cc565b565b6000600160009054906101000a900473ffffffffffffffffffffffffffffffffffffffff16905090565b60035481565b610713611192565b6000600760009054906101000a900473ffffffffffffffffffffffffffffffffffffffff1673ffffffffffffffffffffffffffffffffffffffff163373ffffffffffffffffffffffffffffffffffffffff16146107a5576040517f08c379a000000000000000000000000000000000000000000000000000000000815260040161079c9061178d565b60405180910390fd5b60025434146107e9576040517f08c379a00000000000000000000000000000000000000000000000000000000081526004016107e0906117f9565b60405180910390fd5b60055442111561082e576040517f08c379a000000000000000000000000000000000000000000000000000000000815260040161082590611865565b60405180910390fd5b6000600860009054906101000a900473ffffffffffffffffffffffffffffffffffffffff1673ffffffffffffffffffffffffffffffffffffffff1634604051610876906118b6565b60006040518083038185875af1925050503d80600081146108b3576040519150601f19603f3d011682016040523d82523d6000602084013e6108b8565b606091505b50509050806108fc576040517f08c379a00000000000000000000000000000000000000000000000000000000081526004016108f390611917565b60405180910390fd5b61090660016111d8565b9150600760009054906101000a900473ffffffffffffffffffffffffffffffffffffffff1673ffffffffffffffffffffffffffffffffffffffff167fdaa6426225fa3d467a9286f8d7ba9eab9344ed25a3c4455c9bd9d7191ecb9f53600a600b548154811061097857610977611937565b5b906000526020600020906002020160000154348560405161099b93929190611966565b60405180910390a26001600a600b54815481106109bb576109ba611937565b5b906000526020600020906002020160010160006101000a81548160ff02191690831515021790555081600a600b54815481106109fa576109f9611937565b5b906000526020600020906002020160010160016101000a81548160ff0219169083151502179055506001600b6000828254610a35919061170d565b92505081905550600760009054906101000a900473ffffffffffffffffffffffffffffffffffffffff1673ffffffffffffffffffffffffffffffffffffffff16600a600b5481548110610a8b57610a8a611937565b5b9060005260206000209060020201600001547fc4cfadff292c5ae98f722bf64f2b796e63c8b127eec85447beaa33278703c87a60405160405180910390a35050610ad36112a4565b565b60098054610ae2906119cc565b80601f0160208091040260200160405190810160405280929190818152602001828054610b0e906119cc565b8015610b5b5780601f10610b3057610100808354040283529160200191610b5b565b820191906000526020600020905b815481529060010190602001808311610b3e57829003601f168201915b505050505081565b6000600a80549050905090565b6000600760009054906101000a900473ffffffffffffffffffffffffffffffffffffffff1673ffffffffffffffffffffffffffffffffffffffff163373ffffffffffffffffffffffffffffffffffffffff161480610c1b5750600860009054906101000a900473ffffffffffffffffffffffffffffffffffffffff1673ffffffffffffffffffffffffffffffffffffffff163373ffffffffffffffffffffffffffffffffffffffff16145b610c5a576040517f08c379a0000000000000000000000000000000000000000000000000000000008152600401610c51906116be565b60405180910390fd5b600654905090565b60055481565b600860009054906101000a900473ffffffffffffffffffffffffffffffffffffffff1673ffffffffffffffffffffffffffffffffffffffff163373ffffffffffffffffffffffffffffffffffffffff1614610cf8576040517f08c379a0000000000000000000000000000000000000000000000000000000008152600401610cef90611a6f565b60405180910390fd5b806005819055506005547f1e9300ca5a9796c5241a9179ea7078806d81321510ec101d80bc8b3bb34b1bbe33604051610d31919061141b565b60405180910390a250565b6060600a805480602002602001604051908101604052809291908181526020016000905b82821015610dd25783829060005260206000209060020201604051806060016040529081600082015481526020016001820160009054906101000a900460ff161515151581526020016001820160019054906101000a900460ff16151515158152505081526020019060010190610d60565b50505050905090565b600860009054906101000a900473ffffffffffffffffffffffffffffffffffffffff1673ffffffffffffffffffffffffffffffffffffffff163373ffffffffffffffffffffffffffffffffffffffff1614610e6b576040517f08c379a0000000000000000000000000000000000000000000000000000000008152600401610e6290611a6f565b60405180910390fd5b80600281905550807f92db6122fb059af80b30cb7ddb63563f1eb91b94fd91d45834adf27bbc7bb84133604051610ea2919061141b565b60405180910390a250565b610eb5611045565b600073ffffffffffffffffffffffffffffffffffffffff168173ffffffffffffffffffffffffffffffffffffffff1603610f275760006040517f1e4fbdf7000000000000000000000000000000000000000000000000000000008152600401610f1e919061141b565b60405180910390fd5b610f30816110cc565b50565b6000600760009054906101000a900473ffffffffffffffffffffffffffffffffffffffff1673ffffffffffffffffffffffffffffffffffffffff163373ffffffffffffffffffffffffffffffffffffffff161480610fde5750600860009054906101000a900473ffffffffffffffffffffffffffffffffffffffff1673ffffffffffffffffffffffffffffffffffffffff163373ffffffffffffffffffffffffffffffffffffffff16145b61101d576040517f08c379a0000000000000000000000000000000000000000000000000000000008152600401611014906116be565b60405180910390fd5b600860009054906101000a900473ffffffffffffffffffffffffffffffffffffffff16905090565b61104d6112ae565b73ffffffffffffffffffffffffffffffffffffffff1661106b6106db565b73ffffffffffffffffffffffffffffffffffffffff16146110ca5761108e6112ae565b6040517f118cdaa70000000000000000000000000000000000000000000000000000000081526004016110c1919061141b565b60405180910390fd5b565b6000600160009054906101000a900473ffffffffffffffffffffffffffffffffffffffff16905081600160006101000a81548173ffffffffffffffffffffffffffffffffffffffff021916908373ffffffffffffffffffffffffffffffffffffffff1602179055508173ffffffffffffffffffffffffffffffffffffffff168173ffffffffffffffffffffffffffffffffffffffff167f8be0079c531659141344cd1fd0a4f28419497f9722a3daafe3b4186f6b6457e060405160405180910390a35050565b6002600054036111ce576040517f3ee5aeb500000000000000000000000000000000000000000000000000000000815260040160405180910390fd5b6002600081905550565b60008062015180836111ea9190611a8f565b600a600b5481548110611200576111ff611937565b5b90600052602060002090600202016000015461121c919061170d565b905080421061127f5760006201518082426112379190611ad1565b6112419190611b34565b905080600654101561125a576000600681905550611274565b806006600082825461126c9190611ad1565b925050819055505b60009250505061129f565b600a60066000828254611292919061170d565b9250508190555060019150505b919050565b6001600081905550565b600033905090565b6000819050919050565b6112c9816112b6565b82525050565b60006020820190506112e460008301846112c0565b92915050565b600080fd5b6112f8816112b6565b811461130357600080fd5b50565b600081359050611315816112ef565b92915050565b60008060408385031215611332576113316112ea565b5b600061134085828601611306565b925050602061135185828601611306565b9150509250929050565b600060208284031215611371576113706112ea565b5b600061137f84828501611306565b91505092915050565b60008115159050919050565b61139d81611388565b82525050565b60006060820190506113b860008301866112c0565b6113c56020830185611394565b6113d26040830184611394565b949350505050565b600073ffffffffffffffffffffffffffffffffffffffff82169050919050565b6000611405826113da565b9050919050565b611415816113fa565b82525050565b6000602082019050611430600083018461140c565b92915050565b600081519050919050565b600082825260208201905092915050565b60005b83811015611470578082015181840152602081019050611455565b60008484015250505050565b6000601f19601f8301169050919050565b600061149882611436565b6114a28185611441565b93506114b2818560208601611452565b6114bb8161147c565b840191505092915050565b600060208201905081810360008301526114e0818461148d565b905092915050565b600081519050919050565b600082825260208201905092915050565b6000819050602082019050919050565b61151d816112b6565b82525050565b61152c81611388565b82525050565b6060820160008201516115486000850182611514565b50602082015161155b6020850182611523565b50604082015161156e6040850182611523565b50505050565b60006115808383611532565b60608301905092915050565b6000602082019050919050565b60006115a4826114e8565b6115ae81856114f3565b93506115b983611504565b8060005b838110156115ea5781516115d18882611574565b97506115dc8361158c565b9250506001810190506115bd565b5085935050505092915050565b600060208201905081810360008301526116118184611599565b905092915050565b611622816113fa565b811461162d57600080fd5b50565b60008135905061163f81611619565b92915050565b60006020828403121561165b5761165a6112ea565b5b600061166984828501611630565b91505092915050565b7f57616c6c6574206e6f7420616c6c6f7765640000000000000000000000000000600082015250565b60006116a8601283611441565b91506116b382611672565b602082019050919050565b600060208201905081810360008301526116d78161169b565b9050919050565b7f4e487b7100000000000000000000000000000000000000000000000000000000600052601160045260246000fd5b6000611718826112b6565b9150611723836112b6565b925082820190508082111561173b5761173a6116de565b5b92915050565b7f5061796572206e6f7420616c6c6f776564000000000000000000000000000000600082015250565b6000611777601183611441565b915061178282611741565b602082019050919050565b600060208201905081810360008301526117a68161176a565b9050919050565b7f57726f6e672072656e7420616d6f756e74000000000000000000000000000000600082015250565b60006117e3601183611441565b91506117ee826117ad565b602082019050919050565b60006020820190508181036000830152611812816117d6565b9050919050565b7f546865206c656173652068617320657870697265640000000000000000000000600082015250565b600061184f601583611441565b915061185a82611819565b602082019050919050565b6000602082019050818103600083015261187e81611842565b9050919050565b600081905092915050565b50565b60006118a0600083611885565b91506118ab82611890565b600082019050919050565b60006118c182611893565b9150819050919050565b7f4661696c656420746f2073656e64207468652072656e74000000000000000000600082015250565b6000611901601783611441565b915061190c826118cb565b602082019050919050565b60006020820190508181036000830152611930816118f4565b9050919050565b7f4e487b7100000000000000000000000000000000000000000000000000000000600052603260045260246000fd5b600060608201905061197b60008301866112c0565b61198860208301856112c0565b6119956040830184611394565b949350505050565b7f4e487b7100000000000000000000000000000000000000000000000000000000600052602260045260246000fd5b600060028204905060018216806119e457607f821691505b6020821081036119f7576119f661199d565b5b50919050565b7f4f6e6c7920746865206c616e646c6f726420697320616c6c6f77656420746f2060008201527f706572666f726d2074686973206f7065726174696f6e00000000000000000000602082015250565b6000611a59603683611441565b9150611a64826119fd565b604082019050919050565b60006020820190508181036000830152611a8881611a4c565b9050919050565b6000611a9a826112b6565b9150611aa5836112b6565b9250828202611ab3816112b6565b91508282048414831517611aca57611ac96116de565b5b5092915050565b6000611adc826112b6565b9150611ae7836112b6565b9250828203905081811115611aff57611afe6116de565b5b92915050565b7f4e487b7100000000000000000000000000000000000000000000000000000000600052601260045260246000fd5b6000611b3f826112b6565b9150611b4a836112b6565b925082611b5a57611b59611b05565b5b82820490509291505056fea2646970667358221220274e65f1b0cca596683d62256e1c2ec0d902c12673bd38d6478f13ad0bf96de664736f6c634300081c0033",
  "linkReferences": {},
  "deployedLinkReferences": {}
}