{
  "_format": "hh-sol-artifact-1",
  "contractName": "Rental",
  "sourceName": "contracts/rental.sol",
  "abi": [
    {
      "inputs": [
        {
          "internalType": "uint256",
          "name": "_payDate",
          "type": "uint256"
        },
        {
          "internalType": "uint256",
          "name": "_expectedRent",
          "type": "uint256"
        },
        {
          "internalType": "address",
          "name": "_renter",
          "type": "address"
        },
        {
          "internalType": "address",
          "name": "_landlord",
          "type": "address"
        },
        {
          "internalType": "uint256",
          "name": "_startDate",
          "type": "uint256"
        },
        {
          "internalType": "uint256",
          "name": "_endDate",
          "type": "uint256"
        }
      ],
      "stateMutability": "nonpayable",
      "type": "constructor"
    },
    {
      "inputs": [
        {
          "internalType": "address",
          "name": "owner",
          "type": "address"
        }
      ],
      "name": "OwnableInvalidOwner",
      "type": "error"
    },
    {
      "inputs": [
        {
          "internalType": "address",
          "name": "account",
          "type": "address"
        }
      ],
      "name": "OwnableUnauthorizedAccount",
      "type": "error"
    },
    {
      "inputs": [],
      "name": "ReentrancyGuardReentrantCall",
      "type": "error"
    },
    {
      "anonymous": false,
      "inputs": [
        {
          "indexed": true,
          "internalType": "uint256",
          "name": "endDate",
          "type": "uint256"
        },
        {
          "indexed": false,
          "internalType": "address",
          "name": "owner",
          "type": "address"
        }
      ],
      "name": "NewEnd",
      "type": "event"
    },
    {
      "anonymous": false,
      "inputs": [
        {
          "indexed": true,
          "internalType": "uint256",
          "name": "payDate",
          "type": "uint256"
        },
        {
          "indexed": true,
          "internalType": "address",
          "name": "renter",
          "type": "address"
        }
      ],
      "name": "NewPayDate",
      "type": "event"
    },
    {
      "anonymous": false,
      "inputs": [
        {
          "indexed": true,
          "internalType": "address",
          "name": "previousOwner",
          "type": "address"
        },
        {
          "indexed": true,
          "internalType": "address",
          "name": "newOwner",
          "type": "address"
        }
      ],
      "name": "OwnershipTransferred",
      "type": "event"
    },
    {
      "anonymous": false,
      "inputs": [
        {
          "indexed": false,
          "internalType": "uint256",
          "name": "payDate",
          "type": "uint256"
        },
        {
          "indexed": false,
          "internalType": "uint256",
          "name": "amount",
          "type": "uint256"
        },
        {
          "indexed": true,
          "internalType": "address",
          "name": "renter",
          "type": "address"
        }
      ],
      "name": "RentPaid",
      "type": "event"
    },
    {
      "anonymous": false,
      "inputs": [
        {
          "indexed": true,
          "internalType": "uint256",
          "name": "newRent",
          "type": "uint256"
        },
        {
          "indexed": false,
          "internalType": "address",
          "name": "landlord",
          "type": "address"
        }
      ],
      "name": "RentUpdate",
      "type": "event"
    },
    {
      "anonymous": false,
      "inputs": [
        {
          "indexed": false,
          "internalType": "uint256",
          "name": "penalty",
          "type": "uint256"
        },
        {
          "indexed": true,
          "internalType": "uint256",
          "name": "newScore",
          "type": "uint256"
        }
      ],
      "name": "ScoreUpdated",
      "type": "event"
    },
    {
      "inputs": [],
      "name": "checkRent",
      "outputs": [
        {
          "internalType": "uint256",
          "name": "",
          "type": "uint256"
        }
      ],
      "stateMutability": "view",
      "type": "function"
    },
    {
      "inputs": [],
      "name": "endDate",
      "outputs": [
        {
          "internalType": "uint256",
          "name": "",
          "type": "uint256"
        }
      ],
      "stateMutability": "view",
      "type": "function"
    },
    {
      "inputs": [],
      "name": "getLandlord",
      "outputs": [
        {
          "internalType": "address",
          "name": "",
          "type": "address"
        }
      ],
      "stateMutability": "view",
      "type": "function"
    },
    {
      "inputs": [],
      "name": "getScore",
      "outputs": [
        {
          "internalType": "uint256",
          "name": "",
          "type": "uint256"
        }
      ],
      "stateMutability": "view",
      "type": "function"
    },
    {
      "inputs": [],
      "name": "owner",
      "outputs": [
        {
          "internalType": "address",
          "name": "",
          "type": "address"
        }
      ],
      "stateMutability": "view",
      "type": "function"
    },
    {
      "inputs": [],
      "name": "payDate",
      "outputs": [
        {
          "internalType": "uint256",
          "name": "",
          "type": "uint256"
        }
      ],
      "stateMutability": "view",
      "type": "function"
    },
    {
      "inputs": [],
      "name": "payRent",
      "outputs": [],
      "stateMutability": "payable",
      "type": "function"
    },
    {
      "inputs": [],
      "name": "renounceOwnership",
      "outputs": [],
      "stateMutability": "nonpayable",
      "type": "function"
    },
    {
      "inputs": [],
      "name": "sendNotice",
      "outputs": [],
      "stateMutability": "nonpayable",
      "type": "function"
    },
    {
      "inputs": [],
      "name": "startDate",
      "outputs": [
        {
          "internalType": "uint256",
          "name": "",
          "type": "uint256"
        }
      ],
      "stateMutability": "view",
      "type": "function"
    },
    {
      "inputs": [
        {
          "internalType": "address",
          "name": "newOwner",
          "type": "address"
        }
      ],
      "name": "transferOwnership",
      "outputs": [],
      "stateMutability": "nonpayable",
      "type": "function"
    },
    {
      "inputs": [
        {
          "internalType": "uint256",
          "name": "_newDate",
          "type": "uint256"
        }
      ],
      "name": "updateExpiry",
      "outputs": [],
      "stateMutability": "nonpayable",
      "type": "function"
    },
    {
      "inputs": [
        {
          "internalType": "uint256",
          "name": "_newRent",
          "type": "uint256"
        }
      ],
      "name": "updateRent",
      "outputs": [],
      "stateMutability": "nonpayable",
      "type": "function"
    }
  ],
  "bytecode": "0x608060405234801561001057600080fd5b506040516116c83803806116c8833981810160405281019061003291906102cd565b836001600081905550600073ffffffffffffffffffffffffffffffffffffffff168173ffffffffffffffffffffffffffffffffffffffff16036100ad5760006040517f1e4fbdf70000000000000000000000000000000000000000000000000000000081526004016100a49190610369565b60405180910390fd5b6100bc8161016e60201b60201c565b50856003819055508460028190555083600760006101000a81548173ffffffffffffffffffffffffffffffffffffffff021916908373ffffffffffffffffffffffffffffffffffffffff16021790555082600860006101000a81548173ffffffffffffffffffffffffffffffffffffffff021916908373ffffffffffffffffffffffffffffffffffffffff16021790555060506006819055508160048190555080600581905550505050505050610384565b6000600160009054906101000a900473ffffffffffffffffffffffffffffffffffffffff16905081600160006101000a81548173ffffffffffffffffffffffffffffffffffffffff021916908373ffffffffffffffffffffffffffffffffffffffff1602179055508173ffffffffffffffffffffffffffffffffffffffff168173ffffffffffffffffffffffffffffffffffffffff167f8be0079c531659141344cd1fd0a4f28419497f9722a3daafe3b4186f6b6457e060405160405180910390a35050565b600080fd5b6000819050919050565b61024c81610239565b811461025757600080fd5b50565b60008151905061026981610243565b92915050565b600073ffffffffffffffffffffffffffffffffffffffff82169050919050565b600061029a8261026f565b9050919050565b6102aa8161028f565b81146102b557600080fd5b50565b6000815190506102c7816102a1565b92915050565b60008060008060008060c087890312156102ea576102e9610234565b5b60006102f889828a0161025a565b965050602061030989828a0161025a565b955050604061031a89828a016102b8565b945050606061032b89828a016102b8565b935050608061033c89828a0161025a565b92505060a061034d89828a0161025a565b9150509295509295509295565b6103638161028f565b82525050565b600060208201905061037e600083018461035a565b92915050565b611335806103936000396000f3fe6080604052600436106100c25760003560e01c8063a709c4fe1161007f578063d359f82c11610059578063d359f82c14610201578063eb9220ab1461022a578063f2fde38b14610253578063f502236d1461027c576100c2565b8063a709c4fe146101a1578063afd82067146101ab578063c24a0f8b146101d6576100c2565b80630b97bc86146100c75780631979cd13146100f257806357ef9b6a14610109578063715018a6146101345780638da5cb5b1461014b5780639b332a9114610176575b600080fd5b3480156100d357600080fd5b506100dc6102a7565b6040516100e99190610dfe565b60405180910390f35b3480156100fe57600080fd5b506101076102ad565b005b34801561011557600080fd5b5061011e610397565b60405161012b9190610dfe565b60405180910390f35b34801561014057600080fd5b50610149610489565b005b34801561015757600080fd5b5061016061049d565b60405161016d9190610e5a565b60405180910390f35b34801561018257600080fd5b5061018b6104c7565b6040516101989190610dfe565b60405180910390f35b6101a96104cd565b005b3480156101b757600080fd5b506101c06107c4565b6040516101cd9190610dfe565b60405180910390f35b3480156101e257600080fd5b506101eb6108b6565b6040516101f89190610dfe565b60405180910390f35b34801561020d57600080fd5b5061022860048036038101906102239190610ea6565b6108bc565b005b34801561023657600080fd5b50610251600480360381019061024c9190610ea6565b610990565b005b34801561025f57600080fd5b5061027a60048036038101906102759190610eff565b610a62565b005b34801561028857600080fd5b50610291610ae8565b60405161029e9190610e5a565b60405180910390f35b60045481565b600760009054906101000a900473ffffffffffffffffffffffffffffffffffffffff1673ffffffffffffffffffffffffffffffffffffffff163373ffffffffffffffffffffffffffffffffffffffff1614806103565750600860009054906101000a900473ffffffffffffffffffffffffffffffffffffffff1673ffffffffffffffffffffffffffffffffffffffff163373ffffffffffffffffffffffffffffffffffffffff16145b610395576040517f08c379a000000000000000000000000000000000000000000000000000000000815260040161038c90610f89565b60405180910390fd5b565b6000600760009054906101000a900473ffffffffffffffffffffffffffffffffffffffff1673ffffffffffffffffffffffffffffffffffffffff163373ffffffffffffffffffffffffffffffffffffffff1614806104425750600860009054906101000a900473ffffffffffffffffffffffffffffffffffffffff1673ffffffffffffffffffffffffffffffffffffffff163373ffffffffffffffffffffffffffffffffffffffff16145b610481576040517f08c379a000000000000000000000000000000000000000000000000000000000815260040161047890610f89565b60405180910390fd5b600254905090565b610491610bfa565b61049b6000610c81565b565b6000600160009054906101000a900473ffffffffffffffffffffffffffffffffffffffff16905090565b60035481565b6104d5610d47565b600760009054906101000a900473ffffffffffffffffffffffffffffffffffffffff1673ffffffffffffffffffffffffffffffffffffffff163373ffffffffffffffffffffffffffffffffffffffff1614610565576040517f08c379a000000000000000000000000000000000000000000000000000000000815260040161055c90610ff5565b60405180910390fd5b60025434146105a9576040517f08c379a00000000000000000000000000000000000000000000000000000000081526004016105a090611061565b60405180910390fd5b6005544211156105ee576040517f08c379a00000000000000000000000000000000000000000000000000000000081526004016105e5906110cd565b60405180910390fd5b6000600860009054906101000a900473ffffffffffffffffffffffffffffffffffffffff1673ffffffffffffffffffffffffffffffffffffffff16346040516106369061111e565b60006040518083038185875af1925050503d8060008114610673576040519150601f19603f3d011682016040523d82523d6000602084013e610678565b606091505b50509050806106bc576040517f08c379a00000000000000000000000000000000000000000000000000000000081526004016106b39061117f565b60405180910390fd5b600760009054906101000a900473ffffffffffffffffffffffffffffffffffffffff1673ffffffffffffffffffffffffffffffffffffffff167ffc8132eb37f453fd97a3b69a8c1b963324201cd354e4425aac724f9b1b831ba36003543460405161072892919061119f565b60405180910390a261073a6001610d8d565b62278d0060035461074b91906111f7565b600381905550600760009054906101000a900473ffffffffffffffffffffffffffffffffffffffff1673ffffffffffffffffffffffffffffffffffffffff166003547fc4cfadff292c5ae98f722bf64f2b796e63c8b127eec85447beaa33278703c87a60405160405180910390a3506107c2610dd3565b565b6000600760009054906101000a900473ffffffffffffffffffffffffffffffffffffffff1673ffffffffffffffffffffffffffffffffffffffff163373ffffffffffffffffffffffffffffffffffffffff16148061086f5750600860009054906101000a900473ffffffffffffffffffffffffffffffffffffffff1673ffffffffffffffffffffffffffffffffffffffff163373ffffffffffffffffffffffffffffffffffffffff16145b6108ae576040517f08c379a00000000000000000000000000000000000000000000000000000000081526004016108a590610f89565b60405180910390fd5b600654905090565b60055481565b600860009054906101000a900473ffffffffffffffffffffffffffffffffffffffff1673ffffffffffffffffffffffffffffffffffffffff163373ffffffffffffffffffffffffffffffffffffffff161461094c576040517f08c379a00000000000000000000000000000000000000000000000000000000081526004016109439061129d565b60405180910390fd5b806005819055506005547f1e9300ca5a9796c5241a9179ea7078806d81321510ec101d80bc8b3bb34b1bbe336040516109859190610e5a565b60405180910390a250565b600860009054906101000a900473ffffffffffffffffffffffffffffffffffffffff1673ffffffffffffffffffffffffffffffffffffffff163373ffffffffffffffffffffffffffffffffffffffff1614610a20576040517f08c379a0000000000000000000000000000000000000000000000000000000008152600401610a179061129d565b60405180910390fd5b80600281905550807f92db6122fb059af80b30cb7ddb63563f1eb91b94fd91d45834adf27bbc7bb84133604051610a579190610e5a565b60405180910390a250565b610a6a610bfa565b600073ffffffffffffffffffffffffffffffffffffffff168173ffffffffffffffffffffffffffffffffffffffff1603610adc5760006040517f1e4fbdf7000000000000000000000000000000000000000000000000000000008152600401610ad39190610e5a565b60405180910390fd5b610ae581610c81565b50565b6000600760009054906101000a900473ffffffffffffffffffffffffffffffffffffffff1673ffffffffffffffffffffffffffffffffffffffff163373ffffffffffffffffffffffffffffffffffffffff161480610b935750600860009054906101000a900473ffffffffffffffffffffffffffffffffffffffff1673ffffffffffffffffffffffffffffffffffffffff163373ffffffffffffffffffffffffffffffffffffffff16145b610bd2576040517f08c379a0000000000000000000000000000000000000000000000000000000008152600401610bc990610f89565b60405180910390fd5b600860009054906101000a900473ffffffffffffffffffffffffffffffffffffffff16905090565b610c02610ddd565b73ffffffffffffffffffffffffffffffffffffffff16610c2061049d565b73ffffffffffffffffffffffffffffffffffffffff1614610c7f57610c43610ddd565b6040517f118cdaa7000000000000000000000000000000000000000000000000000000008152600401610c769190610e5a565b60405180910390fd5b565b6000600160009054906101000a900473ffffffffffffffffffffffffffffffffffffffff16905081600160006101000a81548173ffffffffffffffffffffffffffffffffffffffff021916908373ffffffffffffffffffffffffffffffffffffffff1602179055508173ffffffffffffffffffffffffffffffffffffffff168173ffffffffffffffffffffffffffffffffffffffff167f8be0079c531659141344cd1fd0a4f28419497f9722a3daafe3b4186f6b6457e060405160405180910390a35050565b600260005403610d83576040517f3ee5aeb500000000000000000000000000000000000000000000000000000000815260040160405180910390fd5b6002600081905550565b60006201518082610d9e91906112bd565b600354610dab91906111f7565b9050804211610dcf57600a60066000828254610dc791906111f7565b925050819055505b5050565b6001600081905550565b600033905090565b6000819050919050565b610df881610de5565b82525050565b6000602082019050610e136000830184610def565b92915050565b600073ffffffffffffffffffffffffffffffffffffffff82169050919050565b6000610e4482610e19565b9050919050565b610e5481610e39565b82525050565b6000602082019050610e6f6000830184610e4b565b92915050565b600080fd5b610e8381610de5565b8114610e8e57600080fd5b50565b600081359050610ea081610e7a565b92915050565b600060208284031215610ebc57610ebb610e75565b5b6000610eca84828501610e91565b91505092915050565b610edc81610e39565b8114610ee757600080fd5b50565b600081359050610ef981610ed3565b92915050565b600060208284031215610f1557610f14610e75565b5b6000610f2384828501610eea565b91505092915050565b600082825260208201905092915050565b7f57616c6c6574206e6f7420616c6c6f7765640000000000000000000000000000600082015250565b6000610f73601283610f2c565b9150610f7e82610f3d565b602082019050919050565b60006020820190508181036000830152610fa281610f66565b9050919050565b7f5061796572206e6f7420616c6c6f776564000000000000000000000000000000600082015250565b6000610fdf601183610f2c565b9150610fea82610fa9565b602082019050919050565b6000602082019050818103600083015261100e81610fd2565b9050919050565b7f57726f6e672072656e7420616d6f756e74000000000000000000000000000000600082015250565b600061104b601183610f2c565b915061105682611015565b602082019050919050565b6000602082019050818103600083015261107a8161103e565b9050919050565b7f546865206c656173652068617320657870697265640000000000000000000000600082015250565b60006110b7601583610f2c565b91506110c282611081565b602082019050919050565b600060208201905081810360008301526110e6816110aa565b9050919050565b600081905092915050565b50565b60006111086000836110ed565b9150611113826110f8565b600082019050919050565b6000611129826110fb565b9150819050919050565b7f4661696c656420746f2073656e64207468652072656e74000000000000000000600082015250565b6000611169601783610f2c565b915061117482611133565b602082019050919050565b600060208201905081810360008301526111988161115c565b9050919050565b60006040820190506111b46000830185610def565b6111c16020830184610def565b9392505050565b7f4e487b7100000000000000000000000000000000000000000000000000000000600052601160045260246000fd5b600061120282610de5565b915061120d83610de5565b9250828201905080821115611225576112246111c8565b5b92915050565b7f4f6e6c7920746865206c616e646c6f726420697320616c6c6f77656420746f2060008201527f706572666f726d2074686973206f7065726174696f6e00000000000000000000602082015250565b6000611287603683610f2c565b91506112928261122b565b604082019050919050565b600060208201905081810360008301526112b68161127a565b9050919050565b60006112c882610de5565b91506112d383610de5565b92508282026112e181610de5565b915082820484148315176112f8576112f76111c8565b5b509291505056fea2646970667358221220f733c85444348597f3076fe5902491a445ab6803cd57247b84a61fd78270e79064736f6c634300081c0033",
  "linkReferences": {},
  "deployedLinkReferences": {}
}