{
  "_format": "hh-sol-artifact-1",
  "contractName": "Rental",
  "sourceName": "contracts/rental.sol",
  "abi": [
    {
      "inputs": [
        {
          "internalType": "uint256",
          "name": "_payDate",
          "type": "uint256"
        },
        {
          "internalType": "uint256",
          "name": "_expectedRent",
          "type": "uint256"
        },
        {
          "internalType": "address",
          "name": "_renter",
          "type": "address"
        },
        {
          "internalType": "uint256",
          "name": "_startDate",
          "type": "uint256"
        },
        {
          "internalType": "uint256",
          "name": "_endDate",
          "type": "uint256"
        }
      ],
      "stateMutability": "nonpayable",
      "type": "constructor"
    },
    {
      "inputs": [],
      "name": "ReentrancyGuardReentrantCall",
      "type": "error"
    },
    {
      "anonymous": false,
      "inputs": [
        {
          "indexed": true,
          "internalType": "uint256",
          "name": "endDate",
          "type": "uint256"
        },
        {
          "indexed": false,
          "internalType": "address",
          "name": "owner",
          "type": "address"
        }
      ],
      "name": "NewEnd",
      "type": "event"
    },
    {
      "anonymous": false,
      "inputs": [
        {
          "indexed": true,
          "internalType": "uint256",
          "name": "payDate",
          "type": "uint256"
        },
        {
          "indexed": true,
          "internalType": "address",
          "name": "renter",
          "type": "address"
        }
      ],
      "name": "NewPayDate",
      "type": "event"
    },
    {
      "anonymous": false,
      "inputs": [
        {
          "indexed": false,
          "internalType": "uint256",
          "name": "payDate",
          "type": "uint256"
        },
        {
          "indexed": false,
          "internalType": "uint256",
          "name": "amount",
          "type": "uint256"
        },
        {
          "indexed": true,
          "internalType": "address",
          "name": "renter",
          "type": "address"
        }
      ],
      "name": "RentPaid",
      "type": "event"
    },
    {
      "anonymous": false,
      "inputs": [
        {
          "indexed": true,
          "internalType": "uint256",
          "name": "newRent",
          "type": "uint256"
        },
        {
          "indexed": false,
          "internalType": "address",
          "name": "landlord",
          "type": "address"
        }
      ],
      "name": "RentUpdate",
      "type": "event"
    },
    {
      "anonymous": false,
      "inputs": [
        {
          "indexed": false,
          "internalType": "uint256",
          "name": "penalty",
          "type": "uint256"
        },
        {
          "indexed": true,
          "internalType": "uint256",
          "name": "newScore",
          "type": "uint256"
        }
      ],
      "name": "ScoreUpdated",
      "type": "event"
    },
    {
      "inputs": [],
      "name": "checkRent",
      "outputs": [
        {
          "internalType": "uint256",
          "name": "",
          "type": "uint256"
        }
      ],
      "stateMutability": "view",
      "type": "function"
    },
    {
      "inputs": [],
      "name": "endDate",
      "outputs": [
        {
          "internalType": "uint256",
          "name": "",
          "type": "uint256"
        }
      ],
      "stateMutability": "view",
      "type": "function"
    },
    {
      "inputs": [],
      "name": "getScore",
      "outputs": [
        {
          "internalType": "uint256",
          "name": "",
          "type": "uint256"
        }
      ],
      "stateMutability": "view",
      "type": "function"
    },
    {
      "inputs": [],
      "name": "payDate",
      "outputs": [
        {
          "internalType": "uint256",
          "name": "",
          "type": "uint256"
        }
      ],
      "stateMutability": "view",
      "type": "function"
    },
    {
      "inputs": [],
      "name": "payRent",
      "outputs": [],
      "stateMutability": "payable",
      "type": "function"
    },
    {
      "inputs": [],
      "name": "sendNotice",
      "outputs": [],
      "stateMutability": "nonpayable",
      "type": "function"
    },
    {
      "inputs": [],
      "name": "startDate",
      "outputs": [
        {
          "internalType": "uint256",
          "name": "",
          "type": "uint256"
        }
      ],
      "stateMutability": "view",
      "type": "function"
    },
    {
      "inputs": [
        {
          "internalType": "uint256",
          "name": "_newDate",
          "type": "uint256"
        }
      ],
      "name": "updateExpiry",
      "outputs": [],
      "stateMutability": "nonpayable",
      "type": "function"
    },
    {
      "inputs": [
        {
          "internalType": "uint256",
          "name": "_newRent",
          "type": "uint256"
        }
      ],
      "name": "updateRent",
      "outputs": [],
      "stateMutability": "nonpayable",
      "type": "function"
    }
  ],
  "bytecode": "0x608060405234801561001057600080fd5b506040516111af3803806111af83398181016040528101906100329190610142565b6001600081905550846002819055508360018190555082600660006101000a81548173ffffffffffffffffffffffffffffffffffffffff021916908373ffffffffffffffffffffffffffffffffffffffff1602179055506064600581905550816003819055508060048190555050505050506101bd565b600080fd5b6000819050919050565b6100c1816100ae565b81146100cc57600080fd5b50565b6000815190506100de816100b8565b92915050565b600073ffffffffffffffffffffffffffffffffffffffff82169050919050565b600061010f826100e4565b9050919050565b61011f81610104565b811461012a57600080fd5b50565b60008151905061013c81610116565b92915050565b600080600080600060a0868803121561015e5761015d6100a9565b5b600061016c888289016100cf565b955050602061017d888289016100cf565b945050604061018e8882890161012d565b935050606061019f888289016100cf565b92505060806101b0888289016100cf565b9150509295509295909350565b610fe3806101cc6000396000f3fe6080604052600436106100865760003560e01c8063a709c4fe11610059578063a709c4fe14610123578063afd820671461012d578063c24a0f8b14610158578063d359f82c14610183578063eb9220ab146101ac57610086565b80630b97bc861461008b5780631979cd13146100b657806357ef9b6a146100cd5780639b332a91146100f8575b600080fd5b34801561009757600080fd5b506100a06101d5565b6040516100ad9190610a71565b60405180910390f35b3480156100c257600080fd5b506100cb6101db565b005b3480156100d957600080fd5b506100e26102c5565b6040516100ef9190610a71565b60405180910390f35b34801561010457600080fd5b5061010d6103b7565b60405161011a9190610a71565b60405180910390f35b61012b6103bd565b005b34801561013957600080fd5b506101426106b4565b60405161014f9190610a71565b60405180910390f35b34801561016457600080fd5b5061016d6107a6565b60405161017a9190610a71565b60405180910390f35b34801561018f57600080fd5b506101aa60048036038101906101a59190610abd565b6107ac565b005b3480156101b857600080fd5b506101d360048036038101906101ce9190610abd565b610880565b005b60035481565b600660009054906101000a900473ffffffffffffffffffffffffffffffffffffffff1673ffffffffffffffffffffffffffffffffffffffff163373ffffffffffffffffffffffffffffffffffffffff1614806102845750600760009054906101000a900473ffffffffffffffffffffffffffffffffffffffff1673ffffffffffffffffffffffffffffffffffffffff163373ffffffffffffffffffffffffffffffffffffffff16145b6102c3576040517f08c379a00000000000000000000000000000000000000000000000000000000081526004016102ba90610b47565b60405180910390fd5b565b6000600660009054906101000a900473ffffffffffffffffffffffffffffffffffffffff1673ffffffffffffffffffffffffffffffffffffffff163373ffffffffffffffffffffffffffffffffffffffff1614806103705750600760009054906101000a900473ffffffffffffffffffffffffffffffffffffffff1673ffffffffffffffffffffffffffffffffffffffff163373ffffffffffffffffffffffffffffffffffffffff16145b6103af576040517f08c379a00000000000000000000000000000000000000000000000000000000081526004016103a690610b47565b60405180910390fd5b600154905090565b60025481565b6103c5610952565b600660009054906101000a900473ffffffffffffffffffffffffffffffffffffffff1673ffffffffffffffffffffffffffffffffffffffff163373ffffffffffffffffffffffffffffffffffffffff1614610455576040517f08c379a000000000000000000000000000000000000000000000000000000000815260040161044c90610bb3565b60405180910390fd5b6001543414610499576040517f08c379a000000000000000000000000000000000000000000000000000000000815260040161049090610c1f565b60405180910390fd5b6004544211156104de576040517f08c379a00000000000000000000000000000000000000000000000000000000081526004016104d590610c8b565b60405180910390fd5b6000600760009054906101000a900473ffffffffffffffffffffffffffffffffffffffff1673ffffffffffffffffffffffffffffffffffffffff163460405161052690610cdc565b60006040518083038185875af1925050503d8060008114610563576040519150601f19603f3d011682016040523d82523d6000602084013e610568565b606091505b50509050806105ac576040517f08c379a00000000000000000000000000000000000000000000000000000000081526004016105a390610d3d565b60405180910390fd5b600660009054906101000a900473ffffffffffffffffffffffffffffffffffffffff1673ffffffffffffffffffffffffffffffffffffffff167ffc8132eb37f453fd97a3b69a8c1b963324201cd354e4425aac724f9b1b831ba360025434604051610618929190610d5d565b60405180910390a261062a6001610998565b62278d0060025461063b9190610db5565b600281905550600660009054906101000a900473ffffffffffffffffffffffffffffffffffffffff1673ffffffffffffffffffffffffffffffffffffffff166002547fc4cfadff292c5ae98f722bf64f2b796e63c8b127eec85447beaa33278703c87a60405160405180910390a3506106b2610a4e565b565b6000600660009054906101000a900473ffffffffffffffffffffffffffffffffffffffff1673ffffffffffffffffffffffffffffffffffffffff163373ffffffffffffffffffffffffffffffffffffffff16148061075f5750600760009054906101000a900473ffffffffffffffffffffffffffffffffffffffff1673ffffffffffffffffffffffffffffffffffffffff163373ffffffffffffffffffffffffffffffffffffffff16145b61079e576040517f08c379a000000000000000000000000000000000000000000000000000000000815260040161079590610b47565b60405180910390fd5b600554905090565b60045481565b600760009054906101000a900473ffffffffffffffffffffffffffffffffffffffff1673ffffffffffffffffffffffffffffffffffffffff163373ffffffffffffffffffffffffffffffffffffffff161461083c576040517f08c379a000000000000000000000000000000000000000000000000000000000815260040161083390610e5b565b60405180910390fd5b806004819055506004547f1e9300ca5a9796c5241a9179ea7078806d81321510ec101d80bc8b3bb34b1bbe336040516108759190610ebc565b60405180910390a250565b600760009054906101000a900473ffffffffffffffffffffffffffffffffffffffff1673ffffffffffffffffffffffffffffffffffffffff163373ffffffffffffffffffffffffffffffffffffffff1614610910576040517f08c379a000000000000000000000000000000000000000000000000000000000815260040161090790610e5b565b60405180910390fd5b80600181905550807f92db6122fb059af80b30cb7ddb63563f1eb91b94fd91d45834adf27bbc7bb841336040516109479190610ebc565b60405180910390a250565b60026000540361098e576040517f3ee5aeb500000000000000000000000000000000000000000000000000000000815260040160405180910390fd5b6002600081905550565b600062015180826109a99190610ed7565b6002546109b69190610db5565b9050804210610a4a5760006201518082426109d19190610f19565b6109db9190610f7c565b90508060055410156109f4576000600581905550610a0e565b8060056000828254610a069190610f19565b925050819055505b6005547fefd5a7f141ae02cd40bc84ffe6ebb58811cb61dfd017746842a005c78bfed85282604051610a409190610a71565b60405180910390a2505b5050565b6001600081905550565b6000819050919050565b610a6b81610a58565b82525050565b6000602082019050610a866000830184610a62565b92915050565b600080fd5b610a9a81610a58565b8114610aa557600080fd5b50565b600081359050610ab781610a91565b92915050565b600060208284031215610ad357610ad2610a8c565b5b6000610ae184828501610aa8565b91505092915050565b600082825260208201905092915050565b7f57616c6c6574206e6f7420616c6c6f7765640000000000000000000000000000600082015250565b6000610b31601283610aea565b9150610b3c82610afb565b602082019050919050565b60006020820190508181036000830152610b6081610b24565b9050919050565b7f5061796572206e6f7420616c6c6f776564000000000000000000000000000000600082015250565b6000610b9d601183610aea565b9150610ba882610b67565b602082019050919050565b60006020820190508181036000830152610bcc81610b90565b9050919050565b7f57726f6e672072656e7420616d6f756e74000000000000000000000000000000600082015250565b6000610c09601183610aea565b9150610c1482610bd3565b602082019050919050565b60006020820190508181036000830152610c3881610bfc565b9050919050565b7f546865206c656173652068617320657870697265640000000000000000000000600082015250565b6000610c75601583610aea565b9150610c8082610c3f565b602082019050919050565b60006020820190508181036000830152610ca481610c68565b9050919050565b600081905092915050565b50565b6000610cc6600083610cab565b9150610cd182610cb6565b600082019050919050565b6000610ce782610cb9565b9150819050919050565b7f4661696c656420746f2073656e64207468652072656e74000000000000000000600082015250565b6000610d27601783610aea565b9150610d3282610cf1565b602082019050919050565b60006020820190508181036000830152610d5681610d1a565b9050919050565b6000604082019050610d726000830185610a62565b610d7f6020830184610a62565b9392505050565b7f4e487b7100000000000000000000000000000000000000000000000000000000600052601160045260246000fd5b6000610dc082610a58565b9150610dcb83610a58565b9250828201905080821115610de357610de2610d86565b5b92915050565b7f4f6e6c7920746865206c616e646c6f726420697320616c6c6f77656420746f2060008201527f706572666f726d2074686973206f7065726174696f6e00000000000000000000602082015250565b6000610e45603683610aea565b9150610e5082610de9565b604082019050919050565b60006020820190508181036000830152610e7481610e38565b9050919050565b600073ffffffffffffffffffffffffffffffffffffffff82169050919050565b6000610ea682610e7b565b9050919050565b610eb681610e9b565b82525050565b6000602082019050610ed16000830184610ead565b92915050565b6000610ee282610a58565b9150610eed83610a58565b9250828202610efb81610a58565b91508282048414831517610f1257610f11610d86565b5b5092915050565b6000610f2482610a58565b9150610f2f83610a58565b9250828203905081811115610f4757610f46610d86565b5b92915050565b7f4e487b7100000000000000000000000000000000000000000000000000000000600052601260045260246000fd5b6000610f8782610a58565b9150610f9283610a58565b925082610fa257610fa1610f4d565b5b82820490509291505056fea264697066735822122001a54b377b5aad0ac20183042d8ee4e376d0c9ab0f3338bb46696dd732b1d97664736f6c634300081c0033",
  "linkReferences": {},
  "deployedLinkReferences": {}
}