{
  "address": "0x4e7Ec7f1D6833898Ea2db888b9F4a628E9D21055",
  "abi": [
    {
      "inputs": [
        {
          "internalType": "uint256",
          "name": "_payDate",
          "type": "uint256"
        },
        {
          "internalType": "uint256",
          "name": "_expectedRent",
          "type": "uint256"
        },
        {
          "internalType": "address",
          "name": "_renter",
          "type": "address"
        },
        {
          "internalType": "address",
          "name": "_landlord",
          "type": "address"
        },
        {
          "internalType": "uint256",
          "name": "_startDate",
          "type": "uint256"
        },
        {
          "internalType": "uint256",
          "name": "_endDate",
          "type": "uint256"
        }
      ],
      "stateMutability": "nonpayable",
      "type": "constructor"
    },
    {
      "inputs": [
        {
          "internalType": "address",
          "name": "owner",
          "type": "address"
        }
      ],
      "name": "OwnableInvalidOwner",
      "type": "error"
    },
    {
      "inputs": [
        {
          "internalType": "address",
          "name": "account",
          "type": "address"
        }
      ],
      "name": "OwnableUnauthorizedAccount",
      "type": "error"
    },
    {
      "inputs": [],
      "name": "ReentrancyGuardReentrantCall",
      "type": "error"
    },
    {
      "anonymous": false,
      "inputs": [
        {
          "indexed": true,
          "internalType": "uint256",
          "name": "endDate",
          "type": "uint256"
        },
        {
          "indexed": false,
          "internalType": "address",
          "name": "owner",
          "type": "address"
        }
      ],
      "name": "NewEnd",
      "type": "event"
    },
    {
      "anonymous": false,
      "inputs": [
        {
          "indexed": true,
          "internalType": "uint256",
          "name": "payDate",
          "type": "uint256"
        },
        {
          "indexed": true,
          "internalType": "address",
          "name": "renter",
          "type": "address"
        }
      ],
      "name": "NewPayDate",
      "type": "event"
    },
    {
      "anonymous": false,
      "inputs": [
        {
          "indexed": true,
          "internalType": "address",
          "name": "previousOwner",
          "type": "address"
        },
        {
          "indexed": true,
          "internalType": "address",
          "name": "newOwner",
          "type": "address"
        }
      ],
      "name": "OwnershipTransferred",
      "type": "event"
    },
    {
      "anonymous": false,
      "inputs": [
        {
          "indexed": false,
          "internalType": "uint256",
          "name": "payDate",
          "type": "uint256"
        },
        {
          "indexed": false,
          "internalType": "uint256",
          "name": "amount",
          "type": "uint256"
        },
        {
          "indexed": true,
          "internalType": "address",
          "name": "renter",
          "type": "address"
        },
        {
          "indexed": false,
          "internalType": "bool",
          "name": "onTime",
          "type": "bool"
        }
      ],
      "name": "RentPaid",
      "type": "event"
    },
    {
      "anonymous": false,
      "inputs": [
        {
          "indexed": true,
          "internalType": "uint256",
          "name": "newRent",
          "type": "uint256"
        },
        {
          "indexed": false,
          "internalType": "address",
          "name": "landlord",
          "type": "address"
        }
      ],
      "name": "RentUpdate",
      "type": "event"
    },
    {
      "inputs": [
        {
          "internalType": "address",
          "name": "",
          "type": "address"
        },
        {
          "internalType": "uint256",
          "name": "",
          "type": "uint256"
        }
      ],
      "name": "attestationsByTenant",
      "outputs": [
        {
          "internalType": "bytes32",
          "name": "",
          "type": "bytes32"
        }
      ],
      "stateMutability": "view",
      "type": "function"
    },
    {
      "inputs": [],
      "name": "checkRent",
      "outputs": [
        {
          "internalType": "uint256",
          "name": "",
          "type": "uint256"
        }
      ],
      "stateMutability": "view",
      "type": "function"
    },
    {
      "inputs": [],
      "name": "endDate",
      "outputs": [
        {
          "internalType": "uint256",
          "name": "",
          "type": "uint256"
        }
      ],
      "stateMutability": "view",
      "type": "function"
    },
    {
      "inputs": [],
      "name": "getLandlord",
      "outputs": [
        {
          "internalType": "address",
          "name": "",
          "type": "address"
        }
      ],
      "stateMutability": "view",
      "type": "function"
    },
    {
      "inputs": [],
      "name": "getScore",
      "outputs": [
        {
          "internalType": "uint256",
          "name": "",
          "type": "uint256"
        }
      ],
      "stateMutability": "view",
      "type": "function"
    },
    {
      "inputs": [],
      "name": "owner",
      "outputs": [
        {
          "internalType": "address",
          "name": "",
          "type": "address"
        }
      ],
      "stateMutability": "view",
      "type": "function"
    },
    {
      "inputs": [],
      "name": "payDate",
      "outputs": [
        {
          "internalType": "uint256",
          "name": "",
          "type": "uint256"
        }
      ],
      "stateMutability": "view",
      "type": "function"
    },
    {
      "inputs": [],
      "name": "payRent",
      "outputs": [],
      "stateMutability": "payable",
      "type": "function"
    },
    {
      "inputs": [
        {
          "internalType": "uint256",
          "name": "",
          "type": "uint256"
        }
      ],
      "name": "paymentSchedule",
      "outputs": [
        {
          "internalType": "uint256",
          "name": "date",
          "type": "uint256"
        },
        {
          "internalType": "bool",
          "name": "paid",
          "type": "bool"
        }
      ],
      "stateMutability": "view",
      "type": "function"
    },
    {
      "inputs": [
        {
          "internalType": "uint256",
          "name": "pd",
          "type": "uint256"
        },
        {
          "internalType": "uint256",
          "name": "endLease",
          "type": "uint256"
        }
      ],
      "name": "populateSchedule",
      "outputs": [],
      "stateMutability": "nonpayable",
      "type": "function"
    },
    {
      "inputs": [],
      "name": "renounceOwnership",
      "outputs": [],
      "stateMutability": "nonpayable",
      "type": "function"
    },
    {
      "inputs": [],
      "name": "sendNotice",
      "outputs": [],
      "stateMutability": "nonpayable",
      "type": "function"
    },
    {
      "inputs": [],
      "name": "startDate",
      "outputs": [
        {
          "internalType": "uint256",
          "name": "",
          "type": "uint256"
        }
      ],
      "stateMutability": "view",
      "type": "function"
    },
    {
      "inputs": [
        {
          "internalType": "bytes32",
          "name": "attestationId",
          "type": "bytes32"
        }
      ],
      "name": "storeAttestation",
      "outputs": [],
      "stateMutability": "nonpayable",
      "type": "function"
    },
    {
      "inputs": [
        {
          "internalType": "address",
          "name": "newOwner",
          "type": "address"
        }
      ],
      "name": "transferOwnership",
      "outputs": [],
      "stateMutability": "nonpayable",
      "type": "function"
    },
    {
      "inputs": [
        {
          "internalType": "uint256",
          "name": "_newDate",
          "type": "uint256"
        }
      ],
      "name": "updateExpiry",
      "outputs": [],
      "stateMutability": "nonpayable",
      "type": "function"
    },
    {
      "inputs": [
        {
          "internalType": "uint256",
          "name": "_newRent",
          "type": "uint256"
        }
      ],
      "name": "updateRent",
      "outputs": [],
      "stateMutability": "nonpayable",
      "type": "function"
    }
  ],
  "bytecode": "0x608060405234801561001057600080fd5b50604051611e47380380611e4783398181016040528101906100329190610376565b836001600081905550600073ffffffffffffffffffffffffffffffffffffffff168173ffffffffffffffffffffffffffffffffffffffff16036100ad5760006040517f1e4fbdf70000000000000000000000000000000000000000000000000000000081526004016100a49190610412565b60405180910390fd5b6100bc8161018660201b60201c565b50856003819055508460028190555083600760006101000a81548173ffffffffffffffffffffffffffffffffffffffff021916908373ffffffffffffffffffffffffffffffffffffffff16021790555082600860006101000a81548173ffffffffffffffffffffffffffffffffffffffff021916908373ffffffffffffffffffffffffffffffffffffffff16021790555060646006819055508160048190555080600581905550610173868261024c60201b60201c565b6000600b81905550505050505050610490565b6000600160009054906101000a900473ffffffffffffffffffffffffffffffffffffffff16905081600160006101000a81548173ffffffffffffffffffffffffffffffffffffffff021916908373ffffffffffffffffffffffffffffffffffffffff1602179055508173ffffffffffffffffffffffffffffffffffffffff168173ffffffffffffffffffffffffffffffffffffffff167f8be0079c531659141344cd1fd0a4f28419497f9722a3daafe3b4186f6b6457e060405160405180910390a35050565b5b8082116102d957600a60405180604001604052808481526020016000151581525090806001815401808255809150506001900390600052602060002090600202016000909190919091506000820151816000015560208201518160010160006101000a81548160ff021916908315150217905550505062278d00826102d2919061045c565b915061024d565b5050565b600080fd5b6000819050919050565b6102f5816102e2565b811461030057600080fd5b50565b600081519050610312816102ec565b92915050565b600073ffffffffffffffffffffffffffffffffffffffff82169050919050565b600061034382610318565b9050919050565b61035381610338565b811461035e57600080fd5b50565b6000815190506103708161034a565b92915050565b60008060008060008060c08789031215610393576103926102dd565b5b60006103a189828a01610303565b96505060206103b289828a01610303565b95505060406103c389828a01610361565b94505060606103d489828a01610361565b93505060806103e589828a01610303565b92505060a06103f689828a01610303565b9150509295509295509295565b61040c81610338565b82525050565b60006020820190506104276000830184610403565b92915050565b7f4e487b7100000000000000000000000000000000000000000000000000000000600052601160045260246000fd5b6000610467826102e2565b9150610472836102e2565b925082820190508082111561048a5761048961042d565b5b92915050565b6119a88061049f6000396000f3fe6080604052600436106100fe5760003560e01c80639b332a9111610095578063c24a0f8b11610064578063c24a0f8b146102df578063d359f82c1461030a578063eb9220ab14610333578063f2fde38b1461035c578063f502236d14610385576100fe565b80639b332a9114610242578063a709c4fe1461026d578063afd8206714610277578063bb82e578146102a2576100fe565b806342525d5d116100d157806342525d5d146101ac57806357ef9b6a146101d5578063715018a6146102005780638da5cb5b14610217576100fe565b80630b97bc86146101035780631979cd131461012e5780631e60c5371461014557806321dd22d11461016e575b600080fd5b34801561010f57600080fd5b506101186103b0565b604051610125919061124f565b60405180910390f35b34801561013a57600080fd5b506101436103b6565b005b34801561015157600080fd5b5061016c6004803603810190610167919061129b565b6104a0565b005b34801561017a57600080fd5b50610195600480360381019061019091906112db565b610531565b6040516101a3929190611323565b60405180910390f35b3480156101b857600080fd5b506101d360048036038101906101ce9190611382565b610572565b005b3480156101e157600080fd5b506101ea6106c3565b6040516101f7919061124f565b60405180910390f35b34801561020c57600080fd5b506102156107b5565b005b34801561022357600080fd5b5061022c6107c9565b60405161023991906113f0565b60405180910390f35b34801561024e57600080fd5b506102576107f3565b604051610264919061124f565b60405180910390f35b6102756107f9565b005b34801561028357600080fd5b5061028c610b83565b604051610299919061124f565b60405180910390f35b3480156102ae57600080fd5b506102c960048036038101906102c49190611437565b610c75565b6040516102d69190611486565b60405180910390f35b3480156102eb57600080fd5b506102f4610ca6565b604051610301919061124f565b60405180910390f35b34801561031657600080fd5b50610331600480360381019061032c91906112db565b610cac565b005b34801561033f57600080fd5b5061035a600480360381019061035591906112db565b610d80565b005b34801561036857600080fd5b50610383600480360381019061037e91906114a1565b610e52565b005b34801561039157600080fd5b5061039a610ed8565b6040516103a791906113f0565b60405180910390f35b60045481565b600760009054906101000a900473ffffffffffffffffffffffffffffffffffffffff1673ffffffffffffffffffffffffffffffffffffffff163373ffffffffffffffffffffffffffffffffffffffff16148061045f5750600860009054906101000a900473ffffffffffffffffffffffffffffffffffffffff1673ffffffffffffffffffffffffffffffffffffffff163373ffffffffffffffffffffffffffffffffffffffff16145b61049e576040517f08c379a00000000000000000000000000000000000000000000000000000000081526004016104959061152b565b60405180910390fd5b565b5b80821161052d57600a60405180604001604052808481526020016000151581525090806001815401808255809150506001900390600052602060002090600202016000909190919091506000820151816000015560208201518160010160006101000a81548160ff021916908315150217905550505062278d0082610526919061157a565b91506104a1565b5050565b600a818154811061054157600080fd5b90600052602060002090600202016000915090508060000154908060010160009054906101000a900460ff16905082565b600760009054906101000a900473ffffffffffffffffffffffffffffffffffffffff1673ffffffffffffffffffffffffffffffffffffffff163373ffffffffffffffffffffffffffffffffffffffff16148061061b5750600860009054906101000a900473ffffffffffffffffffffffffffffffffffffffff1673ffffffffffffffffffffffffffffffffffffffff163373ffffffffffffffffffffffffffffffffffffffff16145b61065a576040517f08c379a00000000000000000000000000000000000000000000000000000000081526004016106519061152b565b60405180910390fd5b600960003373ffffffffffffffffffffffffffffffffffffffff1673ffffffffffffffffffffffffffffffffffffffff16815260200190815260200160002081908060018154018082558091505060019003906000526020600020016000909190919091505550565b6000600760009054906101000a900473ffffffffffffffffffffffffffffffffffffffff1673ffffffffffffffffffffffffffffffffffffffff163373ffffffffffffffffffffffffffffffffffffffff16148061076e5750600860009054906101000a900473ffffffffffffffffffffffffffffffffffffffff1673ffffffffffffffffffffffffffffffffffffffff163373ffffffffffffffffffffffffffffffffffffffff16145b6107ad576040517f08c379a00000000000000000000000000000000000000000000000000000000081526004016107a49061152b565b60405180910390fd5b600254905090565b6107bd610fea565b6107c76000611071565b565b6000600160009054906101000a900473ffffffffffffffffffffffffffffffffffffffff16905090565b60035481565b610801611137565b6000600760009054906101000a900473ffffffffffffffffffffffffffffffffffffffff1673ffffffffffffffffffffffffffffffffffffffff163373ffffffffffffffffffffffffffffffffffffffff1614610893576040517f08c379a000000000000000000000000000000000000000000000000000000000815260040161088a906115fa565b60405180910390fd5b60025434146108d7576040517f08c379a00000000000000000000000000000000000000000000000000000000081526004016108ce90611666565b60405180910390fd5b60055442111561091c576040517f08c379a0000000000000000000000000000000000000000000000000000000008152600401610913906116d2565b60405180910390fd5b6000600860009054906101000a900473ffffffffffffffffffffffffffffffffffffffff1673ffffffffffffffffffffffffffffffffffffffff163460405161096490611723565b60006040518083038185875af1925050503d80600081146109a1576040519150601f19603f3d011682016040523d82523d6000602084013e6109a6565b606091505b50509050806109ea576040517f08c379a00000000000000000000000000000000000000000000000000000000081526004016109e190611784565b60405180910390fd5b6109f4600161117d565b9150600760009054906101000a900473ffffffffffffffffffffffffffffffffffffffff1673ffffffffffffffffffffffffffffffffffffffff167fdaa6426225fa3d467a9286f8d7ba9eab9344ed25a3c4455c9bd9d7191ecb9f53600a600b5481548110610a6657610a656117a4565b5b9060005260206000209060020201600001543485604051610a89939291906117d3565b60405180910390a281600a600b5481548110610aa857610aa76117a4565b5b906000526020600020906002020160010160006101000a81548160ff0219169083151502179055506001600b6000828254610ae3919061157a565b92505081905550600760009054906101000a900473ffffffffffffffffffffffffffffffffffffffff1673ffffffffffffffffffffffffffffffffffffffff16600a600b5481548110610b3957610b386117a4565b5b9060005260206000209060020201600001547fc4cfadff292c5ae98f722bf64f2b796e63c8b127eec85447beaa33278703c87a60405160405180910390a35050610b81611224565b565b6000600760009054906101000a900473ffffffffffffffffffffffffffffffffffffffff1673ffffffffffffffffffffffffffffffffffffffff163373ffffffffffffffffffffffffffffffffffffffff161480610c2e5750600860009054906101000a900473ffffffffffffffffffffffffffffffffffffffff1673ffffffffffffffffffffffffffffffffffffffff163373ffffffffffffffffffffffffffffffffffffffff16145b610c6d576040517f08c379a0000000000000000000000000000000000000000000000000000000008152600401610c649061152b565b60405180910390fd5b600654905090565b60096020528160005260406000208181548110610c9157600080fd5b90600052602060002001600091509150505481565b60055481565b600860009054906101000a900473ffffffffffffffffffffffffffffffffffffffff1673ffffffffffffffffffffffffffffffffffffffff163373ffffffffffffffffffffffffffffffffffffffff1614610d3c576040517f08c379a0000000000000000000000000000000000000000000000000000000008152600401610d339061187c565b60405180910390fd5b806005819055506005547f1e9300ca5a9796c5241a9179ea7078806d81321510ec101d80bc8b3bb34b1bbe33604051610d7591906113f0565b60405180910390a250565b600860009054906101000a900473ffffffffffffffffffffffffffffffffffffffff1673ffffffffffffffffffffffffffffffffffffffff163373ffffffffffffffffffffffffffffffffffffffff1614610e10576040517f08c379a0000000000000000000000000000000000000000000000000000000008152600401610e079061187c565b60405180910390fd5b80600281905550807f92db6122fb059af80b30cb7ddb63563f1eb91b94fd91d45834adf27bbc7bb84133604051610e4791906113f0565b60405180910390a250565b610e5a610fea565b600073ffffffffffffffffffffffffffffffffffffffff168173ffffffffffffffffffffffffffffffffffffffff1603610ecc5760006040517f1e4fbdf7000000000000000000000000000000000000000000000000000000008152600401610ec391906113f0565b60405180910390fd5b610ed581611071565b50565b6000600760009054906101000a900473ffffffffffffffffffffffffffffffffffffffff1673ffffffffffffffffffffffffffffffffffffffff163373ffffffffffffffffffffffffffffffffffffffff161480610f835750600860009054906101000a900473ffffffffffffffffffffffffffffffffffffffff1673ffffffffffffffffffffffffffffffffffffffff163373ffffffffffffffffffffffffffffffffffffffff16145b610fc2576040517f08c379a0000000000000000000000000000000000000000000000000000000008152600401610fb99061152b565b60405180910390fd5b600860009054906101000a900473ffffffffffffffffffffffffffffffffffffffff16905090565b610ff261122e565b73ffffffffffffffffffffffffffffffffffffffff166110106107c9565b73ffffffffffffffffffffffffffffffffffffffff161461106f5761103361122e565b6040517f118cdaa700000000000000000000000000000000000000000000000000000000815260040161106691906113f0565b60405180910390fd5b565b6000600160009054906101000a900473ffffffffffffffffffffffffffffffffffffffff16905081600160006101000a81548173ffffffffffffffffffffffffffffffffffffffff021916908373ffffffffffffffffffffffffffffffffffffffff1602179055508173ffffffffffffffffffffffffffffffffffffffff168173ffffffffffffffffffffffffffffffffffffffff167f8be0079c531659141344cd1fd0a4f28419497f9722a3daafe3b4186f6b6457e060405160405180910390a35050565b600260005403611173576040517f3ee5aeb500000000000000000000000000000000000000000000000000000000815260040160405180910390fd5b6002600081905550565b600080620151808361118f919061189c565b60035461119c919061157a565b90508042106111ff5760006201518082426111b791906118de565b6111c19190611941565b90508060065410156111da5760006006819055506111f4565b80600660008282546111ec91906118de565b925050819055505b60009250505061121f565b600a60066000828254611212919061157a565b9250508190555060019150505b919050565b6001600081905550565b600033905090565b6000819050919050565b61124981611236565b82525050565b60006020820190506112646000830184611240565b92915050565b600080fd5b61127881611236565b811461128357600080fd5b50565b6000813590506112958161126f565b92915050565b600080604083850312156112b2576112b161126a565b5b60006112c085828601611286565b92505060206112d185828601611286565b9150509250929050565b6000602082840312156112f1576112f061126a565b5b60006112ff84828501611286565b91505092915050565b60008115159050919050565b61131d81611308565b82525050565b60006040820190506113386000830185611240565b6113456020830184611314565b9392505050565b6000819050919050565b61135f8161134c565b811461136a57600080fd5b50565b60008135905061137c81611356565b92915050565b6000602082840312156113985761139761126a565b5b60006113a68482850161136d565b91505092915050565b600073ffffffffffffffffffffffffffffffffffffffff82169050919050565b60006113da826113af565b9050919050565b6113ea816113cf565b82525050565b600060208201905061140560008301846113e1565b92915050565b611414816113cf565b811461141f57600080fd5b50565b6000813590506114318161140b565b92915050565b6000806040838503121561144e5761144d61126a565b5b600061145c85828601611422565b925050602061146d85828601611286565b9150509250929050565b6114808161134c565b82525050565b600060208201905061149b6000830184611477565b92915050565b6000602082840312156114b7576114b661126a565b5b60006114c584828501611422565b91505092915050565b600082825260208201905092915050565b7f57616c6c6574206e6f7420616c6c6f7765640000000000000000000000000000600082015250565b60006115156012836114ce565b9150611520826114df565b602082019050919050565b6000602082019050818103600083015261154481611508565b9050919050565b7f4e487b7100000000000000000000000000000000000000000000000000000000600052601160045260246000fd5b600061158582611236565b915061159083611236565b92508282019050808211156115a8576115a761154b565b5b92915050565b7f5061796572206e6f7420616c6c6f776564000000000000000000000000000000600082015250565b60006115e46011836114ce565b91506115ef826115ae565b602082019050919050565b60006020820190508181036000830152611613816115d7565b9050919050565b7f57726f6e672072656e7420616d6f756e74000000000000000000000000000000600082015250565b60006116506011836114ce565b915061165b8261161a565b602082019050919050565b6000602082019050818103600083015261167f81611643565b9050919050565b7f546865206c656173652068617320657870697265640000000000000000000000600082015250565b60006116bc6015836114ce565b91506116c782611686565b602082019050919050565b600060208201905081810360008301526116eb816116af565b9050919050565b600081905092915050565b50565b600061170d6000836116f2565b9150611718826116fd565b600082019050919050565b600061172e82611700565b9150819050919050565b7f4661696c656420746f2073656e64207468652072656e74000000000000000000600082015250565b600061176e6017836114ce565b915061177982611738565b602082019050919050565b6000602082019050818103600083015261179d81611761565b9050919050565b7f4e487b7100000000000000000000000000000000000000000000000000000000600052603260045260246000fd5b60006060820190506117e86000830186611240565b6117f56020830185611240565b6118026040830184611314565b949350505050565b7f4f6e6c7920746865206c616e646c6f726420697320616c6c6f77656420746f2060008201527f706572666f726d2074686973206f7065726174696f6e00000000000000000000602082015250565b60006118666036836114ce565b91506118718261180a565b604082019050919050565b6000602082019050818103600083015261189581611859565b9050919050565b60006118a782611236565b91506118b283611236565b92508282026118c081611236565b915082820484148315176118d7576118d661154b565b5b5092915050565b60006118e982611236565b91506118f483611236565b925082820390508181111561190c5761190b61154b565b5b92915050565b7f4e487b7100000000000000000000000000000000000000000000000000000000600052601260045260246000fd5b600061194c82611236565b915061195783611236565b92508261196757611966611912565b5b82820490509291505056fea2646970667358221220f100c002f83289161ea3c84a620efbc9b746121c179c233e9bfc1e9474b6024264736f6c634300081c0033",
  "linkReferences": {},
  "deployedLinkReferences": {}
}