{
  "_format": "hh-sol-artifact-1",
  "contractName": "Rental",
  "sourceName": "contracts/rental.sol",
  "abi": [
    {
      "inputs": [
        {
          "internalType": "uint256",
          "name": "_payDate",
          "type": "uint256"
        },
        {
          "internalType": "uint256",
          "name": "_expectedRent",
          "type": "uint256"
        },
        {
          "internalType": "address",
          "name": "_renter",
          "type": "address"
        },
        {
          "internalType": "address",
          "name": "_landlord",
          "type": "address"
        },
        {
          "internalType": "uint256",
          "name": "_startDate",
          "type": "uint256"
        },
        {
          "internalType": "uint256",
          "name": "_endDate",
          "type": "uint256"
        },
        {
          "internalType": "string",
          "name": "_loc",
          "type": "string"
        },
        {
          "internalType": "address",
          "name": "_token",
          "type": "address"
        }
      ],
      "stateMutability": "nonpayable",
      "type": "constructor"
    },
    {
      "inputs": [
        {
          "internalType": "address",
          "name": "owner",
          "type": "address"
        }
      ],
      "name": "OwnableInvalidOwner",
      "type": "error"
    },
    {
      "inputs": [
        {
          "internalType": "address",
          "name": "account",
          "type": "address"
        }
      ],
      "name": "OwnableUnauthorizedAccount",
      "type": "error"
    },
    {
      "inputs": [],
      "name": "ReentrancyGuardReentrantCall",
      "type": "error"
    },
    {
      "anonymous": false,
      "inputs": [
        {
          "indexed": true,
          "internalType": "uint256",
          "name": "endDate",
          "type": "uint256"
        },
        {
          "indexed": false,
          "internalType": "address",
          "name": "owner",
          "type": "address"
        }
      ],
      "name": "NewEnd",
      "type": "event"
    },
    {
      "anonymous": false,
      "inputs": [
        {
          "indexed": true,
          "internalType": "uint256",
          "name": "payDate",
          "type": "uint256"
        },
        {
          "indexed": true,
          "internalType": "address",
          "name": "renter",
          "type": "address"
        }
      ],
      "name": "NewPayDate",
      "type": "event"
    },
    {
      "anonymous": false,
      "inputs": [
        {
          "indexed": true,
          "internalType": "address",
          "name": "previousOwner",
          "type": "address"
        },
        {
          "indexed": true,
          "internalType": "address",
          "name": "newOwner",
          "type": "address"
        }
      ],
      "name": "OwnershipTransferred",
      "type": "event"
    },
    {
      "anonymous": false,
      "inputs": [
        {
          "indexed": false,
          "internalType": "uint256",
          "name": "payDate",
          "type": "uint256"
        },
        {
          "indexed": false,
          "internalType": "uint256",
          "name": "amount",
          "type": "uint256"
        },
        {
          "indexed": true,
          "internalType": "address",
          "name": "renter",
          "type": "address"
        },
        {
          "indexed": false,
          "internalType": "bool",
          "name": "onTime",
          "type": "bool"
        }
      ],
      "name": "RentPaid",
      "type": "event"
    },
    {
      "anonymous": false,
      "inputs": [
        {
          "indexed": true,
          "internalType": "uint256",
          "name": "newRent",
          "type": "uint256"
        },
        {
          "indexed": false,
          "internalType": "address",
          "name": "landlord",
          "type": "address"
        }
      ],
      "name": "RentUpdate",
      "type": "event"
    },
    {
      "inputs": [],
      "name": "checkRent",
      "outputs": [
        {
          "internalType": "uint256",
          "name": "",
          "type": "uint256"
        }
      ],
      "stateMutability": "view",
      "type": "function"
    },
    {
      "inputs": [],
      "name": "endDate",
      "outputs": [
        {
          "internalType": "uint256",
          "name": "",
          "type": "uint256"
        }
      ],
      "stateMutability": "view",
      "type": "function"
    },
    {
      "inputs": [],
      "name": "getLandlord",
      "outputs": [
        {
          "internalType": "address",
          "name": "",
          "type": "address"
        }
      ],
      "stateMutability": "view",
      "type": "function"
    },
    {
      "inputs": [],
      "name": "getPaymentCount",
      "outputs": [
        {
          "internalType": "uint256",
          "name": "",
          "type": "uint256"
        }
      ],
      "stateMutability": "view",
      "type": "function"
    },
    {
      "inputs": [],
      "name": "getPayments",
      "outputs": [
        {
          "components": [
            {
              "internalType": "uint256",
              "name": "date",
              "type": "uint256"
            },
            {
              "internalType": "bool",
              "name": "paid",
              "type": "bool"
            },
            {
              "internalType": "bool",
              "name": "onTime",
              "type": "bool"
            },
            {
              "internalType": "bytes32",
              "name": "txHash",
              "type": "bytes32"
            }
          ],
          "internalType": "struct Rental.Payment[]",
          "name": "",
          "type": "tuple[]"
        }
      ],
      "stateMutability": "view",
      "type": "function"
    },
    {
      "inputs": [],
      "name": "getScore",
      "outputs": [
        {
          "internalType": "uint256",
          "name": "",
          "type": "uint256"
        }
      ],
      "stateMutability": "view",
      "type": "function"
    },
    {
      "inputs": [],
      "name": "loc",
      "outputs": [
        {
          "internalType": "string",
          "name": "",
          "type": "string"
        }
      ],
      "stateMutability": "view",
      "type": "function"
    },
    {
      "inputs": [],
      "name": "owner",
      "outputs": [
        {
          "internalType": "address",
          "name": "",
          "type": "address"
        }
      ],
      "stateMutability": "view",
      "type": "function"
    },
    {
      "inputs": [],
      "name": "payDate",
      "outputs": [
        {
          "internalType": "uint256",
          "name": "",
          "type": "uint256"
        }
      ],
      "stateMutability": "view",
      "type": "function"
    },
    {
      "inputs": [],
      "name": "payRent",
      "outputs": [],
      "stateMutability": "nonpayable",
      "type": "function"
    },
    {
      "inputs": [
        {
          "internalType": "uint256",
          "name": "",
          "type": "uint256"
        }
      ],
      "name": "paymentSchedule",
      "outputs": [
        {
          "internalType": "uint256",
          "name": "date",
          "type": "uint256"
        },
        {
          "internalType": "bool",
          "name": "paid",
          "type": "bool"
        },
        {
          "internalType": "bool",
          "name": "onTime",
          "type": "bool"
        },
        {
          "internalType": "bytes32",
          "name": "txHash",
          "type": "bytes32"
        }
      ],
      "stateMutability": "view",
      "type": "function"
    },
    {
      "inputs": [
        {
          "internalType": "uint256",
          "name": "pd",
          "type": "uint256"
        },
        {
          "internalType": "uint256",
          "name": "endLease",
          "type": "uint256"
        }
      ],
      "name": "populateSchedule",
      "outputs": [],
      "stateMutability": "nonpayable",
      "type": "function"
    },
    {
      "inputs": [],
      "name": "renounceOwnership",
      "outputs": [],
      "stateMutability": "nonpayable",
      "type": "function"
    },
    {
      "inputs": [],
      "name": "sendNotice",
      "outputs": [],
      "stateMutability": "nonpayable",
      "type": "function"
    },
    {
      "inputs": [],
      "name": "startDate",
      "outputs": [
        {
          "internalType": "uint256",
          "name": "",
          "type": "uint256"
        }
      ],
      "stateMutability": "view",
      "type": "function"
    },
    {
      "inputs": [
        {
          "internalType": "bytes32",
          "name": "transaction_id",
          "type": "bytes32"
        }
      ],
      "name": "storeHash",
      "outputs": [],
      "stateMutability": "nonpayable",
      "type": "function"
    },
    {
      "inputs": [],
      "name": "token",
      "outputs": [
        {
          "internalType": "address",
          "name": "",
          "type": "address"
        }
      ],
      "stateMutability": "view",
      "type": "function"
    },
    {
      "inputs": [
        {
          "internalType": "address",
          "name": "newOwner",
          "type": "address"
        }
      ],
      "name": "transferOwnership",
      "outputs": [],
      "stateMutability": "nonpayable",
      "type": "function"
    },
    {
      "inputs": [
        {
          "internalType": "uint256",
          "name": "_newDate",
          "type": "uint256"
        }
      ],
      "name": "updateExpiry",
      "outputs": [],
      "stateMutability": "nonpayable",
      "type": "function"
    },
    {
      "inputs": [
        {
          "internalType": "uint256",
          "name": "_newRent",
          "type": "uint256"
        }
      ],
      "name": "updateRent",
      "outputs": [],
      "stateMutability": "nonpayable",
      "type": "function"
    }
  ],
  "bytecode": "0x608060405234801561001057600080fd5b5060405161339438038061339483398181016040528101906100329190610a44565b856001600081905550600073ffffffffffffffffffffffffffffffffffffffff168173ffffffffffffffffffffffffffffffffffffffff16036100ad5760006040517f1e4fbdf70000000000000000000000000000000000000000000000000000000081526004016100a49190610b25565b60405180910390fd5b6100bc816101d960201b60201c565b50876003819055508660028190555085600760006101000a81548173ffffffffffffffffffffffffffffffffffffffff021916908373ffffffffffffffffffffffffffffffffffffffff16021790555084600860006101000a81548173ffffffffffffffffffffffffffffffffffffffff021916908373ffffffffffffffffffffffffffffffffffffffff1602179055506064600681905550836004819055508260058190555081600990816101729190610d57565b5080600a60006101000a81548173ffffffffffffffffffffffffffffffffffffffff021916908373ffffffffffffffffffffffffffffffffffffffff1602179055506101c4888461029f60201b60201c565b6000600c819055505050505050505050611106565b6000600160009054906101000a900473ffffffffffffffffffffffffffffffffffffffff16905081600160006101000a81548173ffffffffffffffffffffffffffffffffffffffff021916908373ffffffffffffffffffffffffffffffffffffffff1602179055508173ffffffffffffffffffffffffffffffffffffffff168173ffffffffffffffffffffffffffffffffffffffff167f8be0079c531659141344cd1fd0a4f28419497f9722a3daafe3b4186f6b6457e060405160405180910390a35050565b5b80821161036a57600b60405180608001604052808481526020016000151581526020016000151581526020016000801b81525090806001815401808255809150506001900390600052602060002090600302016000909190919091506000820151816000015560208201518160010160006101000a81548160ff02191690831515021790555060408201518160010160016101000a81548160ff02191690831515021790555060608201518160020155505061036382600161036e60201b60201c565b91506102a0565b5050565b60008060008061039162015180876103869190610e87565b61046360201b60201c565b92509250925084826103a39190610eb8565b9150600c6001836103b49190610eec565b6103be9190610e87565b836103c99190610eb8565b92506001600c6001846103dc9190610eec565b6103e69190610f20565b6103f09190610eb8565b91506000610404848461060260201b60201c565b905080821115610412578091505b62015180876104219190610f20565b6201518061043686868661069360201b60201c565b6104409190610f51565b61044a9190610eb8565b94508685101561045957600080fd5b5050505092915050565b600080600080849050600062253d8c62010bd9836104819190610f9d565b61048b9190610f9d565b9050600062023ab18260046104a09190610fe1565b6104aa9190611059565b9050600460038262023ab16104bf9190610fe1565b6104c99190610f9d565b6104d39190611059565b826104de91906110c3565b9150600062164b096001846104f39190610f9d565b610fa06105009190610fe1565b61050a9190611059565b9050601f6004826105b561051e9190610fe1565b6105289190611059565b8461053391906110c3565b61053d9190610f9d565b9250600061098f8460506105519190610fe1565b61055b9190611059565b9050600060508261098f61056f9190610fe1565b6105799190611059565b8561058491906110c3565b9050600b826105939190611059565b945084600c6105a29190610fe1565b6002836105af9190610f9d565b6105b991906110c3565b915084836031866105ca91906110c3565b60646105d69190610fe1565b6105e09190610f9d565b6105ea9190610f9d565b92508298508197508096505050505050509193909250565b600060018214806106135750600382145b8061061e5750600582145b806106295750600782145b806106345750600882145b8061063f5750600a82145b8061064a5750600c82145b1561065857601f905061068d565b6002821461066957601e905061068c565b610678836107f260201b60201c565b61068357601c610686565b601d5b60ff1690505b5b92915050565b60006107b28410156106a457600080fd5b600084905060008490506000849050600062253d8c60046064600c600e876106cc91906110c3565b6106d69190611059565b611324886106e49190610f9d565b6106ee9190610f9d565b6106f89190611059565b60036107049190610fe1565b61070e9190611059565b600c80600c600e8861072091906110c3565b61072a9190611059565b6107349190610fe1565b60028761074191906110c3565b61074b91906110c3565b61016f6107589190610fe1565b6107629190611059565b6004600c600e8861077391906110c3565b61077d9190611059565b6112c08961078b9190610f9d565b6107959190610f9d565b6105b56107a29190610fe1565b6107ac9190611059565b617d4b866107ba91906110c3565b6107c49190610f9d565b6107ce9190610f9d565b6107d891906110c3565b6107e291906110c3565b9050809450505050509392505050565b6000806004836108029190610f20565b14801561081c575060006064836108199190610f20565b14155b8061083457506000610190836108329190610f20565b145b9050919050565b6000604051905090565b600080fd5b600080fd5b6000819050919050565b6108628161084f565b811461086d57600080fd5b50565b60008151905061087f81610859565b92915050565b600073ffffffffffffffffffffffffffffffffffffffff82169050919050565b60006108b082610885565b9050919050565b6108c0816108a5565b81146108cb57600080fd5b50565b6000815190506108dd816108b7565b92915050565b600080fd5b600080fd5b6000601f19601f8301169050919050565b7f4e487b7100000000000000000000000000000000000000000000000000000000600052604160045260246000fd5b610936826108ed565b810181811067ffffffffffffffff82111715610955576109546108fe565b5b80604052505050565b600061096861083b565b9050610974828261092d565b919050565b600067ffffffffffffffff821115610994576109936108fe565b5b61099d826108ed565b9050602081019050919050565b60005b838110156109c85780820151818401526020810190506109ad565b60008484015250505050565b60006109e76109e284610979565b61095e565b905082815260208101848484011115610a0357610a026108e8565b5b610a0e8482856109aa565b509392505050565b600082601f830112610a2b57610a2a6108e3565b5b8151610a3b8482602086016109d4565b91505092915050565b600080600080600080600080610100898b031215610a6557610a64610845565b5b6000610a738b828c01610870565b9850506020610a848b828c01610870565b9750506040610a958b828c016108ce565b9650506060610aa68b828c016108ce565b9550506080610ab78b828c01610870565b94505060a0610ac88b828c01610870565b93505060c089015167ffffffffffffffff811115610ae957610ae861084a565b5b610af58b828c01610a16565b92505060e0610b068b828c016108ce565b9150509295985092959890939650565b610b1f816108a5565b82525050565b6000602082019050610b3a6000830184610b16565b92915050565b600081519050919050565b7f4e487b7100000000000000000000000000000000000000000000000000000000600052602260045260246000fd5b60006002820490506001821680610b9257607f821691505b602082108103610ba557610ba4610b4b565b5b50919050565b60008190508160005260206000209050919050565b60006020601f8301049050919050565b600082821b905092915050565b600060088302610c0d7fffffffffffffffffffffffffffffffffffffffffffffffffffffffffffffffff82610bd0565b610c178683610bd0565b95508019841693508086168417925050509392505050565b6000819050919050565b6000610c54610c4f610c4a8461084f565b610c2f565b61084f565b9050919050565b6000819050919050565b610c6e83610c39565b610c82610c7a82610c5b565b848454610bdd565b825550505050565b600090565b610c97610c8a565b610ca2818484610c65565b505050565b5b81811015610cc657610cbb600082610c8f565b600181019050610ca8565b5050565b601f821115610d0b57610cdc81610bab565b610ce584610bc0565b81016020851015610cf4578190505b610d08610d0085610bc0565b830182610ca7565b50505b505050565b600082821c905092915050565b6000610d2e60001984600802610d10565b1980831691505092915050565b6000610d478383610d1d565b9150826002028217905092915050565b610d6082610b40565b67ffffffffffffffff811115610d7957610d786108fe565b5b610d838254610b7a565b610d8e828285610cca565b600060209050601f831160018114610dc15760008415610daf578287015190505b610db98582610d3b565b865550610e21565b601f198416610dcf86610bab565b60005b82811015610df757848901518255600182019150602085019450602081019050610dd2565b86831015610e145784890151610e10601f891682610d1d565b8355505b6001600288020188555050505b505050505050565b7f4e487b7100000000000000000000000000000000000000000000000000000000600052601260045260246000fd5b7f4e487b7100000000000000000000000000000000000000000000000000000000600052601160045260246000fd5b6000610e928261084f565b9150610e9d8361084f565b925082610ead57610eac610e29565b5b828204905092915050565b6000610ec38261084f565b9150610ece8361084f565b9250828201905080821115610ee657610ee5610e58565b5b92915050565b6000610ef78261084f565b9150610f028361084f565b9250828203905081811115610f1a57610f19610e58565b5b92915050565b6000610f2b8261084f565b9150610f368361084f565b925082610f4657610f45610e29565b5b828206905092915050565b6000610f5c8261084f565b9150610f678361084f565b9250828202610f758161084f565b91508282048414831517610f8c57610f8b610e58565b5b5092915050565b6000819050919050565b6000610fa882610f93565b9150610fb383610f93565b925082820190508281121560008312168382126000841215161715610fdb57610fda610e58565b5b92915050565b6000610fec82610f93565b9150610ff783610f93565b925082820261100581610f93565b91507f8000000000000000000000000000000000000000000000000000000000000000841460008412161561103d5761103c610e58565b5b828205841483151761105257611051610e58565b5b5092915050565b600061106482610f93565b915061106f83610f93565b92508261107f5761107e610e29565b5b600160000383147f8000000000000000000000000000000000000000000000000000000000000000831416156110b8576110b7610e58565b5b828205905092915050565b60006110ce82610f93565b91506110d983610f93565b9250828203905081811260008412168282136000851215161715611100576110ff610e58565b5b92915050565b61227f806111156000396000f3fe608060405234801561001057600080fd5b506004361061012c5760003560e01c8063abb07876116100ad578063d56bd14211610071578063d56bd142146102c6578063eb9220ab146102e4578063f2fde38b14610300578063f502236d1461031c578063fc0c546a1461033a5761012c565b8063abb0787614610232578063af32a03f14610250578063afd820671461026e578063c24a0f8b1461028c578063d359f82c146102aa5761012c565b8063715018a6116100f4578063715018a6146101c65780637fe88885146101d05780638da5cb5b146101ec5780639b332a911461020a578063a709c4fe146102285761012c565b80630b97bc86146101315780631979cd131461014f5780631e60c5371461015957806321dd22d11461017557806357ef9b6a146101a8575b600080fd5b610139610358565b604051610146919061178f565b60405180910390f35b61015761035e565b005b610173600480360381019061016e91906117db565b610448565b005b61018f600480360381019061018a919061181b565b610511565b60405161019f949392919061187c565b60405180910390f35b6101b061056b565b6040516101bd919061178f565b60405180910390f35b6101ce61065d565b005b6101ea60048036038101906101e591906118ed565b610671565b005b6101f46106ac565b604051610201919061195b565b60405180910390f35b6102126106d6565b60405161021f919061178f565b60405180910390f35b6102306106dc565b005b61023a610ab0565b6040516102479190611a06565b60405180910390f35b610258610b3e565b604051610265919061178f565b60405180910390f35b610276610b4b565b604051610283919061178f565b60405180910390f35b610294610c3d565b6040516102a1919061178f565b60405180910390f35b6102c460048036038101906102bf919061181b565b610c43565b005b6102ce610d17565b6040516102db9190611b59565b60405180910390f35b6102fe60048036038101906102f9919061181b565b610dc0565b005b61031a60048036038101906103159190611ba7565b610e92565b005b610324610f18565b604051610331919061195b565b60405180910390f35b61034261102a565b60405161034f919061195b565b60405180910390f35b60045481565b600760009054906101000a900473ffffffffffffffffffffffffffffffffffffffff1673ffffffffffffffffffffffffffffffffffffffff163373ffffffffffffffffffffffffffffffffffffffff1614806104075750600860009054906101000a900473ffffffffffffffffffffffffffffffffffffffff1673ffffffffffffffffffffffffffffffffffffffff163373ffffffffffffffffffffffffffffffffffffffff16145b610446576040517f08c379a000000000000000000000000000000000000000000000000000000000815260040161043d90611c20565b60405180910390fd5b565b5b80821161050d57600b60405180608001604052808481526020016000151581526020016000151581526020016000801b81525090806001815401808255809150506001900390600052602060002090600302016000909190919091506000820151816000015560208201518160010160006101000a81548160ff02191690831515021790555060408201518160010160016101000a81548160ff021916908315150217905550606082015181600201555050610506826001611050565b9150610449565b5050565b600b818154811061052157600080fd5b90600052602060002090600302016000915090508060000154908060010160009054906101000a900460ff16908060010160019054906101000a900460ff16908060020154905084565b6000600760009054906101000a900473ffffffffffffffffffffffffffffffffffffffff1673ffffffffffffffffffffffffffffffffffffffff163373ffffffffffffffffffffffffffffffffffffffff1614806106165750600860009054906101000a900473ffffffffffffffffffffffffffffffffffffffff1673ffffffffffffffffffffffffffffffffffffffff163373ffffffffffffffffffffffffffffffffffffffff16145b610655576040517f08c379a000000000000000000000000000000000000000000000000000000000815260040161064c90611c20565b60405180910390fd5b600254905090565b610665611133565b61066f60006111ba565b565b80600b6001600c546106839190611c6f565b8154811061069457610693611ca3565b5b90600052602060002090600302016002018190555050565b6000600160009054906101000a900473ffffffffffffffffffffffffffffffffffffffff16905090565b60035481565b6106e4611280565b6000600760009054906101000a900473ffffffffffffffffffffffffffffffffffffffff1673ffffffffffffffffffffffffffffffffffffffff163373ffffffffffffffffffffffffffffffffffffffff1614610776576040517f08c379a000000000000000000000000000000000000000000000000000000000815260040161076d90611d1e565b60405180910390fd5b6005544211156107bb576040517f08c379a00000000000000000000000000000000000000000000000000000000081526004016107b290611d8a565b60405180910390fd5b6000600a60009054906101000a900473ffffffffffffffffffffffffffffffffffffffff1673ffffffffffffffffffffffffffffffffffffffff166323b872dd33600860009054906101000a900473ffffffffffffffffffffffffffffffffffffffff166002546040518463ffffffff1660e01b815260040161084093929190611daa565b6020604051808303816000875af115801561085f573d6000803e3d6000fd5b505050506040513d601f19601f820116820180604052508101906108839190611e0d565b9050806108c5576040517f08c379a00000000000000000000000000000000000000000000000000000000081526004016108bc90611e86565b60405180910390fd5b6108cf60016112c6565b9150600760009054906101000a900473ffffffffffffffffffffffffffffffffffffffff1673ffffffffffffffffffffffffffffffffffffffff167fdaa6426225fa3d467a9286f8d7ba9eab9344ed25a3c4455c9bd9d7191ecb9f53600b600c548154811061094157610940611ca3565b5b9060005260206000209060030201600001546002548560405161096693929190611ea6565b60405180910390a26001600b600c548154811061098657610985611ca3565b5b906000526020600020906003020160010160006101000a81548160ff02191690831515021790555081600b600c54815481106109c5576109c4611ca3565b5b906000526020600020906003020160010160016101000a81548160ff0219169083151502179055506001600c6000828254610a009190611edd565b92505081905550600b80549050600c541015610aa457600760009054906101000a900473ffffffffffffffffffffffffffffffffffffffff1673ffffffffffffffffffffffffffffffffffffffff16600b600c5481548110610a6557610a64611ca3565b5b9060005260206000209060030201600001547fc4cfadff292c5ae98f722bf64f2b796e63c8b127eec85447beaa33278703c87a60405160405180910390a35b5050610aae611392565b565b60098054610abd90611f40565b80601f0160208091040260200160405190810160405280929190818152602001828054610ae990611f40565b8015610b365780601f10610b0b57610100808354040283529160200191610b36565b820191906000526020600020905b815481529060010190602001808311610b1957829003601f168201915b505050505081565b6000600b80549050905090565b6000600760009054906101000a900473ffffffffffffffffffffffffffffffffffffffff1673ffffffffffffffffffffffffffffffffffffffff163373ffffffffffffffffffffffffffffffffffffffff161480610bf65750600860009054906101000a900473ffffffffffffffffffffffffffffffffffffffff1673ffffffffffffffffffffffffffffffffffffffff163373ffffffffffffffffffffffffffffffffffffffff16145b610c35576040517f08c379a0000000000000000000000000000000000000000000000000000000008152600401610c2c90611c20565b60405180910390fd5b600654905090565b60055481565b600860009054906101000a900473ffffffffffffffffffffffffffffffffffffffff1673ffffffffffffffffffffffffffffffffffffffff163373ffffffffffffffffffffffffffffffffffffffff1614610cd3576040517f08c379a0000000000000000000000000000000000000000000000000000000008152600401610cca90611fe3565b60405180910390fd5b806005819055506005547f1e9300ca5a9796c5241a9179ea7078806d81321510ec101d80bc8b3bb34b1bbe33604051610d0c919061195b565b60405180910390a250565b6060600b805480602002602001604051908101604052809291908181526020016000905b82821015610db75783829060005260206000209060030201604051806080016040529081600082015481526020016001820160009054906101000a900460ff161515151581526020016001820160019054906101000a900460ff1615151515815260200160028201548152505081526020019060010190610d3b565b50505050905090565b600860009054906101000a900473ffffffffffffffffffffffffffffffffffffffff1673ffffffffffffffffffffffffffffffffffffffff163373ffffffffffffffffffffffffffffffffffffffff1614610e50576040517f08c379a0000000000000000000000000000000000000000000000000000000008152600401610e4790611fe3565b60405180910390fd5b80600281905550807f92db6122fb059af80b30cb7ddb63563f1eb91b94fd91d45834adf27bbc7bb84133604051610e87919061195b565b60405180910390a250565b610e9a611133565b600073ffffffffffffffffffffffffffffffffffffffff168173ffffffffffffffffffffffffffffffffffffffff1603610f0c5760006040517f1e4fbdf7000000000000000000000000000000000000000000000000000000008152600401610f03919061195b565b60405180910390fd5b610f15816111ba565b50565b6000600760009054906101000a900473ffffffffffffffffffffffffffffffffffffffff1673ffffffffffffffffffffffffffffffffffffffff163373ffffffffffffffffffffffffffffffffffffffff161480610fc35750600860009054906101000a900473ffffffffffffffffffffffffffffffffffffffff1673ffffffffffffffffffffffffffffffffffffffff163373ffffffffffffffffffffffffffffffffffffffff16145b611002576040517f08c379a0000000000000000000000000000000000000000000000000000000008152600401610ff990611c20565b60405180910390fd5b600860009054906101000a900473ffffffffffffffffffffffffffffffffffffffff16905090565b600a60009054906101000a900473ffffffffffffffffffffffffffffffffffffffff1681565b60008060008061106d62015180876110689190612032565b61139c565b925092509250848261107f9190611edd565b9150600c6001836110909190611c6f565b61109a9190612032565b836110a59190611edd565b92506001600c6001846110b89190611c6f565b6110c29190612063565b6110cc9190611edd565b915060006110da848461153b565b9050808211156110e8578091505b62015180876110f79190612063565b620151806111068686866115c6565b6111109190612094565b61111a9190611edd565b94508685101561112957600080fd5b5050505092915050565b61113b611725565b73ffffffffffffffffffffffffffffffffffffffff166111596106ac565b73ffffffffffffffffffffffffffffffffffffffff16146111b85761117c611725565b6040517f118cdaa70000000000000000000000000000000000000000000000000000000081526004016111af919061195b565b60405180910390fd5b565b6000600160009054906101000a900473ffffffffffffffffffffffffffffffffffffffff16905081600160006101000a81548173ffffffffffffffffffffffffffffffffffffffff021916908373ffffffffffffffffffffffffffffffffffffffff1602179055508173ffffffffffffffffffffffffffffffffffffffff168173ffffffffffffffffffffffffffffffffffffffff167f8be0079c531659141344cd1fd0a4f28419497f9722a3daafe3b4186f6b6457e060405160405180910390a35050565b6002600054036112bc576040517f3ee5aeb500000000000000000000000000000000000000000000000000000000815260040160405180910390fd5b6002600081905550565b60008062015180836112d89190612094565b600b600c54815481106112ee576112ed611ca3565b5b90600052602060002090600302016000015461130a9190611edd565b905080421061136d5760006201518082426113259190611c6f565b61132f9190612032565b9050806006541015611348576000600681905550611362565b806006600082825461135a9190611c6f565b925050819055505b60009250505061138d565b600a600660008282546113809190611edd565b9250508190555060019150505b919050565b6001600081905550565b600080600080849050600062253d8c62010bd9836113ba91906120e0565b6113c491906120e0565b9050600062023ab18260046113d99190612124565b6113e3919061219c565b9050600460038262023ab16113f89190612124565b61140291906120e0565b61140c919061219c565b826114179190612206565b9150600062164b0960018461142c91906120e0565b610fa06114399190612124565b611443919061219c565b9050601f6004826105b56114579190612124565b611461919061219c565b8461146c9190612206565b61147691906120e0565b9250600061098f84605061148a9190612124565b611494919061219c565b9050600060508261098f6114a89190612124565b6114b2919061219c565b856114bd9190612206565b9050600b826114cc919061219c565b945084600c6114db9190612124565b6002836114e891906120e0565b6114f29190612206565b915084836031866115039190612206565b606461150f9190612124565b61151991906120e0565b61152391906120e0565b92508298508197508096505050505050509193909250565b6000600182148061154c5750600382145b806115575750600582145b806115625750600782145b8061156d5750600882145b806115785750600a82145b806115835750600c82145b1561159157601f90506115c0565b600282146115a257601e90506115bf565b6115ab8361172d565b6115b657601c6115b9565b601d5b60ff1690505b5b92915050565b60006107b28410156115d757600080fd5b600084905060008490506000849050600062253d8c60046064600c600e876115ff9190612206565b611609919061219c565b6113248861161791906120e0565b61162191906120e0565b61162b919061219c565b60036116379190612124565b611641919061219c565b600c80600c600e886116539190612206565b61165d919061219c565b6116679190612124565b6002876116749190612206565b61167e9190612206565b61016f61168b9190612124565b611695919061219c565b6004600c600e886116a69190612206565b6116b0919061219c565b6112c0896116be91906120e0565b6116c891906120e0565b6105b56116d59190612124565b6116df919061219c565b617d4b866116ed9190612206565b6116f791906120e0565b61170191906120e0565b61170b9190612206565b6117159190612206565b9050809450505050509392505050565b600033905090565b60008060048361173d9190612063565b148015611757575060006064836117549190612063565b14155b8061176f575060006101908361176d9190612063565b145b9050919050565b6000819050919050565b61178981611776565b82525050565b60006020820190506117a46000830184611780565b92915050565b600080fd5b6117b881611776565b81146117c357600080fd5b50565b6000813590506117d5816117af565b92915050565b600080604083850312156117f2576117f16117aa565b5b6000611800858286016117c6565b9250506020611811858286016117c6565b9150509250929050565b600060208284031215611831576118306117aa565b5b600061183f848285016117c6565b91505092915050565b60008115159050919050565b61185d81611848565b82525050565b6000819050919050565b61187681611863565b82525050565b60006080820190506118916000830187611780565b61189e6020830186611854565b6118ab6040830185611854565b6118b8606083018461186d565b95945050505050565b6118ca81611863565b81146118d557600080fd5b50565b6000813590506118e7816118c1565b92915050565b600060208284031215611903576119026117aa565b5b6000611911848285016118d8565b91505092915050565b600073ffffffffffffffffffffffffffffffffffffffff82169050919050565b60006119458261191a565b9050919050565b6119558161193a565b82525050565b6000602082019050611970600083018461194c565b92915050565b600081519050919050565b600082825260208201905092915050565b60005b838110156119b0578082015181840152602081019050611995565b60008484015250505050565b6000601f19601f8301169050919050565b60006119d882611976565b6119e28185611981565b93506119f2818560208601611992565b6119fb816119bc565b840191505092915050565b60006020820190508181036000830152611a2081846119cd565b905092915050565b600081519050919050565b600082825260208201905092915050565b6000819050602082019050919050565b611a5d81611776565b82525050565b611a6c81611848565b82525050565b611a7b81611863565b82525050565b608082016000820151611a976000850182611a54565b506020820151611aaa6020850182611a63565b506040820151611abd6040850182611a63565b506060820151611ad06060850182611a72565b50505050565b6000611ae28383611a81565b60808301905092915050565b6000602082019050919050565b6000611b0682611a28565b611b108185611a33565b9350611b1b83611a44565b8060005b83811015611b4c578151611b338882611ad6565b9750611b3e83611aee565b925050600181019050611b1f565b5085935050505092915050565b60006020820190508181036000830152611b738184611afb565b905092915050565b611b848161193a565b8114611b8f57600080fd5b50565b600081359050611ba181611b7b565b92915050565b600060208284031215611bbd57611bbc6117aa565b5b6000611bcb84828501611b92565b91505092915050565b7f57616c6c6574206e6f7420616c6c6f7765640000000000000000000000000000600082015250565b6000611c0a601283611981565b9150611c1582611bd4565b602082019050919050565b60006020820190508181036000830152611c3981611bfd565b9050919050565b7f4e487b7100000000000000000000000000000000000000000000000000000000600052601160045260246000fd5b6000611c7a82611776565b9150611c8583611776565b9250828203905081811115611c9d57611c9c611c40565b5b92915050565b7f4e487b7100000000000000000000000000000000000000000000000000000000600052603260045260246000fd5b7f5061796572206e6f7420616c6c6f776564000000000000000000000000000000600082015250565b6000611d08601183611981565b9150611d1382611cd2565b602082019050919050565b60006020820190508181036000830152611d3781611cfb565b9050919050565b7f546865206c656173652068617320657870697265640000000000000000000000600082015250565b6000611d74601583611981565b9150611d7f82611d3e565b602082019050919050565b60006020820190508181036000830152611da381611d67565b9050919050565b6000606082019050611dbf600083018661194c565b611dcc602083018561194c565b611dd96040830184611780565b949350505050565b611dea81611848565b8114611df557600080fd5b50565b600081519050611e0781611de1565b92915050565b600060208284031215611e2357611e226117aa565b5b6000611e3184828501611df8565b91505092915050565b7f4661696c656420746f2073656e64207468652072656e74000000000000000000600082015250565b6000611e70601783611981565b9150611e7b82611e3a565b602082019050919050565b60006020820190508181036000830152611e9f81611e63565b9050919050565b6000606082019050611ebb6000830186611780565b611ec86020830185611780565b611ed56040830184611854565b949350505050565b6000611ee882611776565b9150611ef383611776565b9250828201905080821115611f0b57611f0a611c40565b5b92915050565b7f4e487b7100000000000000000000000000000000000000000000000000000000600052602260045260246000fd5b60006002820490506001821680611f5857607f821691505b602082108103611f6b57611f6a611f11565b5b50919050565b7f4f6e6c7920746865206c616e646c6f726420697320616c6c6f77656420746f2060008201527f706572666f726d2074686973206f7065726174696f6e00000000000000000000602082015250565b6000611fcd603683611981565b9150611fd882611f71565b604082019050919050565b60006020820190508181036000830152611ffc81611fc0565b9050919050565b7f4e487b7100000000000000000000000000000000000000000000000000000000600052601260045260246000fd5b600061203d82611776565b915061204883611776565b92508261205857612057612003565b5b828204905092915050565b600061206e82611776565b915061207983611776565b92508261208957612088612003565b5b828206905092915050565b600061209f82611776565b91506120aa83611776565b92508282026120b881611776565b915082820484148315176120cf576120ce611c40565b5b5092915050565b6000819050919050565b60006120eb826120d6565b91506120f6836120d6565b92508282019050828112156000831216838212600084121516171561211e5761211d611c40565b5b92915050565b600061212f826120d6565b915061213a836120d6565b9250828202612148816120d6565b91507f800000000000000000000000000000000000000000000000000000000000000084146000841216156121805761217f611c40565b5b828205841483151761219557612194611c40565b5b5092915050565b60006121a7826120d6565b91506121b2836120d6565b9250826121c2576121c1612003565b5b600160000383147f8000000000000000000000000000000000000000000000000000000000000000831416156121fb576121fa611c40565b5b828205905092915050565b6000612211826120d6565b915061221c836120d6565b925082820390508181126000841216828213600085121516171561224357612242611c40565b5b9291505056fea264697066735822122099cd95809e7a76559c66207fc37dfd1164433a0fd14491d5e5e9dbbd329c14f264736f6c634300081c0033",
  "linkReferences": {},
  "deployedLinkReferences": {}
}