{
  "_format": "hh-sol-artifact-1",
  "contractName": "Rental",
  "sourceName": "contracts/rental.sol",
  "abi": [
    {
      "inputs": [
        {
          "internalType": "uint256",
          "name": "_payDate",
          "type": "uint256"
        },
        {
          "internalType": "uint256",
          "name": "_expectedRent",
          "type": "uint256"
        },
        {
          "internalType": "address",
          "name": "_renter",
          "type": "address"
        },
        {
          "internalType": "address",
          "name": "_landlord",
          "type": "address"
        },
        {
          "internalType": "uint256",
          "name": "_startDate",
          "type": "uint256"
        },
        {
          "internalType": "uint256",
          "name": "_endDate",
          "type": "uint256"
        }
      ],
      "stateMutability": "nonpayable",
      "type": "constructor"
    },
    {
      "inputs": [
        {
          "internalType": "address",
          "name": "owner",
          "type": "address"
        }
      ],
      "name": "OwnableInvalidOwner",
      "type": "error"
    },
    {
      "inputs": [
        {
          "internalType": "address",
          "name": "account",
          "type": "address"
        }
      ],
      "name": "OwnableUnauthorizedAccount",
      "type": "error"
    },
    {
      "inputs": [],
      "name": "ReentrancyGuardReentrantCall",
      "type": "error"
    },
    {
      "anonymous": false,
      "inputs": [
        {
          "indexed": true,
          "internalType": "uint256",
          "name": "endDate",
          "type": "uint256"
        },
        {
          "indexed": false,
          "internalType": "address",
          "name": "owner",
          "type": "address"
        }
      ],
      "name": "NewEnd",
      "type": "event"
    },
    {
      "anonymous": false,
      "inputs": [
        {
          "indexed": true,
          "internalType": "uint256",
          "name": "payDate",
          "type": "uint256"
        },
        {
          "indexed": true,
          "internalType": "address",
          "name": "renter",
          "type": "address"
        }
      ],
      "name": "NewPayDate",
      "type": "event"
    },
    {
      "anonymous": false,
      "inputs": [
        {
          "indexed": true,
          "internalType": "address",
          "name": "previousOwner",
          "type": "address"
        },
        {
          "indexed": true,
          "internalType": "address",
          "name": "newOwner",
          "type": "address"
        }
      ],
      "name": "OwnershipTransferred",
      "type": "event"
    },
    {
      "anonymous": false,
      "inputs": [
        {
          "indexed": false,
          "internalType": "uint256",
          "name": "payDate",
          "type": "uint256"
        },
        {
          "indexed": false,
          "internalType": "uint256",
          "name": "amount",
          "type": "uint256"
        },
        {
          "indexed": true,
          "internalType": "address",
          "name": "renter",
          "type": "address"
        },
        {
          "indexed": false,
          "internalType": "bool",
          "name": "onTime",
          "type": "bool"
        }
      ],
      "name": "RentPaid",
      "type": "event"
    },
    {
      "anonymous": false,
      "inputs": [
        {
          "indexed": true,
          "internalType": "uint256",
          "name": "newRent",
          "type": "uint256"
        },
        {
          "indexed": false,
          "internalType": "address",
          "name": "landlord",
          "type": "address"
        }
      ],
      "name": "RentUpdate",
      "type": "event"
    },
    {
      "inputs": [
        {
          "internalType": "address",
          "name": "",
          "type": "address"
        },
        {
          "internalType": "uint256",
          "name": "",
          "type": "uint256"
        }
      ],
      "name": "attestationsByTenant",
      "outputs": [
        {
          "internalType": "bytes32",
          "name": "",
          "type": "bytes32"
        }
      ],
      "stateMutability": "view",
      "type": "function"
    },
    {
      "inputs": [],
      "name": "checkRent",
      "outputs": [
        {
          "internalType": "uint256",
          "name": "",
          "type": "uint256"
        }
      ],
      "stateMutability": "view",
      "type": "function"
    },
    {
      "inputs": [],
      "name": "endDate",
      "outputs": [
        {
          "internalType": "uint256",
          "name": "",
          "type": "uint256"
        }
      ],
      "stateMutability": "view",
      "type": "function"
    },
    {
      "inputs": [],
      "name": "getLandlord",
      "outputs": [
        {
          "internalType": "address",
          "name": "",
          "type": "address"
        }
      ],
      "stateMutability": "view",
      "type": "function"
    },
    {
      "inputs": [],
      "name": "getPayments",
      "outputs": [
        {
          "components": [
            {
              "internalType": "uint256",
              "name": "date",
              "type": "uint256"
            },
            {
              "internalType": "bool",
              "name": "paid",
              "type": "bool"
            }
          ],
          "internalType": "struct Rental.Payment[]",
          "name": "",
          "type": "tuple[]"
        }
      ],
      "stateMutability": "view",
      "type": "function"
    },
    {
      "inputs": [],
      "name": "getScore",
      "outputs": [
        {
          "internalType": "uint256",
          "name": "",
          "type": "uint256"
        }
      ],
      "stateMutability": "view",
      "type": "function"
    },
    {
      "inputs": [],
      "name": "owner",
      "outputs": [
        {
          "internalType": "address",
          "name": "",
          "type": "address"
        }
      ],
      "stateMutability": "view",
      "type": "function"
    },
    {
      "inputs": [],
      "name": "payDate",
      "outputs": [
        {
          "internalType": "uint256",
          "name": "",
          "type": "uint256"
        }
      ],
      "stateMutability": "view",
      "type": "function"
    },
    {
      "inputs": [],
      "name": "payRent",
      "outputs": [],
      "stateMutability": "payable",
      "type": "function"
    },
    {
      "inputs": [
        {
          "internalType": "uint256",
          "name": "",
          "type": "uint256"
        }
      ],
      "name": "paymentSchedule",
      "outputs": [
        {
          "internalType": "uint256",
          "name": "date",
          "type": "uint256"
        },
        {
          "internalType": "bool",
          "name": "paid",
          "type": "bool"
        }
      ],
      "stateMutability": "view",
      "type": "function"
    },
    {
      "inputs": [
        {
          "internalType": "uint256",
          "name": "pd",
          "type": "uint256"
        },
        {
          "internalType": "uint256",
          "name": "endLease",
          "type": "uint256"
        }
      ],
      "name": "populateSchedule",
      "outputs": [],
      "stateMutability": "nonpayable",
      "type": "function"
    },
    {
      "inputs": [],
      "name": "renounceOwnership",
      "outputs": [],
      "stateMutability": "nonpayable",
      "type": "function"
    },
    {
      "inputs": [],
      "name": "sendNotice",
      "outputs": [],
      "stateMutability": "nonpayable",
      "type": "function"
    },
    {
      "inputs": [],
      "name": "startDate",
      "outputs": [
        {
          "internalType": "uint256",
          "name": "",
          "type": "uint256"
        }
      ],
      "stateMutability": "view",
      "type": "function"
    },
    {
      "inputs": [
        {
          "internalType": "bytes32",
          "name": "attestationId",
          "type": "bytes32"
        }
      ],
      "name": "storeAttestation",
      "outputs": [],
      "stateMutability": "nonpayable",
      "type": "function"
    },
    {
      "inputs": [
        {
          "internalType": "address",
          "name": "newOwner",
          "type": "address"
        }
      ],
      "name": "transferOwnership",
      "outputs": [],
      "stateMutability": "nonpayable",
      "type": "function"
    },
    {
      "inputs": [
        {
          "internalType": "uint256",
          "name": "_newDate",
          "type": "uint256"
        }
      ],
      "name": "updateExpiry",
      "outputs": [],
      "stateMutability": "nonpayable",
      "type": "function"
    },
    {
      "inputs": [
        {
          "internalType": "uint256",
          "name": "_newRent",
          "type": "uint256"
        }
      ],
      "name": "updateRent",
      "outputs": [],
      "stateMutability": "nonpayable",
      "type": "function"
    }
  ],
  "bytecode": "0x608060405234801561001057600080fd5b5060405161202038038061202083398181016040528101906100329190610376565b836001600081905550600073ffffffffffffffffffffffffffffffffffffffff168173ffffffffffffffffffffffffffffffffffffffff16036100ad5760006040517f1e4fbdf70000000000000000000000000000000000000000000000000000000081526004016100a49190610412565b60405180910390fd5b6100bc8161018660201b60201c565b50856003819055508460028190555083600760006101000a81548173ffffffffffffffffffffffffffffffffffffffff021916908373ffffffffffffffffffffffffffffffffffffffff16021790555082600860006101000a81548173ffffffffffffffffffffffffffffffffffffffff021916908373ffffffffffffffffffffffffffffffffffffffff16021790555060646006819055508160048190555080600581905550610173868261024c60201b60201c565b6000600b81905550505050505050610490565b6000600160009054906101000a900473ffffffffffffffffffffffffffffffffffffffff16905081600160006101000a81548173ffffffffffffffffffffffffffffffffffffffff021916908373ffffffffffffffffffffffffffffffffffffffff1602179055508173ffffffffffffffffffffffffffffffffffffffff168173ffffffffffffffffffffffffffffffffffffffff167f8be0079c531659141344cd1fd0a4f28419497f9722a3daafe3b4186f6b6457e060405160405180910390a35050565b5b8082116102d957600a60405180604001604052808481526020016000151581525090806001815401808255809150506001900390600052602060002090600202016000909190919091506000820151816000015560208201518160010160006101000a81548160ff021916908315150217905550505062278d00826102d2919061045c565b915061024d565b5050565b600080fd5b6000819050919050565b6102f5816102e2565b811461030057600080fd5b50565b600081519050610312816102ec565b92915050565b600073ffffffffffffffffffffffffffffffffffffffff82169050919050565b600061034382610318565b9050919050565b61035381610338565b811461035e57600080fd5b50565b6000815190506103708161034a565b92915050565b60008060008060008060c08789031215610393576103926102dd565b5b60006103a189828a01610303565b96505060206103b289828a01610303565b95505060406103c389828a01610361565b94505060606103d489828a01610361565b93505060806103e589828a01610303565b92505060a06103f689828a01610303565b9150509295509295509295565b61040c81610338565b82525050565b60006020820190506104276000830184610403565b92915050565b7f4e487b7100000000000000000000000000000000000000000000000000000000600052601160045260246000fd5b6000610467826102e2565b9150610472836102e2565b925082820190508082111561048a5761048961042d565b5b92915050565b611b818061049f6000396000f3fe6080604052600436106101095760003560e01c8063a709c4fe11610095578063d359f82c11610064578063d359f82c14610315578063d56bd1421461033e578063eb9220ab14610369578063f2fde38b14610392578063f502236d146103bb57610109565b8063a709c4fe14610278578063afd8206714610282578063bb82e578146102ad578063c24a0f8b146102ea57610109565b806342525d5d116100dc57806342525d5d146101b757806357ef9b6a146101e0578063715018a61461020b5780638da5cb5b146102225780639b332a911461024d57610109565b80630b97bc861461010e5780631979cd13146101395780631e60c5371461015057806321dd22d114610179575b600080fd5b34801561011a57600080fd5b506101236103e6565b604051610130919061130a565b60405180910390f35b34801561014557600080fd5b5061014e6103ec565b005b34801561015c57600080fd5b5061017760048036038101906101729190611356565b6104d6565b005b34801561018557600080fd5b506101a0600480360381019061019b9190611396565b610567565b6040516101ae9291906113de565b60405180910390f35b3480156101c357600080fd5b506101de60048036038101906101d9919061143d565b6105a8565b005b3480156101ec57600080fd5b506101f56106f9565b604051610202919061130a565b60405180910390f35b34801561021757600080fd5b506102206107eb565b005b34801561022e57600080fd5b506102376107ff565b60405161024491906114ab565b60405180910390f35b34801561025957600080fd5b50610262610829565b60405161026f919061130a565b60405180910390f35b61028061082f565b005b34801561028e57600080fd5b50610297610bba565b6040516102a4919061130a565b60405180910390f35b3480156102b957600080fd5b506102d460048036038101906102cf91906114f2565b610cac565b6040516102e19190611541565b60405180910390f35b3480156102f657600080fd5b506102ff610cdd565b60405161030c919061130a565b60405180910390f35b34801561032157600080fd5b5061033c60048036038101906103379190611396565b610ce3565b005b34801561034a57600080fd5b50610353610db7565b6040516103609190611658565b60405180910390f35b34801561037557600080fd5b50610390600480360381019061038b9190611396565b610e3b565b005b34801561039e57600080fd5b506103b960048036038101906103b4919061167a565b610f0d565b005b3480156103c757600080fd5b506103d0610f93565b6040516103dd91906114ab565b60405180910390f35b60045481565b600760009054906101000a900473ffffffffffffffffffffffffffffffffffffffff1673ffffffffffffffffffffffffffffffffffffffff163373ffffffffffffffffffffffffffffffffffffffff1614806104955750600860009054906101000a900473ffffffffffffffffffffffffffffffffffffffff1673ffffffffffffffffffffffffffffffffffffffff163373ffffffffffffffffffffffffffffffffffffffff16145b6104d4576040517f08c379a00000000000000000000000000000000000000000000000000000000081526004016104cb90611704565b60405180910390fd5b565b5b80821161056357600a60405180604001604052808481526020016000151581525090806001815401808255809150506001900390600052602060002090600202016000909190919091506000820151816000015560208201518160010160006101000a81548160ff021916908315150217905550505062278d008261055c9190611753565b91506104d7565b5050565b600a818154811061057757600080fd5b90600052602060002090600202016000915090508060000154908060010160009054906101000a900460ff16905082565b600760009054906101000a900473ffffffffffffffffffffffffffffffffffffffff1673ffffffffffffffffffffffffffffffffffffffff163373ffffffffffffffffffffffffffffffffffffffff1614806106515750600860009054906101000a900473ffffffffffffffffffffffffffffffffffffffff1673ffffffffffffffffffffffffffffffffffffffff163373ffffffffffffffffffffffffffffffffffffffff16145b610690576040517f08c379a000000000000000000000000000000000000000000000000000000000815260040161068790611704565b60405180910390fd5b600960003373ffffffffffffffffffffffffffffffffffffffff1673ffffffffffffffffffffffffffffffffffffffff16815260200190815260200160002081908060018154018082558091505060019003906000526020600020016000909190919091505550565b6000600760009054906101000a900473ffffffffffffffffffffffffffffffffffffffff1673ffffffffffffffffffffffffffffffffffffffff163373ffffffffffffffffffffffffffffffffffffffff1614806107a45750600860009054906101000a900473ffffffffffffffffffffffffffffffffffffffff1673ffffffffffffffffffffffffffffffffffffffff163373ffffffffffffffffffffffffffffffffffffffff16145b6107e3576040517f08c379a00000000000000000000000000000000000000000000000000000000081526004016107da90611704565b60405180910390fd5b600254905090565b6107f36110a5565b6107fd600061112c565b565b6000600160009054906101000a900473ffffffffffffffffffffffffffffffffffffffff16905090565b60035481565b6108376111f2565b6000600760009054906101000a900473ffffffffffffffffffffffffffffffffffffffff1673ffffffffffffffffffffffffffffffffffffffff163373ffffffffffffffffffffffffffffffffffffffff16146108c9576040517f08c379a00000000000000000000000000000000000000000000000000000000081526004016108c0906117d3565b60405180910390fd5b600254341461090d576040517f08c379a00000000000000000000000000000000000000000000000000000000081526004016109049061183f565b60405180910390fd5b600554421115610952576040517f08c379a0000000000000000000000000000000000000000000000000000000008152600401610949906118ab565b60405180910390fd5b6000600860009054906101000a900473ffffffffffffffffffffffffffffffffffffffff1673ffffffffffffffffffffffffffffffffffffffff163460405161099a906118fc565b60006040518083038185875af1925050503d80600081146109d7576040519150601f19603f3d011682016040523d82523d6000602084013e6109dc565b606091505b5050905080610a20576040517f08c379a0000000000000000000000000000000000000000000000000000000008152600401610a179061195d565b60405180910390fd5b610a2a6001611238565b9150600760009054906101000a900473ffffffffffffffffffffffffffffffffffffffff1673ffffffffffffffffffffffffffffffffffffffff167fdaa6426225fa3d467a9286f8d7ba9eab9344ed25a3c4455c9bd9d7191ecb9f53600a600b5481548110610a9c57610a9b61197d565b5b9060005260206000209060020201600001543485604051610abf939291906119ac565b60405180910390a26001600a600b5481548110610adf57610ade61197d565b5b906000526020600020906002020160010160006101000a81548160ff0219169083151502179055506001600b6000828254610b1a9190611753565b92505081905550600760009054906101000a900473ffffffffffffffffffffffffffffffffffffffff1673ffffffffffffffffffffffffffffffffffffffff16600a600b5481548110610b7057610b6f61197d565b5b9060005260206000209060020201600001547fc4cfadff292c5ae98f722bf64f2b796e63c8b127eec85447beaa33278703c87a60405160405180910390a35050610bb86112df565b565b6000600760009054906101000a900473ffffffffffffffffffffffffffffffffffffffff1673ffffffffffffffffffffffffffffffffffffffff163373ffffffffffffffffffffffffffffffffffffffff161480610c655750600860009054906101000a900473ffffffffffffffffffffffffffffffffffffffff1673ffffffffffffffffffffffffffffffffffffffff163373ffffffffffffffffffffffffffffffffffffffff16145b610ca4576040517f08c379a0000000000000000000000000000000000000000000000000000000008152600401610c9b90611704565b60405180910390fd5b600654905090565b60096020528160005260406000208181548110610cc857600080fd5b90600052602060002001600091509150505481565b60055481565b600860009054906101000a900473ffffffffffffffffffffffffffffffffffffffff1673ffffffffffffffffffffffffffffffffffffffff163373ffffffffffffffffffffffffffffffffffffffff1614610d73576040517f08c379a0000000000000000000000000000000000000000000000000000000008152600401610d6a90611a55565b60405180910390fd5b806005819055506005547f1e9300ca5a9796c5241a9179ea7078806d81321510ec101d80bc8b3bb34b1bbe33604051610dac91906114ab565b60405180910390a250565b6060600a805480602002602001604051908101604052809291908181526020016000905b82821015610e325783829060005260206000209060020201604051806040016040529081600082015481526020016001820160009054906101000a900460ff16151515158152505081526020019060010190610ddb565b50505050905090565b600860009054906101000a900473ffffffffffffffffffffffffffffffffffffffff1673ffffffffffffffffffffffffffffffffffffffff163373ffffffffffffffffffffffffffffffffffffffff1614610ecb576040517f08c379a0000000000000000000000000000000000000000000000000000000008152600401610ec290611a55565b60405180910390fd5b80600281905550807f92db6122fb059af80b30cb7ddb63563f1eb91b94fd91d45834adf27bbc7bb84133604051610f0291906114ab565b60405180910390a250565b610f156110a5565b600073ffffffffffffffffffffffffffffffffffffffff168173ffffffffffffffffffffffffffffffffffffffff1603610f875760006040517f1e4fbdf7000000000000000000000000000000000000000000000000000000008152600401610f7e91906114ab565b60405180910390fd5b610f908161112c565b50565b6000600760009054906101000a900473ffffffffffffffffffffffffffffffffffffffff1673ffffffffffffffffffffffffffffffffffffffff163373ffffffffffffffffffffffffffffffffffffffff16148061103e5750600860009054906101000a900473ffffffffffffffffffffffffffffffffffffffff1673ffffffffffffffffffffffffffffffffffffffff163373ffffffffffffffffffffffffffffffffffffffff16145b61107d576040517f08c379a000000000000000000000000000000000000000000000000000000000815260040161107490611704565b60405180910390fd5b600860009054906101000a900473ffffffffffffffffffffffffffffffffffffffff16905090565b6110ad6112e9565b73ffffffffffffffffffffffffffffffffffffffff166110cb6107ff565b73ffffffffffffffffffffffffffffffffffffffff161461112a576110ee6112e9565b6040517f118cdaa700000000000000000000000000000000000000000000000000000000815260040161112191906114ab565b60405180910390fd5b565b6000600160009054906101000a900473ffffffffffffffffffffffffffffffffffffffff16905081600160006101000a81548173ffffffffffffffffffffffffffffffffffffffff021916908373ffffffffffffffffffffffffffffffffffffffff1602179055508173ffffffffffffffffffffffffffffffffffffffff168173ffffffffffffffffffffffffffffffffffffffff167f8be0079c531659141344cd1fd0a4f28419497f9722a3daafe3b4186f6b6457e060405160405180910390a35050565b60026000540361122e576040517f3ee5aeb500000000000000000000000000000000000000000000000000000000815260040160405180910390fd5b6002600081905550565b600080620151808361124a9190611a75565b6003546112579190611753565b90508042106112ba5760006201518082426112729190611ab7565b61127c9190611b1a565b90508060065410156112955760006006819055506112af565b80600660008282546112a79190611ab7565b925050819055505b6000925050506112da565b600a600660008282546112cd9190611753565b9250508190555060019150505b919050565b6001600081905550565b600033905090565b6000819050919050565b611304816112f1565b82525050565b600060208201905061131f60008301846112fb565b92915050565b600080fd5b611333816112f1565b811461133e57600080fd5b50565b6000813590506113508161132a565b92915050565b6000806040838503121561136d5761136c611325565b5b600061137b85828601611341565b925050602061138c85828601611341565b9150509250929050565b6000602082840312156113ac576113ab611325565b5b60006113ba84828501611341565b91505092915050565b60008115159050919050565b6113d8816113c3565b82525050565b60006040820190506113f360008301856112fb565b61140060208301846113cf565b9392505050565b6000819050919050565b61141a81611407565b811461142557600080fd5b50565b60008135905061143781611411565b92915050565b60006020828403121561145357611452611325565b5b600061146184828501611428565b91505092915050565b600073ffffffffffffffffffffffffffffffffffffffff82169050919050565b60006114958261146a565b9050919050565b6114a58161148a565b82525050565b60006020820190506114c0600083018461149c565b92915050565b6114cf8161148a565b81146114da57600080fd5b50565b6000813590506114ec816114c6565b92915050565b6000806040838503121561150957611508611325565b5b6000611517858286016114dd565b925050602061152885828601611341565b9150509250929050565b61153b81611407565b82525050565b60006020820190506115566000830184611532565b92915050565b600081519050919050565b600082825260208201905092915050565b6000819050602082019050919050565b611591816112f1565b82525050565b6115a0816113c3565b82525050565b6040820160008201516115bc6000850182611588565b5060208201516115cf6020850182611597565b50505050565b60006115e183836115a6565b60408301905092915050565b6000602082019050919050565b60006116058261155c565b61160f8185611567565b935061161a83611578565b8060005b8381101561164b57815161163288826115d5565b975061163d836115ed565b92505060018101905061161e565b5085935050505092915050565b6000602082019050818103600083015261167281846115fa565b905092915050565b6000602082840312156116905761168f611325565b5b600061169e848285016114dd565b91505092915050565b600082825260208201905092915050565b7f57616c6c6574206e6f7420616c6c6f7765640000000000000000000000000000600082015250565b60006116ee6012836116a7565b91506116f9826116b8565b602082019050919050565b6000602082019050818103600083015261171d816116e1565b9050919050565b7f4e487b7100000000000000000000000000000000000000000000000000000000600052601160045260246000fd5b600061175e826112f1565b9150611769836112f1565b925082820190508082111561178157611780611724565b5b92915050565b7f5061796572206e6f7420616c6c6f776564000000000000000000000000000000600082015250565b60006117bd6011836116a7565b91506117c882611787565b602082019050919050565b600060208201905081810360008301526117ec816117b0565b9050919050565b7f57726f6e672072656e7420616d6f756e74000000000000000000000000000000600082015250565b60006118296011836116a7565b9150611834826117f3565b602082019050919050565b600060208201905081810360008301526118588161181c565b9050919050565b7f546865206c656173652068617320657870697265640000000000000000000000600082015250565b60006118956015836116a7565b91506118a08261185f565b602082019050919050565b600060208201905081810360008301526118c481611888565b9050919050565b600081905092915050565b50565b60006118e66000836118cb565b91506118f1826118d6565b600082019050919050565b6000611907826118d9565b9150819050919050565b7f4661696c656420746f2073656e64207468652072656e74000000000000000000600082015250565b60006119476017836116a7565b915061195282611911565b602082019050919050565b600060208201905081810360008301526119768161193a565b9050919050565b7f4e487b7100000000000000000000000000000000000000000000000000000000600052603260045260246000fd5b60006060820190506119c160008301866112fb565b6119ce60208301856112fb565b6119db60408301846113cf565b949350505050565b7f4f6e6c7920746865206c616e646c6f726420697320616c6c6f77656420746f2060008201527f706572666f726d2074686973206f7065726174696f6e00000000000000000000602082015250565b6000611a3f6036836116a7565b9150611a4a826119e3565b604082019050919050565b60006020820190508181036000830152611a6e81611a32565b9050919050565b6000611a80826112f1565b9150611a8b836112f1565b9250828202611a99816112f1565b91508282048414831517611ab057611aaf611724565b5b5092915050565b6000611ac2826112f1565b9150611acd836112f1565b9250828203905081811115611ae557611ae4611724565b5b92915050565b7f4e487b7100000000000000000000000000000000000000000000000000000000600052601260045260246000fd5b6000611b25826112f1565b9150611b30836112f1565b925082611b4057611b3f611aeb565b5b82820490509291505056fea264697066735822122039ea27bf355dca7f16278228762b84d04b1b2e277aa31afb5a03b1211fae9a5864736f6c634300081c0033",
  "linkReferences": {},
  "deployedLinkReferences": {}
}