{
  "_format": "hh-sol-artifact-1",
  "contractName": "Rental",
  "sourceName": "contracts/rental.sol",
  "abi": [
    {
      "inputs": [
        {
          "internalType": "uint256",
          "name": "_payDate",
          "type": "uint256"
        },
        {
          "internalType": "uint256",
          "name": "_expectedRent",
          "type": "uint256"
        },
        {
          "internalType": "address",
          "name": "_renter",
          "type": "address"
        },
        {
          "internalType": "address",
          "name": "_landlord",
          "type": "address"
        },
        {
          "internalType": "uint256",
          "name": "_startDate",
          "type": "uint256"
        },
        {
          "internalType": "uint256",
          "name": "_endDate",
          "type": "uint256"
        },
        {
          "internalType": "string",
          "name": "_loc",
          "type": "string"
        }
      ],
      "stateMutability": "nonpayable",
      "type": "constructor"
    },
    {
      "inputs": [
        {
          "internalType": "address",
          "name": "owner",
          "type": "address"
        }
      ],
      "name": "OwnableInvalidOwner",
      "type": "error"
    },
    {
      "inputs": [
        {
          "internalType": "address",
          "name": "account",
          "type": "address"
        }
      ],
      "name": "OwnableUnauthorizedAccount",
      "type": "error"
    },
    {
      "inputs": [],
      "name": "ReentrancyGuardReentrantCall",
      "type": "error"
    },
    {
      "anonymous": false,
      "inputs": [
        {
          "indexed": true,
          "internalType": "uint256",
          "name": "endDate",
          "type": "uint256"
        },
        {
          "indexed": false,
          "internalType": "address",
          "name": "owner",
          "type": "address"
        }
      ],
      "name": "NewEnd",
      "type": "event"
    },
    {
      "anonymous": false,
      "inputs": [
        {
          "indexed": true,
          "internalType": "uint256",
          "name": "payDate",
          "type": "uint256"
        },
        {
          "indexed": true,
          "internalType": "address",
          "name": "renter",
          "type": "address"
        }
      ],
      "name": "NewPayDate",
      "type": "event"
    },
    {
      "anonymous": false,
      "inputs": [
        {
          "indexed": true,
          "internalType": "address",
          "name": "previousOwner",
          "type": "address"
        },
        {
          "indexed": true,
          "internalType": "address",
          "name": "newOwner",
          "type": "address"
        }
      ],
      "name": "OwnershipTransferred",
      "type": "event"
    },
    {
      "anonymous": false,
      "inputs": [
        {
          "indexed": false,
          "internalType": "uint256",
          "name": "payDate",
          "type": "uint256"
        },
        {
          "indexed": false,
          "internalType": "uint256",
          "name": "amount",
          "type": "uint256"
        },
        {
          "indexed": true,
          "internalType": "address",
          "name": "renter",
          "type": "address"
        },
        {
          "indexed": false,
          "internalType": "bool",
          "name": "onTime",
          "type": "bool"
        }
      ],
      "name": "RentPaid",
      "type": "event"
    },
    {
      "anonymous": false,
      "inputs": [
        {
          "indexed": true,
          "internalType": "uint256",
          "name": "newRent",
          "type": "uint256"
        },
        {
          "indexed": false,
          "internalType": "address",
          "name": "landlord",
          "type": "address"
        }
      ],
      "name": "RentUpdate",
      "type": "event"
    },
    {
      "inputs": [],
      "name": "checkRent",
      "outputs": [
        {
          "internalType": "uint256",
          "name": "",
          "type": "uint256"
        }
      ],
      "stateMutability": "view",
      "type": "function"
    },
    {
      "inputs": [],
      "name": "endDate",
      "outputs": [
        {
          "internalType": "uint256",
          "name": "",
          "type": "uint256"
        }
      ],
      "stateMutability": "view",
      "type": "function"
    },
    {
      "inputs": [],
      "name": "getLandlord",
      "outputs": [
        {
          "internalType": "address",
          "name": "",
          "type": "address"
        }
      ],
      "stateMutability": "view",
      "type": "function"
    },
    {
      "inputs": [],
      "name": "getPayments",
      "outputs": [
        {
          "components": [
            {
              "internalType": "uint256",
              "name": "date",
              "type": "uint256"
            },
            {
              "internalType": "bool",
              "name": "paid",
              "type": "bool"
            },
            {
              "internalType": "bool",
              "name": "onTime",
              "type": "bool"
            }
          ],
          "internalType": "struct Rental.Payment[]",
          "name": "",
          "type": "tuple[]"
        }
      ],
      "stateMutability": "view",
      "type": "function"
    },
    {
      "inputs": [],
      "name": "getScore",
      "outputs": [
        {
          "internalType": "uint256",
          "name": "",
          "type": "uint256"
        }
      ],
      "stateMutability": "view",
      "type": "function"
    },
    {
      "inputs": [],
      "name": "loc",
      "outputs": [
        {
          "internalType": "string",
          "name": "",
          "type": "string"
        }
      ],
      "stateMutability": "view",
      "type": "function"
    },
    {
      "inputs": [],
      "name": "owner",
      "outputs": [
        {
          "internalType": "address",
          "name": "",
          "type": "address"
        }
      ],
      "stateMutability": "view",
      "type": "function"
    },
    {
      "inputs": [],
      "name": "payDate",
      "outputs": [
        {
          "internalType": "uint256",
          "name": "",
          "type": "uint256"
        }
      ],
      "stateMutability": "view",
      "type": "function"
    },
    {
      "inputs": [],
      "name": "payRent",
      "outputs": [],
      "stateMutability": "payable",
      "type": "function"
    },
    {
      "inputs": [
        {
          "internalType": "uint256",
          "name": "",
          "type": "uint256"
        }
      ],
      "name": "paymentSchedule",
      "outputs": [
        {
          "internalType": "uint256",
          "name": "date",
          "type": "uint256"
        },
        {
          "internalType": "bool",
          "name": "paid",
          "type": "bool"
        },
        {
          "internalType": "bool",
          "name": "onTime",
          "type": "bool"
        }
      ],
      "stateMutability": "view",
      "type": "function"
    },
    {
      "inputs": [
        {
          "internalType": "uint256",
          "name": "pd",
          "type": "uint256"
        },
        {
          "internalType": "uint256",
          "name": "endLease",
          "type": "uint256"
        }
      ],
      "name": "populateSchedule",
      "outputs": [],
      "stateMutability": "nonpayable",
      "type": "function"
    },
    {
      "inputs": [],
      "name": "renounceOwnership",
      "outputs": [],
      "stateMutability": "nonpayable",
      "type": "function"
    },
    {
      "inputs": [],
      "name": "sendNotice",
      "outputs": [],
      "stateMutability": "nonpayable",
      "type": "function"
    },
    {
      "inputs": [],
      "name": "startDate",
      "outputs": [
        {
          "internalType": "uint256",
          "name": "",
          "type": "uint256"
        }
      ],
      "stateMutability": "view",
      "type": "function"
    },
    {
      "inputs": [
        {
          "internalType": "address",
          "name": "newOwner",
          "type": "address"
        }
      ],
      "name": "transferOwnership",
      "outputs": [],
      "stateMutability": "nonpayable",
      "type": "function"
    },
    {
      "inputs": [
        {
          "internalType": "uint256",
          "name": "_newDate",
          "type": "uint256"
        }
      ],
      "name": "updateExpiry",
      "outputs": [],
      "stateMutability": "nonpayable",
      "type": "function"
    },
    {
      "inputs": [
        {
          "internalType": "uint256",
          "name": "_newRent",
          "type": "uint256"
        }
      ],
      "name": "updateRent",
      "outputs": [],
      "stateMutability": "nonpayable",
      "type": "function"
    }
  ],
  "bytecode": "0x608060405234801561001057600080fd5b5060405161249638038061249683398181016040528101906100329190610520565b846001600081905550600073ffffffffffffffffffffffffffffffffffffffff168173ffffffffffffffffffffffffffffffffffffffff16036100ad5760006040517f1e4fbdf70000000000000000000000000000000000000000000000000000000081526004016100a491906105ed565b60405180910390fd5b6100bc8161019760201b60201c565b50866003819055508560028190555084600760006101000a81548173ffffffffffffffffffffffffffffffffffffffff021916908373ffffffffffffffffffffffffffffffffffffffff16021790555083600860006101000a81548173ffffffffffffffffffffffffffffffffffffffff021916908373ffffffffffffffffffffffffffffffffffffffff160217905550606460068190555082600481905550816005819055508060099081610172919061081f565b50610183878361025d60201b60201c565b6000600b8190555050505050505050610954565b6000600160009054906101000a900473ffffffffffffffffffffffffffffffffffffffff16905081600160006101000a81548173ffffffffffffffffffffffffffffffffffffffff021916908373ffffffffffffffffffffffffffffffffffffffff1602179055508173ffffffffffffffffffffffffffffffffffffffff168173ffffffffffffffffffffffffffffffffffffffff167f8be0079c531659141344cd1fd0a4f28419497f9722a3daafe3b4186f6b6457e060405160405180910390a35050565b5b80821161031357600a60405180606001604052808481526020016000151581526020016000151581525090806001815401808255809150506001900390600052602060002090600202016000909190919091506000820151816000015560208201518160010160006101000a81548160ff02191690831515021790555060408201518160010160016101000a81548160ff021916908315150217905550505062278d008261030c9190610920565b915061025e565b5050565b6000604051905090565b600080fd5b600080fd5b6000819050919050565b61033e8161032b565b811461034957600080fd5b50565b60008151905061035b81610335565b92915050565b600073ffffffffffffffffffffffffffffffffffffffff82169050919050565b600061038c82610361565b9050919050565b61039c81610381565b81146103a757600080fd5b50565b6000815190506103b981610393565b92915050565b600080fd5b600080fd5b6000601f19601f8301169050919050565b7f4e487b7100000000000000000000000000000000000000000000000000000000600052604160045260246000fd5b610412826103c9565b810181811067ffffffffffffffff82111715610431576104306103da565b5b80604052505050565b6000610444610317565b90506104508282610409565b919050565b600067ffffffffffffffff8211156104705761046f6103da565b5b610479826103c9565b9050602081019050919050565b60005b838110156104a4578082015181840152602081019050610489565b60008484015250505050565b60006104c36104be84610455565b61043a565b9050828152602081018484840111156104df576104de6103c4565b5b6104ea848285610486565b509392505050565b600082601f830112610507576105066103bf565b5b81516105178482602086016104b0565b91505092915050565b600080600080600080600060e0888a03121561053f5761053e610321565b5b600061054d8a828b0161034c565b975050602061055e8a828b0161034c565b965050604061056f8a828b016103aa565b95505060606105808a828b016103aa565b94505060806105918a828b0161034c565b93505060a06105a28a828b0161034c565b92505060c088015167ffffffffffffffff8111156105c3576105c2610326565b5b6105cf8a828b016104f2565b91505092959891949750929550565b6105e781610381565b82525050565b600060208201905061060260008301846105de565b92915050565b600081519050919050565b7f4e487b7100000000000000000000000000000000000000000000000000000000600052602260045260246000fd5b6000600282049050600182168061065a57607f821691505b60208210810361066d5761066c610613565b5b50919050565b60008190508160005260206000209050919050565b60006020601f8301049050919050565b600082821b905092915050565b6000600883026106d57fffffffffffffffffffffffffffffffffffffffffffffffffffffffffffffffff82610698565b6106df8683610698565b95508019841693508086168417925050509392505050565b6000819050919050565b600061071c6107176107128461032b565b6106f7565b61032b565b9050919050565b6000819050919050565b61073683610701565b61074a61074282610723565b8484546106a5565b825550505050565b600090565b61075f610752565b61076a81848461072d565b505050565b5b8181101561078e57610783600082610757565b600181019050610770565b5050565b601f8211156107d3576107a481610673565b6107ad84610688565b810160208510156107bc578190505b6107d06107c885610688565b83018261076f565b50505b505050565b600082821c905092915050565b60006107f6600019846008026107d8565b1980831691505092915050565b600061080f83836107e5565b9150826002028217905092915050565b61082882610608565b67ffffffffffffffff811115610841576108406103da565b5b61084b8254610642565b610856828285610792565b600060209050601f8311600181146108895760008415610877578287015190505b6108818582610803565b8655506108e9565b601f19841661089786610673565b60005b828110156108bf5784890151825560018201915060208501945060208101905061089a565b868310156108dc57848901516108d8601f8916826107e5565b8355505b6001600288020188555050505b505050505050565b7f4e487b7100000000000000000000000000000000000000000000000000000000600052601160045260246000fd5b600061092b8261032b565b91506109368361032b565b925082820190508082111561094e5761094d6108f1565b5b92915050565b611b33806109636000396000f3fe6080604052600436106100fe5760003560e01c8063a709c4fe11610095578063d359f82c11610064578063d359f82c146102d0578063d56bd142146102f9578063eb9220ab14610324578063f2fde38b1461034d578063f502236d14610376576100fe565b8063a709c4fe14610245578063abb078761461024f578063afd820671461027a578063c24a0f8b146102a5576100fe565b806357ef9b6a116100d157806357ef9b6a146101ad578063715018a6146101d85780638da5cb5b146101ef5780639b332a911461021a576100fe565b80630b97bc86146101035780631979cd131461012e5780631e60c5371461014557806321dd22d11461016e575b600080fd5b34801561010f57600080fd5b506101186103a1565b6040516101259190611267565b60405180910390f35b34801561013a57600080fd5b506101436103a7565b005b34801561015157600080fd5b5061016c600480360381019061016791906112b3565b610491565b005b34801561017a57600080fd5b50610195600480360381019061019091906112f3565b61054b565b6040516101a49392919061133b565b60405180910390f35b3480156101b957600080fd5b506101c261059f565b6040516101cf9190611267565b60405180910390f35b3480156101e457600080fd5b506101ed610691565b005b3480156101fb57600080fd5b506102046106a5565b60405161021191906113b3565b60405180910390f35b34801561022657600080fd5b5061022f6106cf565b60405161023c9190611267565b60405180910390f35b61024d6106d5565b005b34801561025b57600080fd5b50610264610a9f565b604051610271919061145e565b60405180910390f35b34801561028657600080fd5b5061028f610b2d565b60405161029c9190611267565b60405180910390f35b3480156102b157600080fd5b506102ba610c1f565b6040516102c79190611267565b60405180910390f35b3480156102dc57600080fd5b506102f760048036038101906102f291906112f3565b610c25565b005b34801561030557600080fd5b5061030e610cf9565b60405161031b919061158f565b60405180910390f35b34801561033057600080fd5b5061034b600480360381019061034691906112f3565b610d98565b005b34801561035957600080fd5b50610374600480360381019061036f91906115dd565b610e6a565b005b34801561038257600080fd5b5061038b610ef0565b60405161039891906113b3565b60405180910390f35b60045481565b600760009054906101000a900473ffffffffffffffffffffffffffffffffffffffff1673ffffffffffffffffffffffffffffffffffffffff163373ffffffffffffffffffffffffffffffffffffffff1614806104505750600860009054906101000a900473ffffffffffffffffffffffffffffffffffffffff1673ffffffffffffffffffffffffffffffffffffffff163373ffffffffffffffffffffffffffffffffffffffff16145b61048f576040517f08c379a000000000000000000000000000000000000000000000000000000000815260040161048690611656565b60405180910390fd5b565b5b80821161054757600a60405180606001604052808481526020016000151581526020016000151581525090806001815401808255809150506001900390600052602060002090600202016000909190919091506000820151816000015560208201518160010160006101000a81548160ff02191690831515021790555060408201518160010160016101000a81548160ff021916908315150217905550505062278d008261054091906116a5565b9150610492565b5050565b600a818154811061055b57600080fd5b90600052602060002090600202016000915090508060000154908060010160009054906101000a900460ff16908060010160019054906101000a900460ff16905083565b6000600760009054906101000a900473ffffffffffffffffffffffffffffffffffffffff1673ffffffffffffffffffffffffffffffffffffffff163373ffffffffffffffffffffffffffffffffffffffff16148061064a5750600860009054906101000a900473ffffffffffffffffffffffffffffffffffffffff1673ffffffffffffffffffffffffffffffffffffffff163373ffffffffffffffffffffffffffffffffffffffff16145b610689576040517f08c379a000000000000000000000000000000000000000000000000000000000815260040161068090611656565b60405180910390fd5b600254905090565b610699611002565b6106a36000611089565b565b6000600160009054906101000a900473ffffffffffffffffffffffffffffffffffffffff16905090565b60035481565b6106dd61114f565b6000600760009054906101000a900473ffffffffffffffffffffffffffffffffffffffff1673ffffffffffffffffffffffffffffffffffffffff163373ffffffffffffffffffffffffffffffffffffffff161461076f576040517f08c379a000000000000000000000000000000000000000000000000000000000815260040161076690611725565b60405180910390fd5b60025434146107b3576040517f08c379a00000000000000000000000000000000000000000000000000000000081526004016107aa90611791565b60405180910390fd5b6005544211156107f8576040517f08c379a00000000000000000000000000000000000000000000000000000000081526004016107ef906117fd565b60405180910390fd5b6000600860009054906101000a900473ffffffffffffffffffffffffffffffffffffffff1673ffffffffffffffffffffffffffffffffffffffff16346040516108409061184e565b60006040518083038185875af1925050503d806000811461087d576040519150601f19603f3d011682016040523d82523d6000602084013e610882565b606091505b50509050806108c6576040517f08c379a00000000000000000000000000000000000000000000000000000000081526004016108bd906118af565b60405180910390fd5b6108d06001611195565b9150600760009054906101000a900473ffffffffffffffffffffffffffffffffffffffff1673ffffffffffffffffffffffffffffffffffffffff167fdaa6426225fa3d467a9286f8d7ba9eab9344ed25a3c4455c9bd9d7191ecb9f53600a600b5481548110610942576109416118cf565b5b9060005260206000209060020201600001543485604051610965939291906118fe565b60405180910390a26001600a600b5481548110610985576109846118cf565b5b906000526020600020906002020160010160006101000a81548160ff02191690831515021790555081600a600b54815481106109c4576109c36118cf565b5b906000526020600020906002020160010160016101000a81548160ff0219169083151502179055506001600b60008282546109ff91906116a5565b92505081905550600760009054906101000a900473ffffffffffffffffffffffffffffffffffffffff1673ffffffffffffffffffffffffffffffffffffffff16600a600b5481548110610a5557610a546118cf565b5b9060005260206000209060020201600001547fc4cfadff292c5ae98f722bf64f2b796e63c8b127eec85447beaa33278703c87a60405160405180910390a35050610a9d61123c565b565b60098054610aac90611964565b80601f0160208091040260200160405190810160405280929190818152602001828054610ad890611964565b8015610b255780601f10610afa57610100808354040283529160200191610b25565b820191906000526020600020905b815481529060010190602001808311610b0857829003601f168201915b505050505081565b6000600760009054906101000a900473ffffffffffffffffffffffffffffffffffffffff1673ffffffffffffffffffffffffffffffffffffffff163373ffffffffffffffffffffffffffffffffffffffff161480610bd85750600860009054906101000a900473ffffffffffffffffffffffffffffffffffffffff1673ffffffffffffffffffffffffffffffffffffffff163373ffffffffffffffffffffffffffffffffffffffff16145b610c17576040517f08c379a0000000000000000000000000000000000000000000000000000000008152600401610c0e90611656565b60405180910390fd5b600654905090565b60055481565b600860009054906101000a900473ffffffffffffffffffffffffffffffffffffffff1673ffffffffffffffffffffffffffffffffffffffff163373ffffffffffffffffffffffffffffffffffffffff1614610cb5576040517f08c379a0000000000000000000000000000000000000000000000000000000008152600401610cac90611a07565b60405180910390fd5b806005819055506005547f1e9300ca5a9796c5241a9179ea7078806d81321510ec101d80bc8b3bb34b1bbe33604051610cee91906113b3565b60405180910390a250565b6060600a805480602002602001604051908101604052809291908181526020016000905b82821015610d8f5783829060005260206000209060020201604051806060016040529081600082015481526020016001820160009054906101000a900460ff161515151581526020016001820160019054906101000a900460ff16151515158152505081526020019060010190610d1d565b50505050905090565b600860009054906101000a900473ffffffffffffffffffffffffffffffffffffffff1673ffffffffffffffffffffffffffffffffffffffff163373ffffffffffffffffffffffffffffffffffffffff1614610e28576040517f08c379a0000000000000000000000000000000000000000000000000000000008152600401610e1f90611a07565b60405180910390fd5b80600281905550807f92db6122fb059af80b30cb7ddb63563f1eb91b94fd91d45834adf27bbc7bb84133604051610e5f91906113b3565b60405180910390a250565b610e72611002565b600073ffffffffffffffffffffffffffffffffffffffff168173ffffffffffffffffffffffffffffffffffffffff1603610ee45760006040517f1e4fbdf7000000000000000000000000000000000000000000000000000000008152600401610edb91906113b3565b60405180910390fd5b610eed81611089565b50565b6000600760009054906101000a900473ffffffffffffffffffffffffffffffffffffffff1673ffffffffffffffffffffffffffffffffffffffff163373ffffffffffffffffffffffffffffffffffffffff161480610f9b5750600860009054906101000a900473ffffffffffffffffffffffffffffffffffffffff1673ffffffffffffffffffffffffffffffffffffffff163373ffffffffffffffffffffffffffffffffffffffff16145b610fda576040517f08c379a0000000000000000000000000000000000000000000000000000000008152600401610fd190611656565b60405180910390fd5b600860009054906101000a900473ffffffffffffffffffffffffffffffffffffffff16905090565b61100a611246565b73ffffffffffffffffffffffffffffffffffffffff166110286106a5565b73ffffffffffffffffffffffffffffffffffffffff16146110875761104b611246565b6040517f118cdaa700000000000000000000000000000000000000000000000000000000815260040161107e91906113b3565b60405180910390fd5b565b6000600160009054906101000a900473ffffffffffffffffffffffffffffffffffffffff16905081600160006101000a81548173ffffffffffffffffffffffffffffffffffffffff021916908373ffffffffffffffffffffffffffffffffffffffff1602179055508173ffffffffffffffffffffffffffffffffffffffff168173ffffffffffffffffffffffffffffffffffffffff167f8be0079c531659141344cd1fd0a4f28419497f9722a3daafe3b4186f6b6457e060405160405180910390a35050565b60026000540361118b576040517f3ee5aeb500000000000000000000000000000000000000000000000000000000815260040160405180910390fd5b6002600081905550565b60008062015180836111a79190611a27565b6003546111b491906116a5565b90508042106112175760006201518082426111cf9190611a69565b6111d99190611acc565b90508060065410156111f257600060068190555061120c565b80600660008282546112049190611a69565b925050819055505b600092505050611237565b600a6006600082825461122a91906116a5565b9250508190555060019150505b919050565b6001600081905550565b600033905090565b6000819050919050565b6112618161124e565b82525050565b600060208201905061127c6000830184611258565b92915050565b600080fd5b6112908161124e565b811461129b57600080fd5b50565b6000813590506112ad81611287565b92915050565b600080604083850312156112ca576112c9611282565b5b60006112d88582860161129e565b92505060206112e98582860161129e565b9150509250929050565b60006020828403121561130957611308611282565b5b60006113178482850161129e565b91505092915050565b60008115159050919050565b61133581611320565b82525050565b60006060820190506113506000830186611258565b61135d602083018561132c565b61136a604083018461132c565b949350505050565b600073ffffffffffffffffffffffffffffffffffffffff82169050919050565b600061139d82611372565b9050919050565b6113ad81611392565b82525050565b60006020820190506113c860008301846113a4565b92915050565b600081519050919050565b600082825260208201905092915050565b60005b838110156114085780820151818401526020810190506113ed565b60008484015250505050565b6000601f19601f8301169050919050565b6000611430826113ce565b61143a81856113d9565b935061144a8185602086016113ea565b61145381611414565b840191505092915050565b600060208201905081810360008301526114788184611425565b905092915050565b600081519050919050565b600082825260208201905092915050565b6000819050602082019050919050565b6114b58161124e565b82525050565b6114c481611320565b82525050565b6060820160008201516114e060008501826114ac565b5060208201516114f360208501826114bb565b50604082015161150660408501826114bb565b50505050565b600061151883836114ca565b60608301905092915050565b6000602082019050919050565b600061153c82611480565b611546818561148b565b93506115518361149c565b8060005b83811015611582578151611569888261150c565b975061157483611524565b925050600181019050611555565b5085935050505092915050565b600060208201905081810360008301526115a98184611531565b905092915050565b6115ba81611392565b81146115c557600080fd5b50565b6000813590506115d7816115b1565b92915050565b6000602082840312156115f3576115f2611282565b5b6000611601848285016115c8565b91505092915050565b7f57616c6c6574206e6f7420616c6c6f7765640000000000000000000000000000600082015250565b60006116406012836113d9565b915061164b8261160a565b602082019050919050565b6000602082019050818103600083015261166f81611633565b9050919050565b7f4e487b7100000000000000000000000000000000000000000000000000000000600052601160045260246000fd5b60006116b08261124e565b91506116bb8361124e565b92508282019050808211156116d3576116d2611676565b5b92915050565b7f5061796572206e6f7420616c6c6f776564000000000000000000000000000000600082015250565b600061170f6011836113d9565b915061171a826116d9565b602082019050919050565b6000602082019050818103600083015261173e81611702565b9050919050565b7f57726f6e672072656e7420616d6f756e74000000000000000000000000000000600082015250565b600061177b6011836113d9565b915061178682611745565b602082019050919050565b600060208201905081810360008301526117aa8161176e565b9050919050565b7f546865206c656173652068617320657870697265640000000000000000000000600082015250565b60006117e76015836113d9565b91506117f2826117b1565b602082019050919050565b60006020820190508181036000830152611816816117da565b9050919050565b600081905092915050565b50565b600061183860008361181d565b915061184382611828565b600082019050919050565b60006118598261182b565b9150819050919050565b7f4661696c656420746f2073656e64207468652072656e74000000000000000000600082015250565b60006118996017836113d9565b91506118a482611863565b602082019050919050565b600060208201905081810360008301526118c88161188c565b9050919050565b7f4e487b7100000000000000000000000000000000000000000000000000000000600052603260045260246000fd5b60006060820190506119136000830186611258565b6119206020830185611258565b61192d604083018461132c565b949350505050565b7f4e487b7100000000000000000000000000000000000000000000000000000000600052602260045260246000fd5b6000600282049050600182168061197c57607f821691505b60208210810361198f5761198e611935565b5b50919050565b7f4f6e6c7920746865206c616e646c6f726420697320616c6c6f77656420746f2060008201527f706572666f726d2074686973206f7065726174696f6e00000000000000000000602082015250565b60006119f16036836113d9565b91506119fc82611995565b604082019050919050565b60006020820190508181036000830152611a20816119e4565b9050919050565b6000611a328261124e565b9150611a3d8361124e565b9250828202611a4b8161124e565b91508282048414831517611a6257611a61611676565b5b5092915050565b6000611a748261124e565b9150611a7f8361124e565b9250828203905081811115611a9757611a96611676565b5b92915050565b7f4e487b7100000000000000000000000000000000000000000000000000000000600052601260045260246000fd5b6000611ad78261124e565b9150611ae28361124e565b925082611af257611af1611a9d565b5b82820490509291505056fea26469706673582212204db38d1038d693e4c760591c3f2fe4707b911567dd7c87aaf34148500a5c29b664736f6c634300081c0033",
  "linkReferences": {},
  "deployedLinkReferences": {}
}