{
  "_format": "hh-sol-artifact-1",
  "contractName": "Rental",
  "sourceName": "contracts/rental.sol",
  "abi": [
    {
      "inputs": [
        {
          "internalType": "uint256",
          "name": "_payDate",
          "type": "uint256"
        },
        {
          "internalType": "uint256",
          "name": "_expectedRent",
          "type": "uint256"
        },
        {
          "internalType": "address",
          "name": "_renter",
          "type": "address"
        },
        {
          "internalType": "address",
          "name": "_landlord",
          "type": "address"
        },
        {
          "internalType": "uint256",
          "name": "_startDate",
          "type": "uint256"
        },
        {
          "internalType": "uint256",
          "name": "_endDate",
          "type": "uint256"
        },
        {
          "internalType": "string",
          "name": "_loc",
          "type": "string"
        }
      ],
      "stateMutability": "nonpayable",
      "type": "constructor"
    },
    {
      "inputs": [
        {
          "internalType": "address",
          "name": "owner",
          "type": "address"
        }
      ],
      "name": "OwnableInvalidOwner",
      "type": "error"
    },
    {
      "inputs": [
        {
          "internalType": "address",
          "name": "account",
          "type": "address"
        }
      ],
      "name": "OwnableUnauthorizedAccount",
      "type": "error"
    },
    {
      "inputs": [],
      "name": "ReentrancyGuardReentrantCall",
      "type": "error"
    },
    {
      "anonymous": false,
      "inputs": [
        {
          "indexed": true,
          "internalType": "uint256",
          "name": "endDate",
          "type": "uint256"
        },
        {
          "indexed": false,
          "internalType": "address",
          "name": "owner",
          "type": "address"
        }
      ],
      "name": "NewEnd",
      "type": "event"
    },
    {
      "anonymous": false,
      "inputs": [
        {
          "indexed": true,
          "internalType": "uint256",
          "name": "payDate",
          "type": "uint256"
        },
        {
          "indexed": true,
          "internalType": "address",
          "name": "renter",
          "type": "address"
        }
      ],
      "name": "NewPayDate",
      "type": "event"
    },
    {
      "anonymous": false,
      "inputs": [
        {
          "indexed": true,
          "internalType": "address",
          "name": "previousOwner",
          "type": "address"
        },
        {
          "indexed": true,
          "internalType": "address",
          "name": "newOwner",
          "type": "address"
        }
      ],
      "name": "OwnershipTransferred",
      "type": "event"
    },
    {
      "anonymous": false,
      "inputs": [
        {
          "indexed": false,
          "internalType": "uint256",
          "name": "payDate",
          "type": "uint256"
        },
        {
          "indexed": false,
          "internalType": "uint256",
          "name": "amount",
          "type": "uint256"
        },
        {
          "indexed": true,
          "internalType": "address",
          "name": "renter",
          "type": "address"
        },
        {
          "indexed": false,
          "internalType": "bool",
          "name": "onTime",
          "type": "bool"
        }
      ],
      "name": "RentPaid",
      "type": "event"
    },
    {
      "anonymous": false,
      "inputs": [
        {
          "indexed": true,
          "internalType": "uint256",
          "name": "newRent",
          "type": "uint256"
        },
        {
          "indexed": false,
          "internalType": "address",
          "name": "landlord",
          "type": "address"
        }
      ],
      "name": "RentUpdate",
      "type": "event"
    },
    {
      "inputs": [],
      "name": "checkRent",
      "outputs": [
        {
          "internalType": "uint256",
          "name": "",
          "type": "uint256"
        }
      ],
      "stateMutability": "view",
      "type": "function"
    },
    {
      "inputs": [],
      "name": "endDate",
      "outputs": [
        {
          "internalType": "uint256",
          "name": "",
          "type": "uint256"
        }
      ],
      "stateMutability": "view",
      "type": "function"
    },
    {
      "inputs": [],
      "name": "getLandlord",
      "outputs": [
        {
          "internalType": "address",
          "name": "",
          "type": "address"
        }
      ],
      "stateMutability": "view",
      "type": "function"
    },
    {
      "inputs": [],
      "name": "getPaymentCount",
      "outputs": [
        {
          "internalType": "uint256",
          "name": "",
          "type": "uint256"
        }
      ],
      "stateMutability": "view",
      "type": "function"
    },
    {
      "inputs": [],
      "name": "getPayments",
      "outputs": [
        {
          "components": [
            {
              "internalType": "uint256",
              "name": "date",
              "type": "uint256"
            },
            {
              "internalType": "bool",
              "name": "paid",
              "type": "bool"
            },
            {
              "internalType": "bool",
              "name": "onTime",
              "type": "bool"
            }
          ],
          "internalType": "struct Rental.Payment[]",
          "name": "",
          "type": "tuple[]"
        }
      ],
      "stateMutability": "view",
      "type": "function"
    },
    {
      "inputs": [],
      "name": "getScore",
      "outputs": [
        {
          "internalType": "uint256",
          "name": "",
          "type": "uint256"
        }
      ],
      "stateMutability": "view",
      "type": "function"
    },
    {
      "inputs": [],
      "name": "loc",
      "outputs": [
        {
          "internalType": "string",
          "name": "",
          "type": "string"
        }
      ],
      "stateMutability": "view",
      "type": "function"
    },
    {
      "inputs": [],
      "name": "owner",
      "outputs": [
        {
          "internalType": "address",
          "name": "",
          "type": "address"
        }
      ],
      "stateMutability": "view",
      "type": "function"
    },
    {
      "inputs": [],
      "name": "payDate",
      "outputs": [
        {
          "internalType": "uint256",
          "name": "",
          "type": "uint256"
        }
      ],
      "stateMutability": "view",
      "type": "function"
    },
    {
      "inputs": [],
      "name": "payRent",
      "outputs": [],
      "stateMutability": "payable",
      "type": "function"
    },
    {
      "inputs": [
        {
          "internalType": "uint256",
          "name": "",
          "type": "uint256"
        }
      ],
      "name": "paymentSchedule",
      "outputs": [
        {
          "internalType": "uint256",
          "name": "date",
          "type": "uint256"
        },
        {
          "internalType": "bool",
          "name": "paid",
          "type": "bool"
        },
        {
          "internalType": "bool",
          "name": "onTime",
          "type": "bool"
        }
      ],
      "stateMutability": "view",
      "type": "function"
    },
    {
      "inputs": [
        {
          "internalType": "uint256",
          "name": "pd",
          "type": "uint256"
        },
        {
          "internalType": "uint256",
          "name": "endLease",
          "type": "uint256"
        }
      ],
      "name": "populateSchedule",
      "outputs": [],
      "stateMutability": "nonpayable",
      "type": "function"
    },
    {
      "inputs": [],
      "name": "renounceOwnership",
      "outputs": [],
      "stateMutability": "nonpayable",
      "type": "function"
    },
    {
      "inputs": [],
      "name": "sendNotice",
      "outputs": [],
      "stateMutability": "nonpayable",
      "type": "function"
    },
    {
      "inputs": [],
      "name": "startDate",
      "outputs": [
        {
          "internalType": "uint256",
          "name": "",
          "type": "uint256"
        }
      ],
      "stateMutability": "view",
      "type": "function"
    },
    {
      "inputs": [
        {
          "internalType": "address",
          "name": "newOwner",
          "type": "address"
        }
      ],
      "name": "transferOwnership",
      "outputs": [],
      "stateMutability": "nonpayable",
      "type": "function"
    },
    {
      "inputs": [
        {
          "internalType": "uint256",
          "name": "_newDate",
          "type": "uint256"
        }
      ],
      "name": "updateExpiry",
      "outputs": [],
      "stateMutability": "nonpayable",
      "type": "function"
    },
    {
      "inputs": [
        {
          "internalType": "uint256",
          "name": "_newRent",
          "type": "uint256"
        }
      ],
      "name": "updateRent",
      "outputs": [],
      "stateMutability": "nonpayable",
      "type": "function"
    }
  ],
  "bytecode": "0x608060405234801561001057600080fd5b5060405161329c38038061329c833981810160405281019061003291906109ef565b846001600081905550600073ffffffffffffffffffffffffffffffffffffffff168173ffffffffffffffffffffffffffffffffffffffff16036100ad5760006040517f1e4fbdf70000000000000000000000000000000000000000000000000000000081526004016100a49190610abc565b60405180910390fd5b6100bc8161019760201b60201c565b50866003819055508560028190555084600760006101000a81548173ffffffffffffffffffffffffffffffffffffffff021916908373ffffffffffffffffffffffffffffffffffffffff16021790555083600860006101000a81548173ffffffffffffffffffffffffffffffffffffffff021916908373ffffffffffffffffffffffffffffffffffffffff1602179055506064600681905550826004819055508160058190555080600990816101729190610cee565b50610183878361025d60201b60201c565b6000600b819055505050505050505061109d565b6000600160009054906101000a900473ffffffffffffffffffffffffffffffffffffffff16905081600160006101000a81548173ffffffffffffffffffffffffffffffffffffffff021916908373ffffffffffffffffffffffffffffffffffffffff1602179055508173ffffffffffffffffffffffffffffffffffffffff168173ffffffffffffffffffffffffffffffffffffffff167f8be0079c531659141344cd1fd0a4f28419497f9722a3daafe3b4186f6b6457e060405160405180910390a35050565b5b80821161031557600a60405180606001604052808481526020016000151581526020016000151581525090806001815401808255809150506001900390600052602060002090600202016000909190919091506000820151816000015560208201518160010160006101000a81548160ff02191690831515021790555060408201518160010160016101000a81548160ff021916908315150217905550505061030e82600161031960201b60201c565b915061025e565b5050565b60008060008061033c62015180876103319190610e1e565b61040e60201b60201c565b925092509250848261034e9190610e4f565b9150600c60018361035f9190610e83565b6103699190610e1e565b836103749190610e4f565b92506001600c6001846103879190610e83565b6103919190610eb7565b61039b9190610e4f565b915060006103af84846105ad60201b60201c565b9050808211156103bd578091505b62015180876103cc9190610eb7565b620151806103e186868661063e60201b60201c565b6103eb9190610ee8565b6103f59190610e4f565b94508685101561040457600080fd5b5050505092915050565b600080600080849050600062253d8c62010bd98361042c9190610f34565b6104369190610f34565b9050600062023ab182600461044b9190610f78565b6104559190610ff0565b9050600460038262023ab161046a9190610f78565b6104749190610f34565b61047e9190610ff0565b82610489919061105a565b9150600062164b0960018461049e9190610f34565b610fa06104ab9190610f78565b6104b59190610ff0565b9050601f6004826105b56104c99190610f78565b6104d39190610ff0565b846104de919061105a565b6104e89190610f34565b9250600061098f8460506104fc9190610f78565b6105069190610ff0565b9050600060508261098f61051a9190610f78565b6105249190610ff0565b8561052f919061105a565b9050600b8261053e9190610ff0565b945084600c61054d9190610f78565b60028361055a9190610f34565b610564919061105a565b91508483603186610575919061105a565b60646105819190610f78565b61058b9190610f34565b6105959190610f34565b92508298508197508096505050505050509193909250565b600060018214806105be5750600382145b806105c95750600582145b806105d45750600782145b806105df5750600882145b806105ea5750600a82145b806105f55750600c82145b1561060357601f9050610638565b6002821461061457601e9050610637565b6106238361079d60201b60201c565b61062e57601c610631565b601d5b60ff1690505b5b92915050565b60006107b284101561064f57600080fd5b600084905060008490506000849050600062253d8c60046064600c600e87610677919061105a565b6106819190610ff0565b6113248861068f9190610f34565b6106999190610f34565b6106a39190610ff0565b60036106af9190610f78565b6106b99190610ff0565b600c80600c600e886106cb919061105a565b6106d59190610ff0565b6106df9190610f78565b6002876106ec919061105a565b6106f6919061105a565b61016f6107039190610f78565b61070d9190610ff0565b6004600c600e8861071e919061105a565b6107289190610ff0565b6112c0896107369190610f34565b6107409190610f34565b6105b561074d9190610f78565b6107579190610ff0565b617d4b86610765919061105a565b61076f9190610f34565b6107799190610f34565b610783919061105a565b61078d919061105a565b9050809450505050509392505050565b6000806004836107ad9190610eb7565b1480156107c7575060006064836107c49190610eb7565b14155b806107df57506000610190836107dd9190610eb7565b145b9050919050565b6000604051905090565b600080fd5b600080fd5b6000819050919050565b61080d816107fa565b811461081857600080fd5b50565b60008151905061082a81610804565b92915050565b600073ffffffffffffffffffffffffffffffffffffffff82169050919050565b600061085b82610830565b9050919050565b61086b81610850565b811461087657600080fd5b50565b60008151905061088881610862565b92915050565b600080fd5b600080fd5b6000601f19601f8301169050919050565b7f4e487b7100000000000000000000000000000000000000000000000000000000600052604160045260246000fd5b6108e182610898565b810181811067ffffffffffffffff82111715610900576108ff6108a9565b5b80604052505050565b60006109136107e6565b905061091f82826108d8565b919050565b600067ffffffffffffffff82111561093f5761093e6108a9565b5b61094882610898565b9050602081019050919050565b60005b83811015610973578082015181840152602081019050610958565b60008484015250505050565b600061099261098d84610924565b610909565b9050828152602081018484840111156109ae576109ad610893565b5b6109b9848285610955565b509392505050565b600082601f8301126109d6576109d561088e565b5b81516109e684826020860161097f565b91505092915050565b600080600080600080600060e0888a031215610a0e57610a0d6107f0565b5b6000610a1c8a828b0161081b565b9750506020610a2d8a828b0161081b565b9650506040610a3e8a828b01610879565b9550506060610a4f8a828b01610879565b9450506080610a608a828b0161081b565b93505060a0610a718a828b0161081b565b92505060c088015167ffffffffffffffff811115610a9257610a916107f5565b5b610a9e8a828b016109c1565b91505092959891949750929550565b610ab681610850565b82525050565b6000602082019050610ad16000830184610aad565b92915050565b600081519050919050565b7f4e487b7100000000000000000000000000000000000000000000000000000000600052602260045260246000fd5b60006002820490506001821680610b2957607f821691505b602082108103610b3c57610b3b610ae2565b5b50919050565b60008190508160005260206000209050919050565b60006020601f8301049050919050565b600082821b905092915050565b600060088302610ba47fffffffffffffffffffffffffffffffffffffffffffffffffffffffffffffffff82610b67565b610bae8683610b67565b95508019841693508086168417925050509392505050565b6000819050919050565b6000610beb610be6610be1846107fa565b610bc6565b6107fa565b9050919050565b6000819050919050565b610c0583610bd0565b610c19610c1182610bf2565b848454610b74565b825550505050565b600090565b610c2e610c21565b610c39818484610bfc565b505050565b5b81811015610c5d57610c52600082610c26565b600181019050610c3f565b5050565b601f821115610ca257610c7381610b42565b610c7c84610b57565b81016020851015610c8b578190505b610c9f610c9785610b57565b830182610c3e565b50505b505050565b600082821c905092915050565b6000610cc560001984600802610ca7565b1980831691505092915050565b6000610cde8383610cb4565b9150826002028217905092915050565b610cf782610ad7565b67ffffffffffffffff811115610d1057610d0f6108a9565b5b610d1a8254610b11565b610d25828285610c61565b600060209050601f831160018114610d585760008415610d46578287015190505b610d508582610cd2565b865550610db8565b601f198416610d6686610b42565b60005b82811015610d8e57848901518255600182019150602085019450602081019050610d69565b86831015610dab5784890151610da7601f891682610cb4565b8355505b6001600288020188555050505b505050505050565b7f4e487b7100000000000000000000000000000000000000000000000000000000600052601260045260246000fd5b7f4e487b7100000000000000000000000000000000000000000000000000000000600052601160045260246000fd5b6000610e29826107fa565b9150610e34836107fa565b925082610e4457610e43610dc0565b5b828204905092915050565b6000610e5a826107fa565b9150610e65836107fa565b9250828201905080821115610e7d57610e7c610def565b5b92915050565b6000610e8e826107fa565b9150610e99836107fa565b9250828203905081811115610eb157610eb0610def565b5b92915050565b6000610ec2826107fa565b9150610ecd836107fa565b925082610edd57610edc610dc0565b5b828206905092915050565b6000610ef3826107fa565b9150610efe836107fa565b9250828202610f0c816107fa565b91508282048414831517610f2357610f22610def565b5b5092915050565b6000819050919050565b6000610f3f82610f2a565b9150610f4a83610f2a565b925082820190508281121560008312168382126000841215161715610f7257610f71610def565b5b92915050565b6000610f8382610f2a565b9150610f8e83610f2a565b9250828202610f9c81610f2a565b91507f80000000000000000000000000000000000000000000000000000000000000008414600084121615610fd457610fd3610def565b5b8282058414831517610fe957610fe8610def565b5b5092915050565b6000610ffb82610f2a565b915061100683610f2a565b92508261101657611015610dc0565b5b600160000383147f80000000000000000000000000000000000000000000000000000000000000008314161561104f5761104e610def565b5b828205905092915050565b600061106582610f2a565b915061107083610f2a565b925082820390508181126000841216828213600085121516171561109757611096610def565b5b92915050565b6121f0806110ac6000396000f3fe6080604052600436106101095760003560e01c8063abb0787611610095578063d359f82c11610064578063d359f82c14610306578063d56bd1421461032f578063eb9220ab1461035a578063f2fde38b14610383578063f502236d146103ac57610109565b8063abb078761461025a578063af32a03f14610285578063afd82067146102b0578063c24a0f8b146102db57610109565b806357ef9b6a116100dc57806357ef9b6a146101b8578063715018a6146101e35780638da5cb5b146101fa5780639b332a9114610225578063a709c4fe1461025057610109565b80630b97bc861461010e5780631979cd13146101395780631e60c5371461015057806321dd22d114610179575b600080fd5b34801561011a57600080fd5b506101236103d7565b6040516101309190611780565b60405180910390f35b34801561014557600080fd5b5061014e6103dd565b005b34801561015c57600080fd5b50610177600480360381019061017291906117cc565b6104c7565b005b34801561018557600080fd5b506101a0600480360381019061019b919061180c565b61057d565b6040516101af93929190611854565b60405180910390f35b3480156101c457600080fd5b506101cd6105d1565b6040516101da9190611780565b60405180910390f35b3480156101ef57600080fd5b506101f86106c3565b005b34801561020657600080fd5b5061020f6106d7565b60405161021c91906118cc565b60405180910390f35b34801561023157600080fd5b5061023a610701565b6040516102479190611780565b60405180910390f35b610258610707565b005b34801561026657600080fd5b5061026f610ad1565b60405161027c9190611977565b60405180910390f35b34801561029157600080fd5b5061029a610b5f565b6040516102a79190611780565b60405180910390f35b3480156102bc57600080fd5b506102c5610b6c565b6040516102d29190611780565b60405180910390f35b3480156102e757600080fd5b506102f0610c5e565b6040516102fd9190611780565b60405180910390f35b34801561031257600080fd5b5061032d6004803603810190610328919061180c565b610c64565b005b34801561033b57600080fd5b50610344610d38565b6040516103519190611aa8565b60405180910390f35b34801561036657600080fd5b50610381600480360381019061037c919061180c565b610dd7565b005b34801561038f57600080fd5b506103aa60048036038101906103a59190611af6565b610ea9565b005b3480156103b857600080fd5b506103c1610f2f565b6040516103ce91906118cc565b60405180910390f35b60045481565b600760009054906101000a900473ffffffffffffffffffffffffffffffffffffffff1673ffffffffffffffffffffffffffffffffffffffff163373ffffffffffffffffffffffffffffffffffffffff1614806104865750600860009054906101000a900473ffffffffffffffffffffffffffffffffffffffff1673ffffffffffffffffffffffffffffffffffffffff163373ffffffffffffffffffffffffffffffffffffffff16145b6104c5576040517f08c379a00000000000000000000000000000000000000000000000000000000081526004016104bc90611b6f565b60405180910390fd5b565b5b80821161057957600a60405180606001604052808481526020016000151581526020016000151581525090806001815401808255809150506001900390600052602060002090600202016000909190919091506000820151816000015560208201518160010160006101000a81548160ff02191690831515021790555060408201518160010160016101000a81548160ff0219169083151502179055505050610572826001611041565b91506104c8565b5050565b600a818154811061058d57600080fd5b90600052602060002090600202016000915090508060000154908060010160009054906101000a900460ff16908060010160019054906101000a900460ff16905083565b6000600760009054906101000a900473ffffffffffffffffffffffffffffffffffffffff1673ffffffffffffffffffffffffffffffffffffffff163373ffffffffffffffffffffffffffffffffffffffff16148061067c5750600860009054906101000a900473ffffffffffffffffffffffffffffffffffffffff1673ffffffffffffffffffffffffffffffffffffffff163373ffffffffffffffffffffffffffffffffffffffff16145b6106bb576040517f08c379a00000000000000000000000000000000000000000000000000000000081526004016106b290611b6f565b60405180910390fd5b600254905090565b6106cb611124565b6106d560006111ab565b565b6000600160009054906101000a900473ffffffffffffffffffffffffffffffffffffffff16905090565b60035481565b61070f611271565b6000600760009054906101000a900473ffffffffffffffffffffffffffffffffffffffff1673ffffffffffffffffffffffffffffffffffffffff163373ffffffffffffffffffffffffffffffffffffffff16146107a1576040517f08c379a000000000000000000000000000000000000000000000000000000000815260040161079890611bdb565b60405180910390fd5b60025434146107e5576040517f08c379a00000000000000000000000000000000000000000000000000000000081526004016107dc90611c47565b60405180910390fd5b60055442111561082a576040517f08c379a000000000000000000000000000000000000000000000000000000000815260040161082190611cb3565b60405180910390fd5b6000600860009054906101000a900473ffffffffffffffffffffffffffffffffffffffff1673ffffffffffffffffffffffffffffffffffffffff163460405161087290611d04565b60006040518083038185875af1925050503d80600081146108af576040519150601f19603f3d011682016040523d82523d6000602084013e6108b4565b606091505b50509050806108f8576040517f08c379a00000000000000000000000000000000000000000000000000000000081526004016108ef90611d65565b60405180910390fd5b61090260016112b7565b9150600760009054906101000a900473ffffffffffffffffffffffffffffffffffffffff1673ffffffffffffffffffffffffffffffffffffffff167fdaa6426225fa3d467a9286f8d7ba9eab9344ed25a3c4455c9bd9d7191ecb9f53600a600b548154811061097457610973611d85565b5b906000526020600020906002020160000154348560405161099793929190611db4565b60405180910390a26001600a600b54815481106109b7576109b6611d85565b5b906000526020600020906002020160010160006101000a81548160ff02191690831515021790555081600a600b54815481106109f6576109f5611d85565b5b906000526020600020906002020160010160016101000a81548160ff0219169083151502179055506001600b6000828254610a319190611e1a565b92505081905550600760009054906101000a900473ffffffffffffffffffffffffffffffffffffffff1673ffffffffffffffffffffffffffffffffffffffff16600a600b5481548110610a8757610a86611d85565b5b9060005260206000209060020201600001547fc4cfadff292c5ae98f722bf64f2b796e63c8b127eec85447beaa33278703c87a60405160405180910390a35050610acf611383565b565b60098054610ade90611e7d565b80601f0160208091040260200160405190810160405280929190818152602001828054610b0a90611e7d565b8015610b575780601f10610b2c57610100808354040283529160200191610b57565b820191906000526020600020905b815481529060010190602001808311610b3a57829003601f168201915b505050505081565b6000600a80549050905090565b6000600760009054906101000a900473ffffffffffffffffffffffffffffffffffffffff1673ffffffffffffffffffffffffffffffffffffffff163373ffffffffffffffffffffffffffffffffffffffff161480610c175750600860009054906101000a900473ffffffffffffffffffffffffffffffffffffffff1673ffffffffffffffffffffffffffffffffffffffff163373ffffffffffffffffffffffffffffffffffffffff16145b610c56576040517f08c379a0000000000000000000000000000000000000000000000000000000008152600401610c4d90611b6f565b60405180910390fd5b600654905090565b60055481565b600860009054906101000a900473ffffffffffffffffffffffffffffffffffffffff1673ffffffffffffffffffffffffffffffffffffffff163373ffffffffffffffffffffffffffffffffffffffff1614610cf4576040517f08c379a0000000000000000000000000000000000000000000000000000000008152600401610ceb90611f20565b60405180910390fd5b806005819055506005547f1e9300ca5a9796c5241a9179ea7078806d81321510ec101d80bc8b3bb34b1bbe33604051610d2d91906118cc565b60405180910390a250565b6060600a805480602002602001604051908101604052809291908181526020016000905b82821015610dce5783829060005260206000209060020201604051806060016040529081600082015481526020016001820160009054906101000a900460ff161515151581526020016001820160019054906101000a900460ff16151515158152505081526020019060010190610d5c565b50505050905090565b600860009054906101000a900473ffffffffffffffffffffffffffffffffffffffff1673ffffffffffffffffffffffffffffffffffffffff163373ffffffffffffffffffffffffffffffffffffffff1614610e67576040517f08c379a0000000000000000000000000000000000000000000000000000000008152600401610e5e90611f20565b60405180910390fd5b80600281905550807f92db6122fb059af80b30cb7ddb63563f1eb91b94fd91d45834adf27bbc7bb84133604051610e9e91906118cc565b60405180910390a250565b610eb1611124565b600073ffffffffffffffffffffffffffffffffffffffff168173ffffffffffffffffffffffffffffffffffffffff1603610f235760006040517f1e4fbdf7000000000000000000000000000000000000000000000000000000008152600401610f1a91906118cc565b60405180910390fd5b610f2c816111ab565b50565b6000600760009054906101000a900473ffffffffffffffffffffffffffffffffffffffff1673ffffffffffffffffffffffffffffffffffffffff163373ffffffffffffffffffffffffffffffffffffffff161480610fda5750600860009054906101000a900473ffffffffffffffffffffffffffffffffffffffff1673ffffffffffffffffffffffffffffffffffffffff163373ffffffffffffffffffffffffffffffffffffffff16145b611019576040517f08c379a000000000000000000000000000000000000000000000000000000000815260040161101090611b6f565b60405180910390fd5b600860009054906101000a900473ffffffffffffffffffffffffffffffffffffffff16905090565b60008060008061105e62015180876110599190611f6f565b61138d565b92509250925084826110709190611e1a565b9150600c6001836110819190611fa0565b61108b9190611f6f565b836110969190611e1a565b92506001600c6001846110a99190611fa0565b6110b39190611fd4565b6110bd9190611e1a565b915060006110cb848461152c565b9050808211156110d9578091505b62015180876110e89190611fd4565b620151806110f78686866115b7565b6111019190612005565b61110b9190611e1a565b94508685101561111a57600080fd5b5050505092915050565b61112c611716565b73ffffffffffffffffffffffffffffffffffffffff1661114a6106d7565b73ffffffffffffffffffffffffffffffffffffffff16146111a95761116d611716565b6040517f118cdaa70000000000000000000000000000000000000000000000000000000081526004016111a091906118cc565b60405180910390fd5b565b6000600160009054906101000a900473ffffffffffffffffffffffffffffffffffffffff16905081600160006101000a81548173ffffffffffffffffffffffffffffffffffffffff021916908373ffffffffffffffffffffffffffffffffffffffff1602179055508173ffffffffffffffffffffffffffffffffffffffff168173ffffffffffffffffffffffffffffffffffffffff167f8be0079c531659141344cd1fd0a4f28419497f9722a3daafe3b4186f6b6457e060405160405180910390a35050565b6002600054036112ad576040517f3ee5aeb500000000000000000000000000000000000000000000000000000000815260040160405180910390fd5b6002600081905550565b60008062015180836112c99190612005565b600a600b54815481106112df576112de611d85565b5b9060005260206000209060020201600001546112fb9190611e1a565b905080421061135e5760006201518082426113169190611fa0565b6113209190611f6f565b9050806006541015611339576000600681905550611353565b806006600082825461134b9190611fa0565b925050819055505b60009250505061137e565b600a600660008282546113719190611e1a565b9250508190555060019150505b919050565b6001600081905550565b600080600080849050600062253d8c62010bd9836113ab9190612051565b6113b59190612051565b9050600062023ab18260046113ca9190612095565b6113d4919061210d565b9050600460038262023ab16113e99190612095565b6113f39190612051565b6113fd919061210d565b826114089190612177565b9150600062164b0960018461141d9190612051565b610fa061142a9190612095565b611434919061210d565b9050601f6004826105b56114489190612095565b611452919061210d565b8461145d9190612177565b6114679190612051565b9250600061098f84605061147b9190612095565b611485919061210d565b9050600060508261098f6114999190612095565b6114a3919061210d565b856114ae9190612177565b9050600b826114bd919061210d565b945084600c6114cc9190612095565b6002836114d99190612051565b6114e39190612177565b915084836031866114f49190612177565b60646115009190612095565b61150a9190612051565b6115149190612051565b92508298508197508096505050505050509193909250565b6000600182148061153d5750600382145b806115485750600582145b806115535750600782145b8061155e5750600882145b806115695750600a82145b806115745750600c82145b1561158257601f90506115b1565b6002821461159357601e90506115b0565b61159c8361171e565b6115a757601c6115aa565b601d5b60ff1690505b5b92915050565b60006107b28410156115c857600080fd5b600084905060008490506000849050600062253d8c60046064600c600e876115f09190612177565b6115fa919061210d565b611324886116089190612051565b6116129190612051565b61161c919061210d565b60036116289190612095565b611632919061210d565b600c80600c600e886116449190612177565b61164e919061210d565b6116589190612095565b6002876116659190612177565b61166f9190612177565b61016f61167c9190612095565b611686919061210d565b6004600c600e886116979190612177565b6116a1919061210d565b6112c0896116af9190612051565b6116b99190612051565b6105b56116c69190612095565b6116d0919061210d565b617d4b866116de9190612177565b6116e89190612051565b6116f29190612051565b6116fc9190612177565b6117069190612177565b9050809450505050509392505050565b600033905090565b60008060048361172e9190611fd4565b148015611748575060006064836117459190611fd4565b14155b80611760575060006101908361175e9190611fd4565b145b9050919050565b6000819050919050565b61177a81611767565b82525050565b60006020820190506117956000830184611771565b92915050565b600080fd5b6117a981611767565b81146117b457600080fd5b50565b6000813590506117c6816117a0565b92915050565b600080604083850312156117e3576117e261179b565b5b60006117f1858286016117b7565b9250506020611802858286016117b7565b9150509250929050565b6000602082840312156118225761182161179b565b5b6000611830848285016117b7565b91505092915050565b60008115159050919050565b61184e81611839565b82525050565b60006060820190506118696000830186611771565b6118766020830185611845565b6118836040830184611845565b949350505050565b600073ffffffffffffffffffffffffffffffffffffffff82169050919050565b60006118b68261188b565b9050919050565b6118c6816118ab565b82525050565b60006020820190506118e160008301846118bd565b92915050565b600081519050919050565b600082825260208201905092915050565b60005b83811015611921578082015181840152602081019050611906565b60008484015250505050565b6000601f19601f8301169050919050565b6000611949826118e7565b61195381856118f2565b9350611963818560208601611903565b61196c8161192d565b840191505092915050565b60006020820190508181036000830152611991818461193e565b905092915050565b600081519050919050565b600082825260208201905092915050565b6000819050602082019050919050565b6119ce81611767565b82525050565b6119dd81611839565b82525050565b6060820160008201516119f960008501826119c5565b506020820151611a0c60208501826119d4565b506040820151611a1f60408501826119d4565b50505050565b6000611a3183836119e3565b60608301905092915050565b6000602082019050919050565b6000611a5582611999565b611a5f81856119a4565b9350611a6a836119b5565b8060005b83811015611a9b578151611a828882611a25565b9750611a8d83611a3d565b925050600181019050611a6e565b5085935050505092915050565b60006020820190508181036000830152611ac28184611a4a565b905092915050565b611ad3816118ab565b8114611ade57600080fd5b50565b600081359050611af081611aca565b92915050565b600060208284031215611b0c57611b0b61179b565b5b6000611b1a84828501611ae1565b91505092915050565b7f57616c6c6574206e6f7420616c6c6f7765640000000000000000000000000000600082015250565b6000611b596012836118f2565b9150611b6482611b23565b602082019050919050565b60006020820190508181036000830152611b8881611b4c565b9050919050565b7f5061796572206e6f7420616c6c6f776564000000000000000000000000000000600082015250565b6000611bc56011836118f2565b9150611bd082611b8f565b602082019050919050565b60006020820190508181036000830152611bf481611bb8565b9050919050565b7f57726f6e672072656e7420616d6f756e74000000000000000000000000000000600082015250565b6000611c316011836118f2565b9150611c3c82611bfb565b602082019050919050565b60006020820190508181036000830152611c6081611c24565b9050919050565b7f546865206c656173652068617320657870697265640000000000000000000000600082015250565b6000611c9d6015836118f2565b9150611ca882611c67565b602082019050919050565b60006020820190508181036000830152611ccc81611c90565b9050919050565b600081905092915050565b50565b6000611cee600083611cd3565b9150611cf982611cde565b600082019050919050565b6000611d0f82611ce1565b9150819050919050565b7f4661696c656420746f2073656e64207468652072656e74000000000000000000600082015250565b6000611d4f6017836118f2565b9150611d5a82611d19565b602082019050919050565b60006020820190508181036000830152611d7e81611d42565b9050919050565b7f4e487b7100000000000000000000000000000000000000000000000000000000600052603260045260246000fd5b6000606082019050611dc96000830186611771565b611dd66020830185611771565b611de36040830184611845565b949350505050565b7f4e487b7100000000000000000000000000000000000000000000000000000000600052601160045260246000fd5b6000611e2582611767565b9150611e3083611767565b9250828201905080821115611e4857611e47611deb565b5b92915050565b7f4e487b7100000000000000000000000000000000000000000000000000000000600052602260045260246000fd5b60006002820490506001821680611e9557607f821691505b602082108103611ea857611ea7611e4e565b5b50919050565b7f4f6e6c7920746865206c616e646c6f726420697320616c6c6f77656420746f2060008201527f706572666f726d2074686973206f7065726174696f6e00000000000000000000602082015250565b6000611f0a6036836118f2565b9150611f1582611eae565b604082019050919050565b60006020820190508181036000830152611f3981611efd565b9050919050565b7f4e487b7100000000000000000000000000000000000000000000000000000000600052601260045260246000fd5b6000611f7a82611767565b9150611f8583611767565b925082611f9557611f94611f40565b5b828204905092915050565b6000611fab82611767565b9150611fb683611767565b9250828203905081811115611fce57611fcd611deb565b5b92915050565b6000611fdf82611767565b9150611fea83611767565b925082611ffa57611ff9611f40565b5b828206905092915050565b600061201082611767565b915061201b83611767565b925082820261202981611767565b915082820484148315176120405761203f611deb565b5b5092915050565b6000819050919050565b600061205c82612047565b915061206783612047565b92508282019050828112156000831216838212600084121516171561208f5761208e611deb565b5b92915050565b60006120a082612047565b91506120ab83612047565b92508282026120b981612047565b91507f800000000000000000000000000000000000000000000000000000000000000084146000841216156120f1576120f0611deb565b5b828205841483151761210657612105611deb565b5b5092915050565b600061211882612047565b915061212383612047565b92508261213357612132611f40565b5b600160000383147f80000000000000000000000000000000000000000000000000000000000000008314161561216c5761216b611deb565b5b828205905092915050565b600061218282612047565b915061218d83612047565b92508282039050818112600084121682821360008512151617156121b4576121b3611deb565b5b9291505056fea2646970667358221220388f4b0afa8a82c9c489128c7bc876adf24e862f06df340e1e43c5e70945890e64736f6c634300081c0033",
  "linkReferences": {},
  "deployedLinkReferences": {}
}